{"contracts/libs/Multicall.sol":{"Multicall":{"abi":[{"inputs":[{"components":[{"internalType":"address","name":"target","type":"address"},{"internalType":"bytes","name":"callData","type":"bytes"}],"internalType":"struct Multicall.Call[]","name":"calls","type":"tuple[]"}],"name":"aggregate","outputs":[{"internalType":"uint256","name":"blockNumber","type":"uint256"},{"internalType":"bytes[]","name":"returnData","type":"bytes[]"}],"stateMutability":"nonpayable","type":"function"},{"inputs":[{"internalType":"uint256","name":"blockNumber","type":"uint256"}],"name":"getBlockHash","outputs":[{"internalType":"bytes32","name":"blockHash","type":"bytes32"}],"stateMutability":"view","type":"function"},{"inputs":[],"name":"getCurrentBlockCoinbase","outputs":[{"internalType":"address","name":"coinbase","type":"address"}],"stateMutability":"view","type":"function"},{"inputs":[],"name":"getCurrentBlockDifficulty","outputs":[{"internalType":"uint256","name":"difficulty","type":"uint256"}],"stateMutability":"view","type":"function"},{"inputs":[],"name":"getCurrentBlockGasLimit","outputs":[{"internalType":"uint256","name":"gaslimit","type":"uint256"}],"stateMutability":"view","type":"function"},{"inputs":[],"name":"getCurrentBlockTimestamp","outputs":[{"internalType":"uint256","name":"timestamp","type":"uint256"}],"stateMutability":"view","type":"function"},{"inputs":[{"internalType":"address","name":"addr","type":"address"}],"name":"getEthBalance","outputs":[{"internalType":"uint256","name":"balance","type":"uint256"}],"stateMutability":"view","type":"function"},{"inputs":[],"name":"getLastBlockHash","outputs":[{"internalType":"bytes32","name":"blockHash","type":"bytes32"}],"stateMutability":"view","type":"function"}],"devdoc":{"author":"Michael Elliot <mike@makerdao.com>Joshua Levine <joshua@makerdao.com>Nick Johnson <arachnid@notdot.net>","kind":"dev","methods":{},"title":"Multicall - Aggregate results from multiple read-only function calls","version":1},"evm":{"bytecode":{"linkReferences":{},"object":"608060405234801561001057600080fd5b506105ff806100206000396000f3fe608060405234801561001057600080fd5b50600436106100785760003560e01c80630f28c97d1461007d578063252dba421461009b57806327e86d6e146100bc5780634d2301cc146100c457806372425d9d146100d757806386d516e8146100df578063a8b0574e146100e7578063ee82ac5e146100fc575b600080fd5b61008561010f565b6040516100929190610488565b60405180910390f35b6100ae6100a93660046102f8565b610113565b604051610092929190610491565b61008561028b565b6100856100d23660046102d7565b61029e565b6100856102ab565b6100856102af565b6100ef6102b3565b6040516100929190610474565b61008561010a366004610440565b6102b7565b4290565b8051439060609067ffffffffffffffff81111561014057634e487b7160e01b600052604160045260246000fd5b60405190808252806020026020018201604052801561017357816020015b606081526020019060019003908161015e5790505b50905060005b8351811015610285576000808583815181106101a557634e487b7160e01b600052603260045260246000fd5b6020026020010151600001516001600160a01b03168684815181106101da57634e487b7160e01b600052603260045260246000fd5b6020026020010151602001516040516101f39190610458565b6000604051808303816000865af19150503d8060008114610230576040519150601f19603f3d011682016040523d82523d6000602084013e610235565b606091505b50915091508161024457600080fd5b8084848151811061026557634e487b7160e01b600052603260045260246000fd5b60200260200101819052505050808061027d90610582565b915050610179565b50915091565b600061029860014361053b565b40905090565b6001600160a01b03163190565b4490565b4590565b4190565b4090565b80356001600160a01b03811681146102d257600080fd5b919050565b6000602082840312156102e8578081fd5b6102f1826102bb565b9392505050565b6000602080838503121561030a578182fd5b67ffffffffffffffff8084351115610320578283fd5b8335840185601f820112610332578384fd5b803582811115610344576103446105b3565b6103518485830201610511565b81815284810190838601875b848110156104315781358601601f196040828e038201121561037d578a8bfd5b604051604081018181108b82111715610398576103986105b3565b6040526103a6838c016102bb565b815260408301358a8111156103b9578c8dfd5b8084019350508d603f8401126103cd578b8cfd5b8a8301358a8111156103e1576103e16105b3565b6103f18c84601f84011601610511565b92508083528e6040828601011115610407578c8dfd5b80604085018d85013782018b018c9052808b0191909152855250928701929087019060010161035d565b50909998505050505050505050565b600060208284031215610451578081fd5b5035919050565b6000825161046a818460208701610552565b9190910192915050565b6001600160a01b0391909116815260200190565b90815260200190565b600060408201848352602060408185015281855180845260608601915060608382028701019350828701855b8281101561050357878603605f19018452815180518088526104e481888a01898501610552565b601f01601f1916969096018501955092840192908401906001016104bd565b509398975050505050505050565b60405181810167ffffffffffffffff81118282101715610533576105336105b3565b604052919050565b60008282101561054d5761054d61059d565b500390565b60005b8381101561056d578181015183820152602001610555565b8381111561057c576000848401525b50505050565b60006000198214156105965761059661059d565b5060010190565b634e487b7160e01b600052601160045260246000fd5b634e487b7160e01b600052604160045260246000fdfea2646970667358221220043e899fcf2359f1f24be05f500ea7aac6f0574037fc31f6202d7eb41801bd4164736f6c63430008000033","opcodes":"PUSH1 0x80 PUSH1 0x40 MSTORE CALLVALUE DUP1 ISZERO PUSH2 0x10 JUMPI PUSH1 0x0 DUP1 REVERT JUMPDEST POP PUSH2 0x5FF DUP1 PUSH2 0x20 PUSH1 0x0 CODECOPY PUSH1 0x0 RETURN INVALID PUSH1 0x80 PUSH1 0x40 MSTORE CALLVALUE DUP1 ISZERO PUSH2 0x10 JUMPI PUSH1 0x0 DUP1 REVERT JUMPDEST POP PUSH1 0x4 CALLDATASIZE LT PUSH2 0x78 JUMPI PUSH1 0x0 CALLDATALOAD PUSH1 0xE0 SHR DUP1 PUSH4 0xF28C97D EQ PUSH2 0x7D JUMPI DUP1 PUSH4 0x252DBA42 EQ PUSH2 0x9B JUMPI DUP1 PUSH4 0x27E86D6E EQ PUSH2 0xBC JUMPI DUP1 PUSH4 0x4D2301CC EQ PUSH2 0xC4 JUMPI DUP1 PUSH4 0x72425D9D EQ PUSH2 0xD7 JUMPI DUP1 PUSH4 0x86D516E8 EQ PUSH2 0xDF JUMPI DUP1 PUSH4 0xA8B0574E EQ PUSH2 0xE7 JUMPI DUP1 PUSH4 0xEE82AC5E EQ PUSH2 0xFC JUMPI JUMPDEST PUSH1 0x0 DUP1 REVERT JUMPDEST PUSH2 0x85 PUSH2 0x10F JUMP JUMPDEST PUSH1 0x40 MLOAD PUSH2 0x92 SWAP2 SWAP1 PUSH2 0x488 JUMP JUMPDEST PUSH1 0x40 MLOAD DUP1 SWAP2 SUB SWAP1 RETURN JUMPDEST PUSH2 0xAE PUSH2 0xA9 CALLDATASIZE PUSH1 0x4 PUSH2 0x2F8 JUMP JUMPDEST PUSH2 0x113 JUMP JUMPDEST PUSH1 0x40 MLOAD PUSH2 0x92 SWAP3 SWAP2 SWAP1 PUSH2 0x491 JUMP JUMPDEST PUSH2 0x85 PUSH2 0x28B JUMP JUMPDEST PUSH2 0x85 PUSH2 0xD2 CALLDATASIZE PUSH1 0x4 PUSH2 0x2D7 JUMP JUMPDEST PUSH2 0x29E JUMP JUMPDEST PUSH2 0x85 PUSH2 0x2AB JUMP JUMPDEST PUSH2 0x85 PUSH2 0x2AF JUMP JUMPDEST PUSH2 0xEF PUSH2 0x2B3 JUMP JUMPDEST PUSH1 0x40 MLOAD PUSH2 0x92 SWAP2 SWAP1 PUSH2 0x474 JUMP JUMPDEST PUSH2 0x85 PUSH2 0x10A CALLDATASIZE PUSH1 0x4 PUSH2 0x440 JUMP JUMPDEST PUSH2 0x2B7 JUMP JUMPDEST TIMESTAMP SWAP1 JUMP JUMPDEST DUP1 MLOAD NUMBER SWAP1 PUSH1 0x60 SWAP1 PUSH8 0xFFFFFFFFFFFFFFFF DUP2 GT ISZERO PUSH2 0x140 JUMPI PUSH4 0x4E487B71 PUSH1 0xE0 SHL PUSH1 0x0 MSTORE PUSH1 0x41 PUSH1 0x4 MSTORE PUSH1 0x24 PUSH1 0x0 REVERT JUMPDEST PUSH1 0x40 MLOAD SWAP1 DUP1 DUP3 MSTORE DUP1 PUSH1 0x20 MUL PUSH1 0x20 ADD DUP3 ADD PUSH1 0x40 MSTORE DUP1 ISZERO PUSH2 0x173 JUMPI DUP2 PUSH1 0x20 ADD JUMPDEST PUSH1 0x60 DUP2 MSTORE PUSH1 0x20 ADD SWAP1 PUSH1 0x1 SWAP1 SUB SWAP1 DUP2 PUSH2 0x15E JUMPI SWAP1 POP JUMPDEST POP SWAP1 POP PUSH1 0x0 JUMPDEST DUP4 MLOAD DUP2 LT ISZERO PUSH2 0x285 JUMPI PUSH1 0x0 DUP1 DUP6 DUP4 DUP2 MLOAD DUP2 LT PUSH2 0x1A5 JUMPI PUSH4 0x4E487B71 PUSH1 0xE0 SHL PUSH1 0x0 MSTORE PUSH1 0x32 PUSH1 0x4 MSTORE PUSH1 0x24 PUSH1 0x0 REVERT JUMPDEST PUSH1 0x20 MUL PUSH1 0x20 ADD ADD MLOAD PUSH1 0x0 ADD MLOAD PUSH1 0x1 PUSH1 0x1 PUSH1 0xA0 SHL SUB AND DUP7 DUP5 DUP2 MLOAD DUP2 LT PUSH2 0x1DA JUMPI PUSH4 0x4E487B71 PUSH1 0xE0 SHL PUSH1 0x0 MSTORE PUSH1 0x32 PUSH1 0x4 MSTORE PUSH1 0x24 PUSH1 0x0 REVERT JUMPDEST PUSH1 0x20 MUL PUSH1 0x20 ADD ADD MLOAD PUSH1 0x20 ADD MLOAD PUSH1 0x40 MLOAD PUSH2 0x1F3 SWAP2 SWAP1 PUSH2 0x458 JUMP JUMPDEST PUSH1 0x0 PUSH1 0x40 MLOAD DUP1 DUP4 SUB DUP2 PUSH1 0x0 DUP7 GAS CALL SWAP2 POP POP RETURNDATASIZE DUP1 PUSH1 0x0 DUP2 EQ PUSH2 0x230 JUMPI PUSH1 0x40 MLOAD SWAP2 POP PUSH1 0x1F NOT PUSH1 0x3F RETURNDATASIZE ADD AND DUP3 ADD PUSH1 0x40 MSTORE RETURNDATASIZE DUP3 MSTORE RETURNDATASIZE PUSH1 0x0 PUSH1 0x20 DUP5 ADD RETURNDATACOPY PUSH2 0x235 JUMP JUMPDEST PUSH1 0x60 SWAP2 POP JUMPDEST POP SWAP2 POP SWAP2 POP DUP2 PUSH2 0x244 JUMPI PUSH1 0x0 DUP1 REVERT JUMPDEST DUP1 DUP5 DUP5 DUP2 MLOAD DUP2 LT PUSH2 0x265 JUMPI PUSH4 0x4E487B71 PUSH1 0xE0 SHL PUSH1 0x0 MSTORE PUSH1 0x32 PUSH1 0x4 MSTORE PUSH1 0x24 PUSH1 0x0 REVERT JUMPDEST PUSH1 0x20 MUL PUSH1 0x20 ADD ADD DUP2 SWAP1 MSTORE POP POP POP DUP1 DUP1 PUSH2 0x27D SWAP1 PUSH2 0x582 JUMP JUMPDEST SWAP2 POP POP PUSH2 0x179 JUMP JUMPDEST POP SWAP2 POP SWAP2 JUMP JUMPDEST PUSH1 0x0 PUSH2 0x298 PUSH1 0x1 NUMBER PUSH2 0x53B JUMP JUMPDEST BLOCKHASH SWAP1 POP SWAP1 JUMP JUMPDEST PUSH1 0x1 PUSH1 0x1 PUSH1 0xA0 SHL SUB AND BALANCE SWAP1 JUMP JUMPDEST DIFFICULTY SWAP1 JUMP JUMPDEST GASLIMIT SWAP1 JUMP JUMPDEST COINBASE SWAP1 JUMP JUMPDEST BLOCKHASH SWAP1 JUMP JUMPDEST DUP1 CALLDATALOAD PUSH1 0x1 PUSH1 0x1 PUSH1 0xA0 SHL SUB DUP2 AND DUP2 EQ PUSH2 0x2D2 JUMPI PUSH1 0x0 DUP1 REVERT JUMPDEST SWAP2 SWAP1 POP JUMP JUMPDEST PUSH1 0x0 PUSH1 0x20 DUP3 DUP5 SUB SLT ISZERO PUSH2 0x2E8 JUMPI DUP1 DUP2 REVERT JUMPDEST PUSH2 0x2F1 DUP3 PUSH2 0x2BB JUMP JUMPDEST SWAP4 SWAP3 POP POP POP JUMP JUMPDEST PUSH1 0x0 PUSH1 0x20 DUP1 DUP4 DUP6 SUB SLT ISZERO PUSH2 0x30A JUMPI DUP2 DUP3 REVERT JUMPDEST PUSH8 0xFFFFFFFFFFFFFFFF DUP1 DUP5 CALLDATALOAD GT ISZERO PUSH2 0x320 JUMPI DUP3 DUP4 REVERT JUMPDEST DUP4 CALLDATALOAD DUP5 ADD DUP6 PUSH1 0x1F DUP3 ADD SLT PUSH2 0x332 JUMPI DUP4 DUP5 REVERT JUMPDEST DUP1 CALLDATALOAD DUP3 DUP2 GT ISZERO PUSH2 0x344 JUMPI PUSH2 0x344 PUSH2 0x5B3 JUMP JUMPDEST PUSH2 0x351 DUP5 DUP6 DUP4 MUL ADD PUSH2 0x511 JUMP JUMPDEST DUP2 DUP2 MSTORE DUP5 DUP2 ADD SWAP1 DUP4 DUP7 ADD DUP8 JUMPDEST DUP5 DUP2 LT ISZERO PUSH2 0x431 JUMPI DUP2 CALLDATALOAD DUP7 ADD PUSH1 0x1F NOT PUSH1 0x40 DUP3 DUP15 SUB DUP3 ADD SLT ISZERO PUSH2 0x37D JUMPI DUP11 DUP12 REVERT JUMPDEST PUSH1 0x40 MLOAD PUSH1 0x40 DUP2 ADD DUP2 DUP2 LT DUP12 DUP3 GT OR ISZERO PUSH2 0x398 JUMPI PUSH2 0x398 PUSH2 0x5B3 JUMP JUMPDEST PUSH1 0x40 MSTORE PUSH2 0x3A6 DUP4 DUP13 ADD PUSH2 0x2BB JUMP JUMPDEST DUP2 MSTORE PUSH1 0x40 DUP4 ADD CALLDATALOAD DUP11 DUP2 GT ISZERO PUSH2 0x3B9 JUMPI DUP13 DUP14 REVERT JUMPDEST DUP1 DUP5 ADD SWAP4 POP POP DUP14 PUSH1 0x3F DUP5 ADD SLT PUSH2 0x3CD JUMPI DUP12 DUP13 REVERT JUMPDEST DUP11 DUP4 ADD CALLDATALOAD DUP11 DUP2 GT ISZERO PUSH2 0x3E1 JUMPI PUSH2 0x3E1 PUSH2 0x5B3 JUMP JUMPDEST PUSH2 0x3F1 DUP13 DUP5 PUSH1 0x1F DUP5 ADD AND ADD PUSH2 0x511 JUMP JUMPDEST SWAP3 POP DUP1 DUP4 MSTORE DUP15 PUSH1 0x40 DUP3 DUP7 ADD ADD GT ISZERO PUSH2 0x407 JUMPI DUP13 DUP14 REVERT JUMPDEST DUP1 PUSH1 0x40 DUP6 ADD DUP14 DUP6 ADD CALLDATACOPY DUP3 ADD DUP12 ADD DUP13 SWAP1 MSTORE DUP1 DUP12 ADD SWAP2 SWAP1 SWAP2 MSTORE DUP6 MSTORE POP SWAP3 DUP8 ADD SWAP3 SWAP1 DUP8 ADD SWAP1 PUSH1 0x1 ADD PUSH2 0x35D JUMP JUMPDEST POP SWAP1 SWAP10 SWAP9 POP POP POP POP POP POP POP POP POP JUMP JUMPDEST PUSH1 0x0 PUSH1 0x20 DUP3 DUP5 SUB SLT ISZERO PUSH2 0x451 JUMPI DUP1 DUP2 REVERT JUMPDEST POP CALLDATALOAD SWAP2 SWAP1 POP JUMP JUMPDEST PUSH1 0x0 DUP3 MLOAD PUSH2 0x46A DUP2 DUP5 PUSH1 0x20 DUP8 ADD PUSH2 0x552 JUMP JUMPDEST SWAP2 SWAP1 SWAP2 ADD SWAP3 SWAP2 POP POP JUMP JUMPDEST PUSH1 0x1 PUSH1 0x1 PUSH1 0xA0 SHL SUB SWAP2 SWAP1 SWAP2 AND DUP2 MSTORE PUSH1 0x20 ADD SWAP1 JUMP JUMPDEST SWAP1 DUP2 MSTORE PUSH1 0x20 ADD SWAP1 JUMP JUMPDEST PUSH1 0x0 PUSH1 0x40 DUP3 ADD DUP5 DUP4 MSTORE PUSH1 0x20 PUSH1 0x40 DUP2 DUP6 ADD MSTORE DUP2 DUP6 MLOAD DUP1 DUP5 MSTORE PUSH1 0x60 DUP7 ADD SWAP2 POP PUSH1 0x60 DUP4 DUP3 MUL DUP8 ADD ADD SWAP4 POP DUP3 DUP8 ADD DUP6 JUMPDEST DUP3 DUP2 LT ISZERO PUSH2 0x503 JUMPI DUP8 DUP7 SUB PUSH1 0x5F NOT ADD DUP5 MSTORE DUP2 MLOAD DUP1 MLOAD DUP1 DUP9 MSTORE PUSH2 0x4E4 DUP2 DUP9 DUP11 ADD DUP10 DUP6 ADD PUSH2 0x552 JUMP JUMPDEST PUSH1 0x1F ADD PUSH1 0x1F NOT AND SWAP7 SWAP1 SWAP7 ADD DUP6 ADD SWAP6 POP SWAP3 DUP5 ADD SWAP3 SWAP1 DUP5 ADD SWAP1 PUSH1 0x1 ADD PUSH2 0x4BD JUMP JUMPDEST POP SWAP4 SWAP9 SWAP8 POP POP POP POP POP POP POP POP JUMP JUMPDEST PUSH1 0x40 MLOAD DUP2 DUP2 ADD PUSH8 0xFFFFFFFFFFFFFFFF DUP2 GT DUP3 DUP3 LT OR ISZERO PUSH2 0x533 JUMPI PUSH2 0x533 PUSH2 0x5B3 JUMP JUMPDEST PUSH1 0x40 MSTORE SWAP2 SWAP1 POP JUMP JUMPDEST PUSH1 0x0 DUP3 DUP3 LT ISZERO PUSH2 0x54D JUMPI PUSH2 0x54D PUSH2 0x59D JUMP JUMPDEST POP SUB SWAP1 JUMP JUMPDEST PUSH1 0x0 JUMPDEST DUP4 DUP2 LT ISZERO PUSH2 0x56D JUMPI DUP2 DUP2 ADD MLOAD DUP4 DUP3 ADD MSTORE PUSH1 0x20 ADD PUSH2 0x555 JUMP JUMPDEST DUP4 DUP2 GT ISZERO PUSH2 0x57C JUMPI PUSH1 0x0 DUP5 DUP5 ADD MSTORE JUMPDEST POP POP POP POP JUMP JUMPDEST PUSH1 0x0 PUSH1 0x0 NOT DUP3 EQ ISZERO PUSH2 0x596 JUMPI PUSH2 0x596 PUSH2 0x59D JUMP JUMPDEST POP PUSH1 0x1 ADD SWAP1 JUMP JUMPDEST PUSH4 0x4E487B71 PUSH1 0xE0 SHL PUSH1 0x0 MSTORE PUSH1 0x11 PUSH1 0x4 MSTORE PUSH1 0x24 PUSH1 0x0 REVERT JUMPDEST PUSH4 0x4E487B71 PUSH1 0xE0 SHL PUSH1 0x0 MSTORE PUSH1 0x41 PUSH1 0x4 MSTORE PUSH1 0x24 PUSH1 0x0 REVERT INVALID LOG2 PUSH5 0x6970667358 0x22 SLT KECCAK256 DIV RETURNDATACOPY DUP10 SWAP16 0xCF 0x23 MSIZE CALL CALLCODE 0x4B 0xE0 0x5F POP 0xE 0xA7 0xAA 0xC6 CREATE JUMPI BLOCKHASH CALLDATACOPY 0xFC BALANCE 0xF6 KECCAK256 0x2D PUSH31 0xB41801BD4164736F6C63430008000033000000000000000000000000000000 "},"gasEstimates":{"creation":{"codeDepositCost":"307000","executionCost":"343","totalCost":"307343"},"external":{"aggregate((address,bytes)[])":"infinite","getBlockHash(uint256)":"454","getCurrentBlockCoinbase()":"361","getCurrentBlockDifficulty()":"293","getCurrentBlockGasLimit()":"315","getCurrentBlockTimestamp()":"205","getEthBalance(address)":"1145","getLastBlockHash()":"341"}},"methodIdentifiers":{"aggregate((address,bytes)[])":"252dba42","getBlockHash(uint256)":"ee82ac5e","getCurrentBlockCoinbase()":"a8b0574e","getCurrentBlockDifficulty()":"72425d9d","getCurrentBlockGasLimit()":"86d516e8","getCurrentBlockTimestamp()":"0f28c97d","getEthBalance(address)":"4d2301cc","getLastBlockHash()":"27e86d6e"}},"storageLayout":{"storage":[],"types":null},"userdoc":{"kind":"user","methods":{},"version":1}}}}