{"contracts/MasterChefV2.sol":{"MasterChefV2":{"abi":[{"inputs":[{"internalType":"contract EggToken","name":"_egg","type":"address"},{"internalType":"address","name":"_devaddr","type":"address"},{"internalType":"address","name":"_feeAddress","type":"address"},{"internalType":"uint256","name":"_eggPerBlock","type":"uint256"},{"internalType":"uint256","name":"_startBlock","type":"uint256"}],"stateMutability":"nonpayable","type":"constructor"},{"anonymous":false,"inputs":[{"indexed":true,"internalType":"address","name":"user","type":"address"},{"indexed":true,"internalType":"uint256","name":"pid","type":"uint256"},{"indexed":false,"internalType":"uint256","name":"amount","type":"uint256"}],"name":"Deposit","type":"event"},{"anonymous":false,"inputs":[{"indexed":true,"internalType":"address","name":"user","type":"address"},{"indexed":true,"internalType":"uint256","name":"pid","type":"uint256"},{"indexed":false,"internalType":"uint256","name":"amount","type":"uint256"}],"name":"EmergencyWithdraw","type":"event"},{"anonymous":false,"inputs":[{"indexed":true,"internalType":"address","name":"previousOwner","type":"address"},{"indexed":true,"internalType":"address","name":"newOwner","type":"address"}],"name":"OwnershipTransferred","type":"event"},{"anonymous":false,"inputs":[{"indexed":true,"internalType":"address","name":"user","type":"address"},{"indexed":true,"internalType":"address","name":"newAddress","type":"address"}],"name":"SetDevAddress","type":"event"},{"anonymous":false,"inputs":[{"indexed":true,"internalType":"address","name":"user","type":"address"},{"indexed":true,"internalType":"address","name":"newAddress","type":"address"}],"name":"SetFeeAddress","type":"event"},{"anonymous":false,"inputs":[{"indexed":true,"internalType":"address","name":"user","type":"address"},{"indexed":false,"internalType":"uint256","name":"goosePerBlock","type":"uint256"}],"name":"UpdateEmissionRate","type":"event"},{"anonymous":false,"inputs":[{"indexed":true,"internalType":"address","name":"user","type":"address"},{"indexed":true,"internalType":"uint256","name":"pid","type":"uint256"},{"indexed":false,"internalType":"uint256","name":"amount","type":"uint256"}],"name":"Withdraw","type":"event"},{"inputs":[],"name":"BONUS_MULTIPLIER","outputs":[{"internalType":"uint256","name":"","type":"uint256"}],"stateMutability":"view","type":"function"},{"inputs":[{"internalType":"uint256","name":"_allocPoint","type":"uint256"},{"internalType":"contract IBEP20","name":"_lpToken","type":"address"},{"internalType":"uint16","name":"_depositFeeBP","type":"uint16"},{"internalType":"bool","name":"_withUpdate","type":"bool"}],"name":"add","outputs":[],"stateMutability":"nonpayable","type":"function"},{"inputs":[{"internalType":"uint256","name":"_pid","type":"uint256"},{"internalType":"uint256","name":"_amount","type":"uint256"}],"name":"deposit","outputs":[],"stateMutability":"nonpayable","type":"function"},{"inputs":[{"internalType":"address","name":"_devaddr","type":"address"}],"name":"dev","outputs":[],"stateMutability":"nonpayable","type":"function"},{"inputs":[],"name":"devaddr","outputs":[{"internalType":"address","name":"","type":"address"}],"stateMutability":"view","type":"function"},{"inputs":[],"name":"egg","outputs":[{"internalType":"contract EggToken","name":"","type":"address"}],"stateMutability":"view","type":"function"},{"inputs":[],"name":"eggPerBlock","outputs":[{"internalType":"uint256","name":"","type":"uint256"}],"stateMutability":"view","type":"function"},{"inputs":[{"internalType":"uint256","name":"_pid","type":"uint256"}],"name":"emergencyWithdraw","outputs":[],"stateMutability":"nonpayable","type":"function"},{"inputs":[],"name":"feeAddress","outputs":[{"internalType":"address","name":"","type":"address"}],"stateMutability":"view","type":"function"},{"inputs":[{"internalType":"uint256","name":"_from","type":"uint256"},{"internalType":"uint256","name":"_to","type":"uint256"}],"name":"getMultiplier","outputs":[{"internalType":"uint256","name":"","type":"uint256"}],"stateMutability":"view","type":"function"},{"inputs":[],"name":"massUpdatePools","outputs":[],"stateMutability":"nonpayable","type":"function"},{"inputs":[],"name":"owner","outputs":[{"internalType":"address","name":"","type":"address"}],"stateMutability":"view","type":"function"},{"inputs":[{"internalType":"uint256","name":"_pid","type":"uint256"},{"internalType":"address","name":"_user","type":"address"}],"name":"pendingEgg","outputs":[{"internalType":"uint256","name":"","type":"uint256"}],"stateMutability":"view","type":"function"},{"inputs":[{"internalType":"contract IBEP20","name":"","type":"address"}],"name":"poolExistence","outputs":[{"internalType":"bool","name":"","type":"bool"}],"stateMutability":"view","type":"function"},{"inputs":[{"internalType":"uint256","name":"","type":"uint256"}],"name":"poolInfo","outputs":[{"internalType":"contract IBEP20","name":"lpToken","type":"address"},{"internalType":"uint256","name":"allocPoint","type":"uint256"},{"internalType":"uint256","name":"lastRewardBlock","type":"uint256"},{"internalType":"uint256","name":"accEggPerShare","type":"uint256"},{"internalType":"uint16","name":"depositFeeBP","type":"uint16"}],"stateMutability":"view","type":"function"},{"inputs":[],"name":"poolLength","outputs":[{"internalType":"uint256","name":"","type":"uint256"}],"stateMutability":"view","type":"function"},{"inputs":[],"name":"renounceOwnership","outputs":[],"stateMutability":"nonpayable","type":"function"},{"inputs":[{"internalType":"uint256","name":"_pid","type":"uint256"},{"internalType":"uint256","name":"_allocPoint","type":"uint256"},{"internalType":"uint16","name":"_depositFeeBP","type":"uint16"},{"internalType":"bool","name":"_withUpdate","type":"bool"}],"name":"set","outputs":[],"stateMutability":"nonpayable","type":"function"},{"inputs":[{"internalType":"address","name":"_feeAddress","type":"address"}],"name":"setFeeAddress","outputs":[],"stateMutability":"nonpayable","type":"function"},{"inputs":[],"name":"startBlock","outputs":[{"internalType":"uint256","name":"","type":"uint256"}],"stateMutability":"view","type":"function"},{"inputs":[],"name":"totalAllocPoint","outputs":[{"internalType":"uint256","name":"","type":"uint256"}],"stateMutability":"view","type":"function"},{"inputs":[{"internalType":"address","name":"newOwner","type":"address"}],"name":"transferOwnership","outputs":[],"stateMutability":"nonpayable","type":"function"},{"inputs":[{"internalType":"uint256","name":"_eggPerBlock","type":"uint256"}],"name":"updateEmissionRate","outputs":[],"stateMutability":"nonpayable","type":"function"},{"inputs":[{"internalType":"uint256","name":"_pid","type":"uint256"}],"name":"updatePool","outputs":[],"stateMutability":"nonpayable","type":"function"},{"inputs":[{"internalType":"uint256","name":"","type":"uint256"},{"internalType":"address","name":"","type":"address"}],"name":"userInfo","outputs":[{"internalType":"uint256","name":"amount","type":"uint256"},{"internalType":"uint256","name":"rewardDebt","type":"uint256"}],"stateMutability":"view","type":"function"},{"inputs":[{"internalType":"uint256","name":"_pid","type":"uint256"},{"internalType":"uint256","name":"_amount","type":"uint256"}],"name":"withdraw","outputs":[],"stateMutability":"nonpayable","type":"function"}],"devdoc":{"kind":"dev","methods":{"owner()":{"details":"Returns the address of the current owner."},"renounceOwnership()":{"details":"Leaves the contract without owner. It will not be possible to call `onlyOwner` functions anymore. Can only be called by the current owner. NOTE: Renouncing ownership will leave the contract without an owner, thereby removing any functionality that is only available to the owner."},"transferOwnership(address)":{"details":"Transfers ownership of the contract to a new account (`newOwner`). Can only be called by the current owner."}},"version":1},"evm":{"bytecode":{"linkReferences":{},"object":"6080604052600060085534801561001557600080fd5b50604051611e73380380611e73833981810160405260a081101561003857600080fd5b5080516020820151604083015160608401516080909401519293919290919060006100616100fb565b600080546001600160a01b0319166001600160a01b0383169081178255604051929350917f8be0079c531659141344cd1fd0a4f28419497f9722a3daafe3b4186f6b6457e0908290a35060018055600280546001600160a01b03199081166001600160a01b0397881617909155600380548216958716959095179094556005805490941692909416919091179091556004556009556100ff565b3390565b611d658061010e6000396000f3fe608060405234801561001057600080fd5b506004361061016e5760003560e01c80638aa28550116100ce578063c06abfc711610087578063c06abfc7146103ad578063cbd258b5146103b5578063d49e77cd146103ef578063d9638422146103f7578063e2bbb1581461042c578063f2fde38b1461044f578063f456426f146104755761016e565b80638aa28550146103075780638d88a90e1461030f5780638da5cb5b146103355780638dbb1e3a1461033d57806393f1a40b14610360578063a1a4d4a4146103a55761016e565b806348cd4cb11161012b57806348cd4cb11461025157806351eb05a6146102595780635312ea8e14610276578063630b5ba114610293578063715018a61461029b57806384e82a33146102a35780638705fcd4146102e15761016e565b8063081e3eda146101735780630ba84cd21461018d5780631526fe27146101ac57806317caf6f114610202578063412753581461020a578063441a3e701461022e575b600080fd5b61017b6104a1565b60408051918252519081900360200190f35b6101aa600480360360208110156101a357600080fd5b50356104a7565b005b6101c9600480360360208110156101c257600080fd5b503561054f565b604080516001600160a01b039096168652602086019490945284840192909252606084015261ffff166080830152519081900360a00190f35b61017b61059b565b6102126105a1565b604080516001600160a01b039092168252519081900360200190f35b6101aa6004803603604081101561024457600080fd5b50803590602001356105b0565b61017b610761565b6101aa6004803603602081101561026f57600080fd5b5035610767565b6101aa6004803603602081101561028c57600080fd5b503561099d565b6101aa610a8b565b6101aa610aae565b6101aa600480360360808110156102b957600080fd5b508035906001600160a01b036020820135169061ffff60408201351690606001351515610b5a565b6101aa600480360360208110156102f757600080fd5b50356001600160a01b0316610dec565b61017b610e92565b6101aa6004803603602081101561032557600080fd5b50356001600160a01b0316610e97565b610212610f2e565b61017b6004803603604081101561035357600080fd5b5080359060200135610f3d565b61038c6004803603604081101561037657600080fd5b50803590602001356001600160a01b0316610f57565b6040805192835260208301919091528051918290030190f35b61017b610f7b565b610212610f81565b6103db600480360360208110156103cb57600080fd5b50356001600160a01b0316610f90565b604080519115158252519081900360200190f35b610212610fa5565b6101aa6004803603608081101561040d57600080fd5b5080359060208101359061ffff60408201351690606001351515610fb4565b6101aa6004803603604081101561044257600080fd5b508035906020013561110e565b6101aa6004803603602081101561046557600080fd5b50356001600160a01b03166112d8565b61017b6004803603604081101561048b57600080fd5b50803590602001356001600160a01b03166113da565b60065490565b6104af611538565b6001600160a01b03166104c0610f2e565b6001600160a01b031614610509576040805162461bcd60e51b81526020600482018190526024820152600080516020611d10833981519152604482015290519081900360640190fd5b610511610a8b565b600481905560408051828152905133917fe2492e003bbe8afa53088b406f0c1cb5d9e280370fc72a74cf116ffd343c4053919081900360200190a250565b6006818154811061055c57fe5b6000918252602090912060059091020180546001820154600283015460038401546004909401546001600160a01b0390931694509092909161ffff1685565b60085481565b6005546001600160a01b031681565b600260015414156105f6576040805162461bcd60e51b815260206004820152601f6024820152600080516020611c0f833981519152604482015290519081900360640190fd5b600260018190555060006006838154811061060d57fe5b600091825260208083208684526007825260408085203386529092529220805460059092029092019250831115610680576040805162461bcd60e51b81526020600482015260126024820152711dda5d1a191c985dce881b9bdd0819dbdbd960721b604482015290519081900360640190fd5b61068984610767565b60006106c382600101546106bd64e8d4a510006106b78760030154876000015461153c90919063ffffffff16565b90611595565b906115fc565b905080156106d5576106d53382611659565b83156106ff5781546106e790856115fc565b825582546106ff906001600160a01b03163386611842565b6003830154825461071a9164e8d4a51000916106b79161153c565b6001830155604080518581529051869133917ff279e6a1f5e320cca91135676d9cb6e44ca8a08c0b88342bcdb1144f6511b5689181900360200190a3505060018055505050565b60095481565b60006006828154811061077657fe5b9060005260206000209060050201905080600201544311610797575061099a565b8054604080516370a0823160e01b815230600482015290516000926001600160a01b0316916370a08231916024808301926020929190829003018186803b1580156107e157600080fd5b505afa1580156107f5573d6000803e3d6000fd5b505050506040513d602081101561080b57600080fd5b5051905080158061081e57506001820154155b1561083057504360029091015561099a565b6000610840836002015443610f3d565b9050600061086d6008546106b786600101546108676004548761153c90919063ffffffff16565b9061153c565b6002546003549192506001600160a01b03908116916340c10f19911661089484600a611595565b6040518363ffffffff1660e01b815260040180836001600160a01b0316815260200182815260200192505050600060405180830381600087803b1580156108da57600080fd5b505af11580156108ee573d6000803e3d6000fd5b5050600254604080516340c10f1960e01b81523060048201526024810186905290516001600160a01b0390921693506340c10f19925060448082019260009290919082900301818387803b15801561094557600080fd5b505af1158015610959573d6000803e3d6000fd5b5050505061098761097c846106b764e8d4a510008561153c90919063ffffffff16565b600386015490611899565b6003850155505043600290920191909155505b50565b600260015414156109e3576040805162461bcd60e51b815260206004820152601f6024820152600080516020611c0f833981519152604482015290519081900360640190fd5b60026001819055506000600682815481106109fa57fe5b600091825260208083208584526007825260408085203380875293528420805485825560018201959095556005909302018054909450919291610a4a916001600160a01b03919091169083611842565b604080518281529051859133917fbb757047c2b5f3974fe26b7c10f732e7bce710b0952a71082702781e62ae05959181900360200190a35050600180555050565b60065460005b81811015610aaa57610aa281610767565b600101610a91565b5050565b610ab6611538565b6001600160a01b0316610ac7610f2e565b6001600160a01b031614610b10576040805162461bcd60e51b81526020600482018190526024820152600080516020611d10833981519152604482015290519081900360640190fd5b600080546040516001600160a01b03909116907f8be0079c531659141344cd1fd0a4f28419497f9722a3daafe3b4186f6b6457e0908390a3600080546001600160a01b0319169055565b610b62611538565b6001600160a01b0316610b73610f2e565b6001600160a01b031614610bbc576040805162461bcd60e51b81526020600482018190526024820152600080516020611d10833981519152604482015290519081900360640190fd5b6001600160a01b0383166000908152600a6020526040902054839060ff1615610c28576040805162461bcd60e51b81526020600482015260196024820152781b9bdb911d5c1b1a58d85d19590e88191d5c1b1a58d85d1959603a1b604482015290519081900360640190fd5b6127108361ffff161115610c6d5760405162461bcd60e51b8152600401808060200182810382526025815260200180611c2f6025913960400191505060405180910390fd5b8115610c7b57610c7b610a8b565b60006009544311610c8e57600954610c90565b435b600854909150610ca09087611899565b6008556001600160a01b039485166000818152600a602090815260408083208054600160ff199091168117909155815160a081018352948552918401998a5283019384526060830182815261ffff9788166080850190815260068054938401815590935292517ff652222313e28459528d920b65115c16c04f3efc82aaedc97be59f3f377c0d3f600590920291820180546001600160a01b031916919099161790975596517ff652222313e28459528d920b65115c16c04f3efc82aaedc97be59f3f377c0d4087015590517ff652222313e28459528d920b65115c16c04f3efc82aaedc97be59f3f377c0d41860155517ff652222313e28459528d920b65115c16c04f3efc82aaedc97be59f3f377c0d42850155505091517ff652222313e28459528d920b65115c16c04f3efc82aaedc97be59f3f377c0d43909101805461ffff191691909216179055565b6005546001600160a01b03163314610e46576040805162461bcd60e51b815260206004820152601860248201527739b2ba2332b2a0b2323932b9b99d102327a92124a22222a760411b604482015290519081900360640190fd5b600580546001600160a01b0319166001600160a01b03831690811790915560405133907fd44190acf9d04bdb5d3a1aafff7e6dee8b40b93dfb8c5d3f0eea4b9f4539c3f790600090a350565b600181565b6003546001600160a01b03163314610ee2576040805162461bcd60e51b81526020600482015260096024820152686465763a207775743f60b81b604482015290519081900360640190fd5b600380546001600160a01b0319166001600160a01b03831690811790915560405133907f618c54559e94f1499a808aad71ee8729f8e74e8c48e979616328ce493a1a52e790600090a350565b6000546001600160a01b031690565b6000610f4e600161086784866115fc565b90505b92915050565b60076020908152600092835260408084209091529082529020805460019091015482565b60045481565b6002546001600160a01b031681565b600a6020526000908152604090205460ff1681565b6003546001600160a01b031681565b610fbc611538565b6001600160a01b0316610fcd610f2e565b6001600160a01b031614611016576040805162461bcd60e51b81526020600482018190526024820152600080516020611d10833981519152604482015290519081900360640190fd5b6127108261ffff16111561105b5760405162461bcd60e51b8152600401808060200182810382526025815260200180611ceb6025913960400191505060405180910390fd5b801561106957611069610a8b565b6110a6836110a06006878154811061107d57fe5b9060005260206000209060050201600101546008546115fc90919063ffffffff16565b90611899565b60088190555082600685815481106110ba57fe5b90600052602060002090600502016001018190555081600685815481106110dd57fe5b906000526020600020906005020160040160006101000a81548161ffff021916908361ffff16021790555050505050565b60026001541415611154576040805162461bcd60e51b815260206004820152601f6024820152600080516020611c0f833981519152604482015290519081900360640190fd5b600260018190555060006006838154811061116b57fe5b6000918252602080832086845260078252604080852033865290925292206005909102909101915061119c84610767565b8054156111e55760006111d182600101546106bd64e8d4a510006106b78760030154876000015461153c90919063ffffffff16565b905080156111e3576111e33382611659565b505b8215611277578154611202906001600160a01b03163330866118f3565b600482015461ffff161561126857600482015460009061122f90612710906106b790879061ffff1661153c565b600554845491925061124e916001600160a01b03908116911683611842565b81546112609082906106bd9087611899565b825550611277565b80546112749084611899565b81555b600382015481546112929164e8d4a51000916106b79161153c565b6001820155604080518481529051859133917f90890809c654f11d6e72a28fa60149770a0d11ec6c92319d6ceb2bb0a4ea1a159181900360200190a35050600180555050565b6112e0611538565b6001600160a01b03166112f1610f2e565b6001600160a01b03161461133a576040805162461bcd60e51b81526020600482018190526024820152600080516020611d10833981519152604482015290519081900360640190fd5b6001600160a01b03811661137f5760405162461bcd60e51b8152600401808060200182810382526026815260200180611c7e6026913960400191505060405180910390fd5b600080546040516001600160a01b03808516939216917f8be0079c531659141344cd1fd0a4f28419497f9722a3daafe3b4186f6b6457e091a3600080546001600160a01b0319166001600160a01b0392909216919091179055565b600080600684815481106113ea57fe5b600091825260208083208784526007825260408085206001600160a01b0389811687529084528186206005959095029092016003810154815483516370a0823160e01b815230600482015293519298509596909590949316926370a082319260248082019391829003018186803b15801561146457600080fd5b505afa158015611478573d6000803e3d6000fd5b505050506040513d602081101561148e57600080fd5b50516002850154909150431180156114a557508015155b156115055760006114ba856002015443610f3d565b905060006114e16008546106b788600101546108676004548761153c90919063ffffffff16565b90506115006114f9846106b78464e8d4a5100061153c565b8590611899565b935050505b61152d83600101546106bd64e8d4a510006106b786886000015461153c90919063ffffffff16565b979650505050505050565b3390565b60008261154b57506000610f51565b8282028284828161155857fe5b0414610f4e5760405162461bcd60e51b8152600401808060200182810382526021815260200180611cca6021913960400191505060405180910390fd5b60008082116115eb576040805162461bcd60e51b815260206004820152601a60248201527f536166654d6174683a206469766973696f6e206279207a65726f000000000000604482015290519081900360640190fd5b8183816115f457fe5b049392505050565b600082821115611653576040805162461bcd60e51b815260206004820152601e60248201527f536166654d6174683a207375627472616374696f6e206f766572666c6f770000604482015290519081900360640190fd5b50900390565b600254604080516370a0823160e01b815230600482015290516000926001600160a01b0316916370a08231916024808301926020929190829003018186803b1580156116a457600080fd5b505afa1580156116b8573d6000803e3d6000fd5b505050506040513d60208110156116ce57600080fd5b50519050600081831115611765576002546040805163a9059cbb60e01b81526001600160a01b038781166004830152602482018690529151919092169163a9059cbb9160448083019260209291908290030181600087803b15801561173257600080fd5b505af1158015611746573d6000803e3d6000fd5b505050506040513d602081101561175c57600080fd5b505190506117ea565b6002546040805163a9059cbb60e01b81526001600160a01b038781166004830152602482018790529151919092169163a9059cbb9160448083019260209291908290030181600087803b1580156117bb57600080fd5b505af11580156117cf573d6000803e3d6000fd5b505050506040513d60208110156117e557600080fd5b505190505b8061183c576040805162461bcd60e51b815260206004820181905260248201527f736166654567675472616e736665723a207472616e73666572206661696c6564604482015290519081900360640190fd5b50505050565b604080516001600160a01b038416602482015260448082018490528251808303909101815260649091019091526020810180516001600160e01b031663a9059cbb60e01b179052611894908490611949565b505050565b600082820183811015610f4e576040805162461bcd60e51b815260206004820152601b60248201527f536166654d6174683a206164646974696f6e206f766572666c6f770000000000604482015290519081900360640190fd5b604080516001600160a01b0380861660248301528416604482015260648082018490528251808303909101815260849091019091526020810180516001600160e01b03166323b872dd60e01b17905261183c9085905b606061199e826040518060400160405280602081526020017f5361666542455032303a206c6f772d6c6576656c2063616c6c206661696c6564815250856001600160a01b03166119fa9092919063ffffffff16565b805190915015611894578080602001905160208110156119bd57600080fd5b50516118945760405162461bcd60e51b815260040180806020018281038252602a815260200180611c54602a913960400191505060405180910390fd5b6060611a098484600085611a13565b90505b9392505050565b606082471015611a545760405162461bcd60e51b8152600401808060200182810382526026815260200180611ca46026913960400191505060405180910390fd5b611a5d85611b64565b611aae576040805162461bcd60e51b815260206004820152601d60248201527f416464726573733a2063616c6c20746f206e6f6e2d636f6e7472616374000000604482015290519081900360640190fd5b60006060866001600160a01b031685876040518082805190602001908083835b60208310611aed5780518252601f199092019160209182019101611ace565b6001836020036101000a03801982511681845116808217855250505050505090500191505060006040518083038185875af1925050503d8060008114611b4f576040519150601f19603f3d011682016040523d82523d6000602084013e611b54565b606091505b509150915061152d828286611b6a565b3b151590565b60608315611b79575081611a0c565b825115611b895782518084602001fd5b8160405162461bcd60e51b81526004018080602001828103825283818151815260200191508051906020019080838360005b83811015611bd3578181015183820152602001611bbb565b50505050905090810190601f168015611c005780820380516001836020036101000a031916815260200191505b509250505060405180910390fdfe5265656e7472616e637947756172643a207265656e7472616e742063616c6c006164643a20696e76616c6964206465706f7369742066656520626173697320706f696e74735361666542455032303a204245503230206f7065726174696f6e20646964206e6f7420737563636565644f776e61626c653a206e6577206f776e657220697320746865207a65726f2061646472657373416464726573733a20696e73756666696369656e742062616c616e636520666f722063616c6c536166654d6174683a206d756c7469706c69636174696f6e206f766572666c6f777365743a20696e76616c6964206465706f7369742066656520626173697320706f696e74734f776e61626c653a2063616c6c6572206973206e6f7420746865206f776e6572a2646970667358221220ee5c566b25274b96a6e800f43319883d1410102f03228f1a092c306a7769a2a064736f6c634300060c0033","opcodes":"PUSH1 0x80 PUSH1 0x40 MSTORE PUSH1 0x0 PUSH1 0x8 SSTORE CALLVALUE DUP1 ISZERO PUSH2 0x15 JUMPI PUSH1 0x0 DUP1 REVERT JUMPDEST POP PUSH1 0x40 MLOAD PUSH2 0x1E73 CODESIZE SUB DUP1 PUSH2 0x1E73 DUP4 CODECOPY DUP2 DUP2 ADD PUSH1 0x40 MSTORE PUSH1 0xA0 DUP2 LT ISZERO PUSH2 0x38 JUMPI PUSH1 0x0 DUP1 REVERT JUMPDEST POP DUP1 MLOAD PUSH1 0x20 DUP3 ADD MLOAD PUSH1 0x40 DUP4 ADD MLOAD PUSH1 0x60 DUP5 ADD MLOAD PUSH1 0x80 SWAP1 SWAP5 ADD MLOAD SWAP3 SWAP4 SWAP2 SWAP3 SWAP1 SWAP2 SWAP1 PUSH1 0x0 PUSH2 0x61 PUSH2 0xFB JUMP JUMPDEST PUSH1 0x0 DUP1 SLOAD PUSH1 0x1 PUSH1 0x1 PUSH1 0xA0 SHL SUB NOT AND PUSH1 0x1 PUSH1 0x1 PUSH1 0xA0 SHL SUB DUP4 AND SWAP1 DUP2 OR DUP3 SSTORE PUSH1 0x40 MLOAD SWAP3 SWAP4 POP SWAP2 PUSH32 0x8BE0079C531659141344CD1FD0A4F28419497F9722A3DAAFE3B4186F6B6457E0 SWAP1 DUP3 SWAP1 LOG3 POP PUSH1 0x1 DUP1 SSTORE PUSH1 0x2 DUP1 SLOAD PUSH1 0x1 PUSH1 0x1 PUSH1 0xA0 SHL SUB NOT SWAP1 DUP2 AND PUSH1 0x1 PUSH1 0x1 PUSH1 0xA0 SHL SUB SWAP8 DUP9 AND OR SWAP1 SWAP2 SSTORE PUSH1 0x3 DUP1 SLOAD DUP3 AND SWAP6 DUP8 AND SWAP6 SWAP1 SWAP6 OR SWAP1 SWAP5 SSTORE PUSH1 0x5 DUP1 SLOAD SWAP1 SWAP5 AND SWAP3 SWAP1 SWAP5 AND SWAP2 SWAP1 SWAP2 OR SWAP1 SWAP2 SSTORE PUSH1 0x4 SSTORE PUSH1 0x9 SSTORE PUSH2 0xFF JUMP JUMPDEST CALLER SWAP1 JUMP JUMPDEST PUSH2 0x1D65 DUP1 PUSH2 0x10E PUSH1 0x0 CODECOPY PUSH1 0x0 RETURN INVALID PUSH1 0x80 PUSH1 0x40 MSTORE CALLVALUE DUP1 ISZERO PUSH2 0x10 JUMPI PUSH1 0x0 DUP1 REVERT JUMPDEST POP PUSH1 0x4 CALLDATASIZE LT PUSH2 0x16E JUMPI PUSH1 0x0 CALLDATALOAD PUSH1 0xE0 SHR DUP1 PUSH4 0x8AA28550 GT PUSH2 0xCE JUMPI DUP1 PUSH4 0xC06ABFC7 GT PUSH2 0x87 JUMPI DUP1 PUSH4 0xC06ABFC7 EQ PUSH2 0x3AD JUMPI DUP1 PUSH4 0xCBD258B5 EQ PUSH2 0x3B5 JUMPI DUP1 PUSH4 0xD49E77CD EQ PUSH2 0x3EF JUMPI DUP1 PUSH4 0xD9638422 EQ PUSH2 0x3F7 JUMPI DUP1 PUSH4 0xE2BBB158 EQ PUSH2 0x42C JUMPI DUP1 PUSH4 0xF2FDE38B EQ PUSH2 0x44F JUMPI DUP1 PUSH4 0xF456426F EQ PUSH2 0x475 JUMPI PUSH2 0x16E JUMP JUMPDEST DUP1 PUSH4 0x8AA28550 EQ PUSH2 0x307 JUMPI DUP1 PUSH4 0x8D88A90E EQ PUSH2 0x30F JUMPI DUP1 PUSH4 0x8DA5CB5B EQ PUSH2 0x335 JUMPI DUP1 PUSH4 0x8DBB1E3A EQ PUSH2 0x33D JUMPI DUP1 PUSH4 0x93F1A40B EQ PUSH2 0x360 JUMPI DUP1 PUSH4 0xA1A4D4A4 EQ PUSH2 0x3A5 JUMPI PUSH2 0x16E JUMP JUMPDEST DUP1 PUSH4 0x48CD4CB1 GT PUSH2 0x12B JUMPI DUP1 PUSH4 0x48CD4CB1 EQ PUSH2 0x251 JUMPI DUP1 PUSH4 0x51EB05A6 EQ PUSH2 0x259 JUMPI DUP1 PUSH4 0x5312EA8E EQ PUSH2 0x276 JUMPI DUP1 PUSH4 0x630B5BA1 EQ PUSH2 0x293 JUMPI DUP1 PUSH4 0x715018A6 EQ PUSH2 0x29B JUMPI DUP1 PUSH4 0x84E82A33 EQ PUSH2 0x2A3 JUMPI DUP1 PUSH4 0x8705FCD4 EQ PUSH2 0x2E1 JUMPI PUSH2 0x16E JUMP JUMPDEST DUP1 PUSH4 0x81E3EDA EQ PUSH2 0x173 JUMPI DUP1 PUSH4 0xBA84CD2 EQ PUSH2 0x18D JUMPI DUP1 PUSH4 0x1526FE27 EQ PUSH2 0x1AC JUMPI DUP1 PUSH4 0x17CAF6F1 EQ PUSH2 0x202 JUMPI DUP1 PUSH4 0x41275358 EQ PUSH2 0x20A JUMPI DUP1 PUSH4 0x441A3E70 EQ PUSH2 0x22E JUMPI JUMPDEST PUSH1 0x0 DUP1 REVERT JUMPDEST PUSH2 0x17B PUSH2 0x4A1 JUMP JUMPDEST PUSH1 0x40 DUP1 MLOAD SWAP2 DUP3 MSTORE MLOAD SWAP1 DUP2 SWAP1 SUB PUSH1 0x20 ADD SWAP1 RETURN JUMPDEST PUSH2 0x1AA PUSH1 0x4 DUP1 CALLDATASIZE SUB PUSH1 0x20 DUP2 LT ISZERO PUSH2 0x1A3 JUMPI PUSH1 0x0 DUP1 REVERT JUMPDEST POP CALLDATALOAD PUSH2 0x4A7 JUMP JUMPDEST STOP JUMPDEST PUSH2 0x1C9 PUSH1 0x4 DUP1 CALLDATASIZE SUB PUSH1 0x20 DUP2 LT ISZERO PUSH2 0x1C2 JUMPI PUSH1 0x0 DUP1 REVERT JUMPDEST POP CALLDATALOAD PUSH2 0x54F JUMP JUMPDEST PUSH1 0x40 DUP1 MLOAD PUSH1 0x1 PUSH1 0x1 PUSH1 0xA0 SHL SUB SWAP1 SWAP7 AND DUP7 MSTORE PUSH1 0x20 DUP7 ADD SWAP5 SWAP1 SWAP5 MSTORE DUP5 DUP5 ADD SWAP3 SWAP1 SWAP3 MSTORE PUSH1 0x60 DUP5 ADD MSTORE PUSH2 0xFFFF AND PUSH1 0x80 DUP4 ADD MSTORE MLOAD SWAP1 DUP2 SWAP1 SUB PUSH1 0xA0 ADD SWAP1 RETURN JUMPDEST PUSH2 0x17B PUSH2 0x59B JUMP JUMPDEST PUSH2 0x212 PUSH2 0x5A1 JUMP JUMPDEST PUSH1 0x40 DUP1 MLOAD PUSH1 0x1 PUSH1 0x1 PUSH1 0xA0 SHL SUB SWAP1 SWAP3 AND DUP3 MSTORE MLOAD SWAP1 DUP2 SWAP1 SUB PUSH1 0x20 ADD SWAP1 RETURN JUMPDEST PUSH2 0x1AA PUSH1 0x4 DUP1 CALLDATASIZE SUB PUSH1 0x40 DUP2 LT ISZERO PUSH2 0x244 JUMPI PUSH1 0x0 DUP1 REVERT JUMPDEST POP DUP1 CALLDATALOAD SWAP1 PUSH1 0x20 ADD CALLDATALOAD PUSH2 0x5B0 JUMP JUMPDEST PUSH2 0x17B PUSH2 0x761 JUMP JUMPDEST PUSH2 0x1AA PUSH1 0x4 DUP1 CALLDATASIZE SUB PUSH1 0x20 DUP2 LT ISZERO PUSH2 0x26F JUMPI PUSH1 0x0 DUP1 REVERT JUMPDEST POP CALLDATALOAD PUSH2 0x767 JUMP JUMPDEST PUSH2 0x1AA PUSH1 0x4 DUP1 CALLDATASIZE SUB PUSH1 0x20 DUP2 LT ISZERO PUSH2 0x28C JUMPI PUSH1 0x0 DUP1 REVERT JUMPDEST POP CALLDATALOAD PUSH2 0x99D JUMP JUMPDEST PUSH2 0x1AA PUSH2 0xA8B JUMP JUMPDEST PUSH2 0x1AA PUSH2 0xAAE JUMP JUMPDEST PUSH2 0x1AA PUSH1 0x4 DUP1 CALLDATASIZE SUB PUSH1 0x80 DUP2 LT ISZERO PUSH2 0x2B9 JUMPI PUSH1 0x0 DUP1 REVERT JUMPDEST POP DUP1 CALLDATALOAD SWAP1 PUSH1 0x1 PUSH1 0x1 PUSH1 0xA0 SHL SUB PUSH1 0x20 DUP3 ADD CALLDATALOAD AND SWAP1 PUSH2 0xFFFF PUSH1 0x40 DUP3 ADD CALLDATALOAD AND SWAP1 PUSH1 0x60 ADD CALLDATALOAD ISZERO ISZERO PUSH2 0xB5A JUMP JUMPDEST PUSH2 0x1AA PUSH1 0x4 DUP1 CALLDATASIZE SUB PUSH1 0x20 DUP2 LT ISZERO PUSH2 0x2F7 JUMPI PUSH1 0x0 DUP1 REVERT JUMPDEST POP CALLDATALOAD PUSH1 0x1 PUSH1 0x1 PUSH1 0xA0 SHL SUB AND PUSH2 0xDEC JUMP JUMPDEST PUSH2 0x17B PUSH2 0xE92 JUMP JUMPDEST PUSH2 0x1AA PUSH1 0x4 DUP1 CALLDATASIZE SUB PUSH1 0x20 DUP2 LT ISZERO PUSH2 0x325 JUMPI PUSH1 0x0 DUP1 REVERT JUMPDEST POP CALLDATALOAD PUSH1 0x1 PUSH1 0x1 PUSH1 0xA0 SHL SUB AND PUSH2 0xE97 JUMP JUMPDEST PUSH2 0x212 PUSH2 0xF2E JUMP JUMPDEST PUSH2 0x17B PUSH1 0x4 DUP1 CALLDATASIZE SUB PUSH1 0x40 DUP2 LT ISZERO PUSH2 0x353 JUMPI PUSH1 0x0 DUP1 REVERT JUMPDEST POP DUP1 CALLDATALOAD SWAP1 PUSH1 0x20 ADD CALLDATALOAD PUSH2 0xF3D JUMP JUMPDEST PUSH2 0x38C PUSH1 0x4 DUP1 CALLDATASIZE SUB PUSH1 0x40 DUP2 LT ISZERO PUSH2 0x376 JUMPI PUSH1 0x0 DUP1 REVERT JUMPDEST POP DUP1 CALLDATALOAD SWAP1 PUSH1 0x20 ADD CALLDATALOAD PUSH1 0x1 PUSH1 0x1 PUSH1 0xA0 SHL SUB AND PUSH2 0xF57 JUMP JUMPDEST PUSH1 0x40 DUP1 MLOAD SWAP3 DUP4 MSTORE PUSH1 0x20 DUP4 ADD SWAP2 SWAP1 SWAP2 MSTORE DUP1 MLOAD SWAP2 DUP3 SWAP1 SUB ADD SWAP1 RETURN JUMPDEST PUSH2 0x17B PUSH2 0xF7B JUMP JUMPDEST PUSH2 0x212 PUSH2 0xF81 JUMP JUMPDEST PUSH2 0x3DB PUSH1 0x4 DUP1 CALLDATASIZE SUB PUSH1 0x20 DUP2 LT ISZERO PUSH2 0x3CB JUMPI PUSH1 0x0 DUP1 REVERT JUMPDEST POP CALLDATALOAD PUSH1 0x1 PUSH1 0x1 PUSH1 0xA0 SHL SUB AND PUSH2 0xF90 JUMP JUMPDEST PUSH1 0x40 DUP1 MLOAD SWAP2 ISZERO ISZERO DUP3 MSTORE MLOAD SWAP1 DUP2 SWAP1 SUB PUSH1 0x20 ADD SWAP1 RETURN JUMPDEST PUSH2 0x212 PUSH2 0xFA5 JUMP JUMPDEST PUSH2 0x1AA PUSH1 0x4 DUP1 CALLDATASIZE SUB PUSH1 0x80 DUP2 LT ISZERO PUSH2 0x40D JUMPI PUSH1 0x0 DUP1 REVERT JUMPDEST POP DUP1 CALLDATALOAD SWAP1 PUSH1 0x20 DUP2 ADD CALLDATALOAD SWAP1 PUSH2 0xFFFF PUSH1 0x40 DUP3 ADD CALLDATALOAD AND SWAP1 PUSH1 0x60 ADD CALLDATALOAD ISZERO ISZERO PUSH2 0xFB4 JUMP JUMPDEST PUSH2 0x1AA PUSH1 0x4 DUP1 CALLDATASIZE SUB PUSH1 0x40 DUP2 LT ISZERO PUSH2 0x442 JUMPI PUSH1 0x0 DUP1 REVERT JUMPDEST POP DUP1 CALLDATALOAD SWAP1 PUSH1 0x20 ADD CALLDATALOAD PUSH2 0x110E JUMP JUMPDEST PUSH2 0x1AA PUSH1 0x4 DUP1 CALLDATASIZE SUB PUSH1 0x20 DUP2 LT ISZERO PUSH2 0x465 JUMPI PUSH1 0x0 DUP1 REVERT JUMPDEST POP CALLDATALOAD PUSH1 0x1 PUSH1 0x1 PUSH1 0xA0 SHL SUB AND PUSH2 0x12D8 JUMP JUMPDEST PUSH2 0x17B PUSH1 0x4 DUP1 CALLDATASIZE SUB PUSH1 0x40 DUP2 LT ISZERO PUSH2 0x48B JUMPI PUSH1 0x0 DUP1 REVERT JUMPDEST POP DUP1 CALLDATALOAD SWAP1 PUSH1 0x20 ADD CALLDATALOAD PUSH1 0x1 PUSH1 0x1 PUSH1 0xA0 SHL SUB AND PUSH2 0x13DA JUMP JUMPDEST PUSH1 0x6 SLOAD SWAP1 JUMP JUMPDEST PUSH2 0x4AF PUSH2 0x1538 JUMP JUMPDEST PUSH1 0x1 PUSH1 0x1 PUSH1 0xA0 SHL SUB AND PUSH2 0x4C0 PUSH2 0xF2E JUMP JUMPDEST PUSH1 0x1 PUSH1 0x1 PUSH1 0xA0 SHL SUB AND EQ PUSH2 0x509 JUMPI PUSH1 0x40 DUP1 MLOAD PUSH3 0x461BCD PUSH1 0xE5 SHL DUP2 MSTORE PUSH1 0x20 PUSH1 0x4 DUP3 ADD DUP2 SWAP1 MSTORE PUSH1 0x24 DUP3 ADD MSTORE PUSH1 0x0 DUP1 MLOAD PUSH1 0x20 PUSH2 0x1D10 DUP4 CODECOPY DUP2 MLOAD SWAP2 MSTORE PUSH1 0x44 DUP3 ADD MSTORE SWAP1 MLOAD SWAP1 DUP2 SWAP1 SUB PUSH1 0x64 ADD SWAP1 REVERT JUMPDEST PUSH2 0x511 PUSH2 0xA8B JUMP JUMPDEST PUSH1 0x4 DUP2 SWAP1 SSTORE PUSH1 0x40 DUP1 MLOAD DUP3 DUP2 MSTORE SWAP1 MLOAD CALLER SWAP2 PUSH32 0xE2492E003BBE8AFA53088B406F0C1CB5D9E280370FC72A74CF116FFD343C4053 SWAP2 SWAP1 DUP2 SWAP1 SUB PUSH1 0x20 ADD SWAP1 LOG2 POP JUMP JUMPDEST PUSH1 0x6 DUP2 DUP2 SLOAD DUP2 LT PUSH2 0x55C JUMPI INVALID JUMPDEST PUSH1 0x0 SWAP2 DUP3 MSTORE PUSH1 0x20 SWAP1 SWAP2 KECCAK256 PUSH1 0x5 SWAP1 SWAP2 MUL ADD DUP1 SLOAD PUSH1 0x1 DUP3 ADD SLOAD PUSH1 0x2 DUP4 ADD SLOAD PUSH1 0x3 DUP5 ADD SLOAD PUSH1 0x4 SWAP1 SWAP5 ADD SLOAD PUSH1 0x1 PUSH1 0x1 PUSH1 0xA0 SHL SUB SWAP1 SWAP4 AND SWAP5 POP SWAP1 SWAP3 SWAP1 SWAP2 PUSH2 0xFFFF AND DUP6 JUMP JUMPDEST PUSH1 0x8 SLOAD DUP2 JUMP JUMPDEST PUSH1 0x5 SLOAD PUSH1 0x1 PUSH1 0x1 PUSH1 0xA0 SHL SUB AND DUP2 JUMP JUMPDEST PUSH1 0x2 PUSH1 0x1 SLOAD EQ ISZERO PUSH2 0x5F6 JUMPI PUSH1 0x40 DUP1 MLOAD PUSH3 0x461BCD PUSH1 0xE5 SHL DUP2 MSTORE PUSH1 0x20 PUSH1 0x4 DUP3 ADD MSTORE PUSH1 0x1F PUSH1 0x24 DUP3 ADD MSTORE PUSH1 0x0 DUP1 MLOAD PUSH1 0x20 PUSH2 0x1C0F DUP4 CODECOPY DUP2 MLOAD SWAP2 MSTORE PUSH1 0x44 DUP3 ADD MSTORE SWAP1 MLOAD SWAP1 DUP2 SWAP1 SUB PUSH1 0x64 ADD SWAP1 REVERT JUMPDEST PUSH1 0x2 PUSH1 0x1 DUP2 SWAP1 SSTORE POP PUSH1 0x0 PUSH1 0x6 DUP4 DUP2 SLOAD DUP2 LT PUSH2 0x60D JUMPI INVALID JUMPDEST PUSH1 0x0 SWAP2 DUP3 MSTORE PUSH1 0x20 DUP1 DUP4 KECCAK256 DUP7 DUP5 MSTORE PUSH1 0x7 DUP3 MSTORE PUSH1 0x40 DUP1 DUP6 KECCAK256 CALLER DUP7 MSTORE SWAP1 SWAP3 MSTORE SWAP3 KECCAK256 DUP1 SLOAD PUSH1 0x5 SWAP1 SWAP3 MUL SWAP1 SWAP3 ADD SWAP3 POP DUP4 GT ISZERO PUSH2 0x680 JUMPI PUSH1 0x40 DUP1 MLOAD PUSH3 0x461BCD PUSH1 0xE5 SHL DUP2 MSTORE PUSH1 0x20 PUSH1 0x4 DUP3 ADD MSTORE PUSH1 0x12 PUSH1 0x24 DUP3 ADD MSTORE PUSH18 0x1DDA5D1A191C985DCE881B9BDD0819DBDBD9 PUSH1 0x72 SHL PUSH1 0x44 DUP3 ADD MSTORE SWAP1 MLOAD SWAP1 DUP2 SWAP1 SUB PUSH1 0x64 ADD SWAP1 REVERT JUMPDEST PUSH2 0x689 DUP5 PUSH2 0x767 JUMP JUMPDEST PUSH1 0x0 PUSH2 0x6C3 DUP3 PUSH1 0x1 ADD SLOAD PUSH2 0x6BD PUSH5 0xE8D4A51000 PUSH2 0x6B7 DUP8 PUSH1 0x3 ADD SLOAD DUP8 PUSH1 0x0 ADD SLOAD PUSH2 0x153C SWAP1 SWAP2 SWAP1 PUSH4 0xFFFFFFFF AND JUMP JUMPDEST SWAP1 PUSH2 0x1595 JUMP JUMPDEST SWAP1 PUSH2 0x15FC JUMP JUMPDEST SWAP1 POP DUP1 ISZERO PUSH2 0x6D5 JUMPI PUSH2 0x6D5 CALLER DUP3 PUSH2 0x1659 JUMP JUMPDEST DUP4 ISZERO PUSH2 0x6FF JUMPI DUP2 SLOAD PUSH2 0x6E7 SWAP1 DUP6 PUSH2 0x15FC JUMP JUMPDEST DUP3 SSTORE DUP3 SLOAD PUSH2 0x6FF SWAP1 PUSH1 0x1 PUSH1 0x1 PUSH1 0xA0 SHL SUB AND CALLER DUP7 PUSH2 0x1842 JUMP JUMPDEST PUSH1 0x3 DUP4 ADD SLOAD DUP3 SLOAD PUSH2 0x71A SWAP2 PUSH5 0xE8D4A51000 SWAP2 PUSH2 0x6B7 SWAP2 PUSH2 0x153C JUMP JUMPDEST PUSH1 0x1 DUP4 ADD SSTORE PUSH1 0x40 DUP1 MLOAD DUP6 DUP2 MSTORE SWAP1 MLOAD DUP7 SWAP2 CALLER SWAP2 PUSH32 0xF279E6A1F5E320CCA91135676D9CB6E44CA8A08C0B88342BCDB1144F6511B568 SWAP2 DUP2 SWAP1 SUB PUSH1 0x20 ADD SWAP1 LOG3 POP POP PUSH1 0x1 DUP1 SSTORE POP POP POP JUMP JUMPDEST PUSH1 0x9 SLOAD DUP2 JUMP JUMPDEST PUSH1 0x0 PUSH1 0x6 DUP3 DUP2 SLOAD DUP2 LT PUSH2 0x776 JUMPI INVALID JUMPDEST SWAP1 PUSH1 0x0 MSTORE PUSH1 0x20 PUSH1 0x0 KECCAK256 SWAP1 PUSH1 0x5 MUL ADD SWAP1 POP DUP1 PUSH1 0x2 ADD SLOAD NUMBER GT PUSH2 0x797 JUMPI POP PUSH2 0x99A JUMP JUMPDEST DUP1 SLOAD PUSH1 0x40 DUP1 MLOAD PUSH4 0x70A08231 PUSH1 0xE0 SHL DUP2 MSTORE ADDRESS PUSH1 0x4 DUP3 ADD MSTORE SWAP1 MLOAD PUSH1 0x0 SWAP3 PUSH1 0x1 PUSH1 0x1 PUSH1 0xA0 SHL SUB AND SWAP2 PUSH4 0x70A08231 SWAP2 PUSH1 0x24 DUP1 DUP4 ADD SWAP3 PUSH1 0x20 SWAP3 SWAP2 SWAP1 DUP3 SWAP1 SUB ADD DUP2 DUP7 DUP1 EXTCODESIZE ISZERO DUP1 ISZERO PUSH2 0x7E1 JUMPI PUSH1 0x0 DUP1 REVERT JUMPDEST POP GAS STATICCALL ISZERO DUP1 ISZERO PUSH2 0x7F5 JUMPI RETURNDATASIZE PUSH1 0x0 DUP1 RETURNDATACOPY RETURNDATASIZE PUSH1 0x0 REVERT JUMPDEST POP POP POP POP PUSH1 0x40 MLOAD RETURNDATASIZE PUSH1 0x20 DUP2 LT ISZERO PUSH2 0x80B JUMPI PUSH1 0x0 DUP1 REVERT JUMPDEST POP MLOAD SWAP1 POP DUP1 ISZERO DUP1 PUSH2 0x81E JUMPI POP PUSH1 0x1 DUP3 ADD SLOAD ISZERO JUMPDEST ISZERO PUSH2 0x830 JUMPI POP NUMBER PUSH1 0x2 SWAP1 SWAP2 ADD SSTORE PUSH2 0x99A JUMP JUMPDEST PUSH1 0x0 PUSH2 0x840 DUP4 PUSH1 0x2 ADD SLOAD NUMBER PUSH2 0xF3D JUMP JUMPDEST SWAP1 POP PUSH1 0x0 PUSH2 0x86D PUSH1 0x8 SLOAD PUSH2 0x6B7 DUP7 PUSH1 0x1 ADD SLOAD PUSH2 0x867 PUSH1 0x4 SLOAD DUP8 PUSH2 0x153C SWAP1 SWAP2 SWAP1 PUSH4 0xFFFFFFFF AND JUMP JUMPDEST SWAP1 PUSH2 0x153C JUMP JUMPDEST PUSH1 0x2 SLOAD PUSH1 0x3 SLOAD SWAP2 SWAP3 POP PUSH1 0x1 PUSH1 0x1 PUSH1 0xA0 SHL SUB SWAP1 DUP2 AND SWAP2 PUSH4 0x40C10F19 SWAP2 AND PUSH2 0x894 DUP5 PUSH1 0xA PUSH2 0x1595 JUMP JUMPDEST PUSH1 0x40 MLOAD DUP4 PUSH4 0xFFFFFFFF AND PUSH1 0xE0 SHL DUP2 MSTORE PUSH1 0x4 ADD DUP1 DUP4 PUSH1 0x1 PUSH1 0x1 PUSH1 0xA0 SHL SUB AND DUP2 MSTORE PUSH1 0x20 ADD DUP3 DUP2 MSTORE PUSH1 0x20 ADD SWAP3 POP POP POP PUSH1 0x0 PUSH1 0x40 MLOAD DUP1 DUP4 SUB DUP2 PUSH1 0x0 DUP8 DUP1 EXTCODESIZE ISZERO DUP1 ISZERO PUSH2 0x8DA JUMPI PUSH1 0x0 DUP1 REVERT JUMPDEST POP GAS CALL ISZERO DUP1 ISZERO PUSH2 0x8EE JUMPI RETURNDATASIZE PUSH1 0x0 DUP1 RETURNDATACOPY RETURNDATASIZE PUSH1 0x0 REVERT JUMPDEST POP POP PUSH1 0x2 SLOAD PUSH1 0x40 DUP1 MLOAD PUSH4 0x40C10F19 PUSH1 0xE0 SHL DUP2 MSTORE ADDRESS PUSH1 0x4 DUP3 ADD MSTORE PUSH1 0x24 DUP2 ADD DUP7 SWAP1 MSTORE SWAP1 MLOAD PUSH1 0x1 PUSH1 0x1 PUSH1 0xA0 SHL SUB SWAP1 SWAP3 AND SWAP4 POP PUSH4 0x40C10F19 SWAP3 POP PUSH1 0x44 DUP1 DUP3 ADD SWAP3 PUSH1 0x0 SWAP3 SWAP1 SWAP2 SWAP1 DUP3 SWAP1 SUB ADD DUP2 DUP4 DUP8 DUP1 EXTCODESIZE ISZERO DUP1 ISZERO PUSH2 0x945 JUMPI PUSH1 0x0 DUP1 REVERT JUMPDEST POP GAS CALL ISZERO DUP1 ISZERO PUSH2 0x959 JUMPI RETURNDATASIZE PUSH1 0x0 DUP1 RETURNDATACOPY RETURNDATASIZE PUSH1 0x0 REVERT JUMPDEST POP POP POP POP PUSH2 0x987 PUSH2 0x97C DUP5 PUSH2 0x6B7 PUSH5 0xE8D4A51000 DUP6 PUSH2 0x153C SWAP1 SWAP2 SWAP1 PUSH4 0xFFFFFFFF AND JUMP JUMPDEST PUSH1 0x3 DUP7 ADD SLOAD SWAP1 PUSH2 0x1899 JUMP JUMPDEST PUSH1 0x3 DUP6 ADD SSTORE POP POP NUMBER PUSH1 0x2 SWAP1 SWAP3 ADD SWAP2 SWAP1 SWAP2 SSTORE POP JUMPDEST POP JUMP JUMPDEST PUSH1 0x2 PUSH1 0x1 SLOAD EQ ISZERO PUSH2 0x9E3 JUMPI PUSH1 0x40 DUP1 MLOAD PUSH3 0x461BCD PUSH1 0xE5 SHL DUP2 MSTORE PUSH1 0x20 PUSH1 0x4 DUP3 ADD MSTORE PUSH1 0x1F PUSH1 0x24 DUP3 ADD MSTORE PUSH1 0x0 DUP1 MLOAD PUSH1 0x20 PUSH2 0x1C0F DUP4 CODECOPY DUP2 MLOAD SWAP2 MSTORE PUSH1 0x44 DUP3 ADD MSTORE SWAP1 MLOAD SWAP1 DUP2 SWAP1 SUB PUSH1 0x64 ADD SWAP1 REVERT JUMPDEST PUSH1 0x2 PUSH1 0x1 DUP2 SWAP1 SSTORE POP PUSH1 0x0 PUSH1 0x6 DUP3 DUP2 SLOAD DUP2 LT PUSH2 0x9FA JUMPI INVALID JUMPDEST PUSH1 0x0 SWAP2 DUP3 MSTORE PUSH1 0x20 DUP1 DUP4 KECCAK256 DUP6 DUP5 MSTORE PUSH1 0x7 DUP3 MSTORE PUSH1 0x40 DUP1 DUP6 KECCAK256 CALLER DUP1 DUP8 MSTORE SWAP4 MSTORE DUP5 KECCAK256 DUP1 SLOAD DUP6 DUP3 SSTORE PUSH1 0x1 DUP3 ADD SWAP6 SWAP1 SWAP6 SSTORE PUSH1 0x5 SWAP1 SWAP4 MUL ADD DUP1 SLOAD SWAP1 SWAP5 POP SWAP2 SWAP3 SWAP2 PUSH2 0xA4A SWAP2 PUSH1 0x1 PUSH1 0x1 PUSH1 0xA0 SHL SUB SWAP2 SWAP1 SWAP2 AND SWAP1 DUP4 PUSH2 0x1842 JUMP JUMPDEST PUSH1 0x40 DUP1 MLOAD DUP3 DUP2 MSTORE SWAP1 MLOAD DUP6 SWAP2 CALLER SWAP2 PUSH32 0xBB757047C2B5F3974FE26B7C10F732E7BCE710B0952A71082702781E62AE0595 SWAP2 DUP2 SWAP1 SUB PUSH1 0x20 ADD SWAP1 LOG3 POP POP PUSH1 0x1 DUP1 SSTORE POP POP JUMP JUMPDEST PUSH1 0x6 SLOAD PUSH1 0x0 JUMPDEST DUP2 DUP2 LT ISZERO PUSH2 0xAAA JUMPI PUSH2 0xAA2 DUP2 PUSH2 0x767 JUMP JUMPDEST PUSH1 0x1 ADD PUSH2 0xA91 JUMP JUMPDEST POP POP JUMP JUMPDEST PUSH2 0xAB6 PUSH2 0x1538 JUMP JUMPDEST PUSH1 0x1 PUSH1 0x1 PUSH1 0xA0 SHL SUB AND PUSH2 0xAC7 PUSH2 0xF2E JUMP JUMPDEST PUSH1 0x1 PUSH1 0x1 PUSH1 0xA0 SHL SUB AND EQ PUSH2 0xB10 JUMPI PUSH1 0x40 DUP1 MLOAD PUSH3 0x461BCD PUSH1 0xE5 SHL DUP2 MSTORE PUSH1 0x20 PUSH1 0x4 DUP3 ADD DUP2 SWAP1 MSTORE PUSH1 0x24 DUP3 ADD MSTORE PUSH1 0x0 DUP1 MLOAD PUSH1 0x20 PUSH2 0x1D10 DUP4 CODECOPY DUP2 MLOAD SWAP2 MSTORE PUSH1 0x44 DUP3 ADD MSTORE SWAP1 MLOAD SWAP1 DUP2 SWAP1 SUB PUSH1 0x64 ADD SWAP1 REVERT JUMPDEST PUSH1 0x0 DUP1 SLOAD PUSH1 0x40 MLOAD PUSH1 0x1 PUSH1 0x1 PUSH1 0xA0 SHL SUB SWAP1 SWAP2 AND SWAP1 PUSH32 0x8BE0079C531659141344CD1FD0A4F28419497F9722A3DAAFE3B4186F6B6457E0 SWAP1 DUP4 SWAP1 LOG3 PUSH1 0x0 DUP1 SLOAD PUSH1 0x1 PUSH1 0x1 PUSH1 0xA0 SHL SUB NOT AND SWAP1 SSTORE JUMP JUMPDEST PUSH2 0xB62 PUSH2 0x1538 JUMP JUMPDEST PUSH1 0x1 PUSH1 0x1 PUSH1 0xA0 SHL SUB AND PUSH2 0xB73 PUSH2 0xF2E JUMP JUMPDEST PUSH1 0x1 PUSH1 0x1 PUSH1 0xA0 SHL SUB AND EQ PUSH2 0xBBC JUMPI PUSH1 0x40 DUP1 MLOAD PUSH3 0x461BCD PUSH1 0xE5 SHL DUP2 MSTORE PUSH1 0x20 PUSH1 0x4 DUP3 ADD DUP2 SWAP1 MSTORE PUSH1 0x24 DUP3 ADD MSTORE PUSH1 0x0 DUP1 MLOAD PUSH1 0x20 PUSH2 0x1D10 DUP4 CODECOPY DUP2 MLOAD SWAP2 MSTORE PUSH1 0x44 DUP3 ADD MSTORE SWAP1 MLOAD SWAP1 DUP2 SWAP1 SUB PUSH1 0x64 ADD SWAP1 REVERT JUMPDEST PUSH1 0x1 PUSH1 0x1 PUSH1 0xA0 SHL SUB DUP4 AND PUSH1 0x0 SWAP1 DUP2 MSTORE PUSH1 0xA PUSH1 0x20 MSTORE PUSH1 0x40 SWAP1 KECCAK256 SLOAD DUP4 SWAP1 PUSH1 0xFF AND ISZERO PUSH2 0xC28 JUMPI PUSH1 0x40 DUP1 MLOAD PUSH3 0x461BCD PUSH1 0xE5 SHL DUP2 MSTORE PUSH1 0x20 PUSH1 0x4 DUP3 ADD MSTORE PUSH1 0x19 PUSH1 0x24 DUP3 ADD MSTORE PUSH25 0x1B9BDB911D5C1B1A58D85D19590E88191D5C1B1A58D85D1959 PUSH1 0x3A SHL PUSH1 0x44 DUP3 ADD MSTORE SWAP1 MLOAD SWAP1 DUP2 SWAP1 SUB PUSH1 0x64 ADD SWAP1 REVERT JUMPDEST PUSH2 0x2710 DUP4 PUSH2 0xFFFF AND GT ISZERO PUSH2 0xC6D JUMPI PUSH1 0x40 MLOAD PUSH3 0x461BCD PUSH1 0xE5 SHL DUP2 MSTORE PUSH1 0x4 ADD DUP1 DUP1 PUSH1 0x20 ADD DUP3 DUP2 SUB DUP3 MSTORE PUSH1 0x25 DUP2 MSTORE PUSH1 0x20 ADD DUP1 PUSH2 0x1C2F PUSH1 0x25 SWAP2 CODECOPY PUSH1 0x40 ADD SWAP2 POP POP PUSH1 0x40 MLOAD DUP1 SWAP2 SUB SWAP1 REVERT JUMPDEST DUP2 ISZERO PUSH2 0xC7B JUMPI PUSH2 0xC7B PUSH2 0xA8B JUMP JUMPDEST PUSH1 0x0 PUSH1 0x9 SLOAD NUMBER GT PUSH2 0xC8E JUMPI PUSH1 0x9 SLOAD PUSH2 0xC90 JUMP JUMPDEST NUMBER JUMPDEST PUSH1 0x8 SLOAD SWAP1 SWAP2 POP PUSH2 0xCA0 SWAP1 DUP8 PUSH2 0x1899 JUMP JUMPDEST PUSH1 0x8 SSTORE PUSH1 0x1 PUSH1 0x1 PUSH1 0xA0 SHL SUB SWAP5 DUP6 AND PUSH1 0x0 DUP2 DUP2 MSTORE PUSH1 0xA PUSH1 0x20 SWAP1 DUP2 MSTORE PUSH1 0x40 DUP1 DUP4 KECCAK256 DUP1 SLOAD PUSH1 0x1 PUSH1 0xFF NOT SWAP1 SWAP2 AND DUP2 OR SWAP1 SWAP2 SSTORE DUP2 MLOAD PUSH1 0xA0 DUP2 ADD DUP4 MSTORE SWAP5 DUP6 MSTORE SWAP2 DUP5 ADD SWAP10 DUP11 MSTORE DUP4 ADD SWAP4 DUP5 MSTORE PUSH1 0x60 DUP4 ADD DUP3 DUP2 MSTORE PUSH2 0xFFFF SWAP8 DUP9 AND PUSH1 0x80 DUP6 ADD SWAP1 DUP2 MSTORE PUSH1 0x6 DUP1 SLOAD SWAP4 DUP5 ADD DUP2 SSTORE SWAP1 SWAP4 MSTORE SWAP3 MLOAD PUSH32 0xF652222313E28459528D920B65115C16C04F3EFC82AAEDC97BE59F3F377C0D3F PUSH1 0x5 SWAP1 SWAP3 MUL SWAP2 DUP3 ADD DUP1 SLOAD PUSH1 0x1 PUSH1 0x1 PUSH1 0xA0 SHL SUB NOT AND SWAP2 SWAP1 SWAP10 AND OR SWAP1 SWAP8 SSTORE SWAP7 MLOAD PUSH32 0xF652222313E28459528D920B65115C16C04F3EFC82AAEDC97BE59F3F377C0D40 DUP8 ADD SSTORE SWAP1 MLOAD PUSH32 0xF652222313E28459528D920B65115C16C04F3EFC82AAEDC97BE59F3F377C0D41 DUP7 ADD SSTORE MLOAD PUSH32 0xF652222313E28459528D920B65115C16C04F3EFC82AAEDC97BE59F3F377C0D42 DUP6 ADD SSTORE POP POP SWAP2 MLOAD PUSH32 0xF652222313E28459528D920B65115C16C04F3EFC82AAEDC97BE59F3F377C0D43 SWAP1 SWAP2 ADD DUP1 SLOAD PUSH2 0xFFFF NOT AND SWAP2 SWAP1 SWAP3 AND OR SWAP1 SSTORE JUMP JUMPDEST PUSH1 0x5 SLOAD PUSH1 0x1 PUSH1 0x1 PUSH1 0xA0 SHL SUB AND CALLER EQ PUSH2 0xE46 JUMPI PUSH1 0x40 DUP1 MLOAD PUSH3 0x461BCD PUSH1 0xE5 SHL DUP2 MSTORE PUSH1 0x20 PUSH1 0x4 DUP3 ADD MSTORE PUSH1 0x18 PUSH1 0x24 DUP3 ADD MSTORE PUSH24 0x39B2BA2332B2A0B2323932B9B99D102327A92124A22222A7 PUSH1 0x41 SHL PUSH1 0x44 DUP3 ADD MSTORE SWAP1 MLOAD SWAP1 DUP2 SWAP1 SUB PUSH1 0x64 ADD SWAP1 REVERT JUMPDEST PUSH1 0x5 DUP1 SLOAD PUSH1 0x1 PUSH1 0x1 PUSH1 0xA0 SHL SUB NOT AND PUSH1 0x1 PUSH1 0x1 PUSH1 0xA0 SHL SUB DUP4 AND SWAP1 DUP2 OR SWAP1 SWAP2 SSTORE PUSH1 0x40 MLOAD CALLER SWAP1 PUSH32 0xD44190ACF9D04BDB5D3A1AAFFF7E6DEE8B40B93DFB8C5D3F0EEA4B9F4539C3F7 SWAP1 PUSH1 0x0 SWAP1 LOG3 POP JUMP JUMPDEST PUSH1 0x1 DUP2 JUMP JUMPDEST PUSH1 0x3 SLOAD PUSH1 0x1 PUSH1 0x1 PUSH1 0xA0 SHL SUB AND CALLER EQ PUSH2 0xEE2 JUMPI PUSH1 0x40 DUP1 MLOAD PUSH3 0x461BCD PUSH1 0xE5 SHL DUP2 MSTORE PUSH1 0x20 PUSH1 0x4 DUP3 ADD MSTORE PUSH1 0x9 PUSH1 0x24 DUP3 ADD MSTORE PUSH9 0x6465763A207775743F PUSH1 0xB8 SHL PUSH1 0x44 DUP3 ADD MSTORE SWAP1 MLOAD SWAP1 DUP2 SWAP1 SUB PUSH1 0x64 ADD SWAP1 REVERT JUMPDEST PUSH1 0x3 DUP1 SLOAD PUSH1 0x1 PUSH1 0x1 PUSH1 0xA0 SHL SUB NOT AND PUSH1 0x1 PUSH1 0x1 PUSH1 0xA0 SHL SUB DUP4 AND SWAP1 DUP2 OR SWAP1 SWAP2 SSTORE PUSH1 0x40 MLOAD CALLER SWAP1 PUSH32 0x618C54559E94F1499A808AAD71EE8729F8E74E8C48E979616328CE493A1A52E7 SWAP1 PUSH1 0x0 SWAP1 LOG3 POP JUMP JUMPDEST PUSH1 0x0 SLOAD PUSH1 0x1 PUSH1 0x1 PUSH1 0xA0 SHL SUB AND SWAP1 JUMP JUMPDEST PUSH1 0x0 PUSH2 0xF4E PUSH1 0x1 PUSH2 0x867 DUP5 DUP7 PUSH2 0x15FC JUMP JUMPDEST SWAP1 POP JUMPDEST SWAP3 SWAP2 POP POP JUMP JUMPDEST PUSH1 0x7 PUSH1 0x20 SWAP1 DUP2 MSTORE PUSH1 0x0 SWAP3 DUP4 MSTORE PUSH1 0x40 DUP1 DUP5 KECCAK256 SWAP1 SWAP2 MSTORE SWAP1 DUP3 MSTORE SWAP1 KECCAK256 DUP1 SLOAD PUSH1 0x1 SWAP1 SWAP2 ADD SLOAD DUP3 JUMP JUMPDEST PUSH1 0x4 SLOAD DUP2 JUMP JUMPDEST PUSH1 0x2 SLOAD PUSH1 0x1 PUSH1 0x1 PUSH1 0xA0 SHL SUB AND DUP2 JUMP JUMPDEST PUSH1 0xA PUSH1 0x20 MSTORE PUSH1 0x0 SWAP1 DUP2 MSTORE PUSH1 0x40 SWAP1 KECCAK256 SLOAD PUSH1 0xFF AND DUP2 JUMP JUMPDEST PUSH1 0x3 SLOAD PUSH1 0x1 PUSH1 0x1 PUSH1 0xA0 SHL SUB AND DUP2 JUMP JUMPDEST PUSH2 0xFBC PUSH2 0x1538 JUMP JUMPDEST PUSH1 0x1 PUSH1 0x1 PUSH1 0xA0 SHL SUB AND PUSH2 0xFCD PUSH2 0xF2E JUMP JUMPDEST PUSH1 0x1 PUSH1 0x1 PUSH1 0xA0 SHL SUB AND EQ PUSH2 0x1016 JUMPI PUSH1 0x40 DUP1 MLOAD PUSH3 0x461BCD PUSH1 0xE5 SHL DUP2 MSTORE PUSH1 0x20 PUSH1 0x4 DUP3 ADD DUP2 SWAP1 MSTORE PUSH1 0x24 DUP3 ADD MSTORE PUSH1 0x0 DUP1 MLOAD PUSH1 0x20 PUSH2 0x1D10 DUP4 CODECOPY DUP2 MLOAD SWAP2 MSTORE PUSH1 0x44 DUP3 ADD MSTORE SWAP1 MLOAD SWAP1 DUP2 SWAP1 SUB PUSH1 0x64 ADD SWAP1 REVERT JUMPDEST PUSH2 0x2710 DUP3 PUSH2 0xFFFF AND GT ISZERO PUSH2 0x105B JUMPI PUSH1 0x40 MLOAD PUSH3 0x461BCD PUSH1 0xE5 SHL DUP2 MSTORE PUSH1 0x4 ADD DUP1 DUP1 PUSH1 0x20 ADD DUP3 DUP2 SUB DUP3 MSTORE PUSH1 0x25 DUP2 MSTORE PUSH1 0x20 ADD DUP1 PUSH2 0x1CEB PUSH1 0x25 SWAP2 CODECOPY PUSH1 0x40 ADD SWAP2 POP POP PUSH1 0x40 MLOAD DUP1 SWAP2 SUB SWAP1 REVERT JUMPDEST DUP1 ISZERO PUSH2 0x1069 JUMPI PUSH2 0x1069 PUSH2 0xA8B JUMP JUMPDEST PUSH2 0x10A6 DUP4 PUSH2 0x10A0 PUSH1 0x6 DUP8 DUP2 SLOAD DUP2 LT PUSH2 0x107D JUMPI INVALID JUMPDEST SWAP1 PUSH1 0x0 MSTORE PUSH1 0x20 PUSH1 0x0 KECCAK256 SWAP1 PUSH1 0x5 MUL ADD PUSH1 0x1 ADD SLOAD PUSH1 0x8 SLOAD PUSH2 0x15FC SWAP1 SWAP2 SWAP1 PUSH4 0xFFFFFFFF AND JUMP JUMPDEST SWAP1 PUSH2 0x1899 JUMP JUMPDEST PUSH1 0x8 DUP2 SWAP1 SSTORE POP DUP3 PUSH1 0x6 DUP6 DUP2 SLOAD DUP2 LT PUSH2 0x10BA JUMPI INVALID JUMPDEST SWAP1 PUSH1 0x0 MSTORE PUSH1 0x20 PUSH1 0x0 KECCAK256 SWAP1 PUSH1 0x5 MUL ADD PUSH1 0x1 ADD DUP2 SWAP1 SSTORE POP DUP2 PUSH1 0x6 DUP6 DUP2 SLOAD DUP2 LT PUSH2 0x10DD JUMPI INVALID JUMPDEST SWAP1 PUSH1 0x0 MSTORE PUSH1 0x20 PUSH1 0x0 KECCAK256 SWAP1 PUSH1 0x5 MUL ADD PUSH1 0x4 ADD PUSH1 0x0 PUSH2 0x100 EXP DUP2 SLOAD DUP2 PUSH2 0xFFFF MUL NOT AND SWAP1 DUP4 PUSH2 0xFFFF AND MUL OR SWAP1 SSTORE POP POP POP POP POP JUMP JUMPDEST PUSH1 0x2 PUSH1 0x1 SLOAD EQ ISZERO PUSH2 0x1154 JUMPI PUSH1 0x40 DUP1 MLOAD PUSH3 0x461BCD PUSH1 0xE5 SHL DUP2 MSTORE PUSH1 0x20 PUSH1 0x4 DUP3 ADD MSTORE PUSH1 0x1F PUSH1 0x24 DUP3 ADD MSTORE PUSH1 0x0 DUP1 MLOAD PUSH1 0x20 PUSH2 0x1C0F DUP4 CODECOPY DUP2 MLOAD SWAP2 MSTORE PUSH1 0x44 DUP3 ADD MSTORE SWAP1 MLOAD SWAP1 DUP2 SWAP1 SUB PUSH1 0x64 ADD SWAP1 REVERT JUMPDEST PUSH1 0x2 PUSH1 0x1 DUP2 SWAP1 SSTORE POP PUSH1 0x0 PUSH1 0x6 DUP4 DUP2 SLOAD DUP2 LT PUSH2 0x116B JUMPI INVALID JUMPDEST PUSH1 0x0 SWAP2 DUP3 MSTORE PUSH1 0x20 DUP1 DUP4 KECCAK256 DUP7 DUP5 MSTORE PUSH1 0x7 DUP3 MSTORE PUSH1 0x40 DUP1 DUP6 KECCAK256 CALLER DUP7 MSTORE SWAP1 SWAP3 MSTORE SWAP3 KECCAK256 PUSH1 0x5 SWAP1 SWAP2 MUL SWAP1 SWAP2 ADD SWAP2 POP PUSH2 0x119C DUP5 PUSH2 0x767 JUMP JUMPDEST DUP1 SLOAD ISZERO PUSH2 0x11E5 JUMPI PUSH1 0x0 PUSH2 0x11D1 DUP3 PUSH1 0x1 ADD SLOAD PUSH2 0x6BD PUSH5 0xE8D4A51000 PUSH2 0x6B7 DUP8 PUSH1 0x3 ADD SLOAD DUP8 PUSH1 0x0 ADD SLOAD PUSH2 0x153C SWAP1 SWAP2 SWAP1 PUSH4 0xFFFFFFFF AND JUMP JUMPDEST SWAP1 POP DUP1 ISZERO PUSH2 0x11E3 JUMPI PUSH2 0x11E3 CALLER DUP3 PUSH2 0x1659 JUMP JUMPDEST POP JUMPDEST DUP3 ISZERO PUSH2 0x1277 JUMPI DUP2 SLOAD PUSH2 0x1202 SWAP1 PUSH1 0x1 PUSH1 0x1 PUSH1 0xA0 SHL SUB AND CALLER ADDRESS DUP7 PUSH2 0x18F3 JUMP JUMPDEST PUSH1 0x4 DUP3 ADD SLOAD PUSH2 0xFFFF AND ISZERO PUSH2 0x1268 JUMPI PUSH1 0x4 DUP3 ADD SLOAD PUSH1 0x0 SWAP1 PUSH2 0x122F SWAP1 PUSH2 0x2710 SWAP1 PUSH2 0x6B7 SWAP1 DUP8 SWAP1 PUSH2 0xFFFF AND PUSH2 0x153C JUMP JUMPDEST PUSH1 0x5 SLOAD DUP5 SLOAD SWAP2 SWAP3 POP PUSH2 0x124E SWAP2 PUSH1 0x1 PUSH1 0x1 PUSH1 0xA0 SHL SUB SWAP1 DUP2 AND SWAP2 AND DUP4 PUSH2 0x1842 JUMP JUMPDEST DUP2 SLOAD PUSH2 0x1260 SWAP1 DUP3 SWAP1 PUSH2 0x6BD SWAP1 DUP8 PUSH2 0x1899 JUMP JUMPDEST DUP3 SSTORE POP PUSH2 0x1277 JUMP JUMPDEST DUP1 SLOAD PUSH2 0x1274 SWAP1 DUP5 PUSH2 0x1899 JUMP JUMPDEST DUP2 SSTORE JUMPDEST PUSH1 0x3 DUP3 ADD SLOAD DUP2 SLOAD PUSH2 0x1292 SWAP2 PUSH5 0xE8D4A51000 SWAP2 PUSH2 0x6B7 SWAP2 PUSH2 0x153C JUMP JUMPDEST PUSH1 0x1 DUP3 ADD SSTORE PUSH1 0x40 DUP1 MLOAD DUP5 DUP2 MSTORE SWAP1 MLOAD DUP6 SWAP2 CALLER SWAP2 PUSH32 0x90890809C654F11D6E72A28FA60149770A0D11EC6C92319D6CEB2BB0A4EA1A15 SWAP2 DUP2 SWAP1 SUB PUSH1 0x20 ADD SWAP1 LOG3 POP POP PUSH1 0x1 DUP1 SSTORE POP POP JUMP JUMPDEST PUSH2 0x12E0 PUSH2 0x1538 JUMP JUMPDEST PUSH1 0x1 PUSH1 0x1 PUSH1 0xA0 SHL SUB AND PUSH2 0x12F1 PUSH2 0xF2E JUMP JUMPDEST PUSH1 0x1 PUSH1 0x1 PUSH1 0xA0 SHL SUB AND EQ PUSH2 0x133A JUMPI PUSH1 0x40 DUP1 MLOAD PUSH3 0x461BCD PUSH1 0xE5 SHL DUP2 MSTORE PUSH1 0x20 PUSH1 0x4 DUP3 ADD DUP2 SWAP1 MSTORE PUSH1 0x24 DUP3 ADD MSTORE PUSH1 0x0 DUP1 MLOAD PUSH1 0x20 PUSH2 0x1D10 DUP4 CODECOPY DUP2 MLOAD SWAP2 MSTORE PUSH1 0x44 DUP3 ADD MSTORE SWAP1 MLOAD SWAP1 DUP2 SWAP1 SUB PUSH1 0x64 ADD SWAP1 REVERT JUMPDEST PUSH1 0x1 PUSH1 0x1 PUSH1 0xA0 SHL SUB DUP2 AND PUSH2 0x137F JUMPI PUSH1 0x40 MLOAD PUSH3 0x461BCD PUSH1 0xE5 SHL DUP2 MSTORE PUSH1 0x4 ADD DUP1 DUP1 PUSH1 0x20 ADD DUP3 DUP2 SUB DUP3 MSTORE PUSH1 0x26 DUP2 MSTORE PUSH1 0x20 ADD DUP1 PUSH2 0x1C7E PUSH1 0x26 SWAP2 CODECOPY PUSH1 0x40 ADD SWAP2 POP POP PUSH1 0x40 MLOAD DUP1 SWAP2 SUB SWAP1 REVERT JUMPDEST PUSH1 0x0 DUP1 SLOAD PUSH1 0x40 MLOAD PUSH1 0x1 PUSH1 0x1 PUSH1 0xA0 SHL SUB DUP1 DUP6 AND SWAP4 SWAP3 AND SWAP2 PUSH32 0x8BE0079C531659141344CD1FD0A4F28419497F9722A3DAAFE3B4186F6B6457E0 SWAP2 LOG3 PUSH1 0x0 DUP1 SLOAD PUSH1 0x1 PUSH1 0x1 PUSH1 0xA0 SHL SUB NOT AND PUSH1 0x1 PUSH1 0x1 PUSH1 0xA0 SHL SUB SWAP3 SWAP1 SWAP3 AND SWAP2 SWAP1 SWAP2 OR SWAP1 SSTORE JUMP JUMPDEST PUSH1 0x0 DUP1 PUSH1 0x6 DUP5 DUP2 SLOAD DUP2 LT PUSH2 0x13EA JUMPI INVALID JUMPDEST PUSH1 0x0 SWAP2 DUP3 MSTORE PUSH1 0x20 DUP1 DUP4 KECCAK256 DUP8 DUP5 MSTORE PUSH1 0x7 DUP3 MSTORE PUSH1 0x40 DUP1 DUP6 KECCAK256 PUSH1 0x1 PUSH1 0x1 PUSH1 0xA0 SHL SUB DUP10 DUP2 AND DUP8 MSTORE SWAP1 DUP5 MSTORE DUP2 DUP7 KECCAK256 PUSH1 0x5 SWAP6 SWAP1 SWAP6 MUL SWAP1 SWAP3 ADD PUSH1 0x3 DUP2 ADD SLOAD DUP2 SLOAD DUP4 MLOAD PUSH4 0x70A08231 PUSH1 0xE0 SHL DUP2 MSTORE ADDRESS PUSH1 0x4 DUP3 ADD MSTORE SWAP4 MLOAD SWAP3 SWAP9 POP SWAP6 SWAP7 SWAP1 SWAP6 SWAP1 SWAP5 SWAP4 AND SWAP3 PUSH4 0x70A08231 SWAP3 PUSH1 0x24 DUP1 DUP3 ADD SWAP4 SWAP2 DUP3 SWAP1 SUB ADD DUP2 DUP7 DUP1 EXTCODESIZE ISZERO DUP1 ISZERO PUSH2 0x1464 JUMPI PUSH1 0x0 DUP1 REVERT JUMPDEST POP GAS STATICCALL ISZERO DUP1 ISZERO PUSH2 0x1478 JUMPI RETURNDATASIZE PUSH1 0x0 DUP1 RETURNDATACOPY RETURNDATASIZE PUSH1 0x0 REVERT JUMPDEST POP POP POP POP PUSH1 0x40 MLOAD RETURNDATASIZE PUSH1 0x20 DUP2 LT ISZERO PUSH2 0x148E JUMPI PUSH1 0x0 DUP1 REVERT JUMPDEST POP MLOAD PUSH1 0x2 DUP6 ADD SLOAD SWAP1 SWAP2 POP NUMBER GT DUP1 ISZERO PUSH2 0x14A5 JUMPI POP DUP1 ISZERO ISZERO JUMPDEST ISZERO PUSH2 0x1505 JUMPI PUSH1 0x0 PUSH2 0x14BA DUP6 PUSH1 0x2 ADD SLOAD NUMBER PUSH2 0xF3D JUMP JUMPDEST SWAP1 POP PUSH1 0x0 PUSH2 0x14E1 PUSH1 0x8 SLOAD PUSH2 0x6B7 DUP9 PUSH1 0x1 ADD SLOAD PUSH2 0x867 PUSH1 0x4 SLOAD DUP8 PUSH2 0x153C SWAP1 SWAP2 SWAP1 PUSH4 0xFFFFFFFF AND JUMP JUMPDEST SWAP1 POP PUSH2 0x1500 PUSH2 0x14F9 DUP5 PUSH2 0x6B7 DUP5 PUSH5 0xE8D4A51000 PUSH2 0x153C JUMP JUMPDEST DUP6 SWAP1 PUSH2 0x1899 JUMP JUMPDEST SWAP4 POP POP POP JUMPDEST PUSH2 0x152D DUP4 PUSH1 0x1 ADD SLOAD PUSH2 0x6BD PUSH5 0xE8D4A51000 PUSH2 0x6B7 DUP7 DUP9 PUSH1 0x0 ADD SLOAD PUSH2 0x153C SWAP1 SWAP2 SWAP1 PUSH4 0xFFFFFFFF AND JUMP JUMPDEST SWAP8 SWAP7 POP POP POP POP POP POP POP JUMP JUMPDEST CALLER SWAP1 JUMP JUMPDEST PUSH1 0x0 DUP3 PUSH2 0x154B JUMPI POP PUSH1 0x0 PUSH2 0xF51 JUMP JUMPDEST DUP3 DUP3 MUL DUP3 DUP5 DUP3 DUP2 PUSH2 0x1558 JUMPI INVALID JUMPDEST DIV EQ PUSH2 0xF4E JUMPI PUSH1 0x40 MLOAD PUSH3 0x461BCD PUSH1 0xE5 SHL DUP2 MSTORE PUSH1 0x4 ADD DUP1 DUP1 PUSH1 0x20 ADD DUP3 DUP2 SUB DUP3 MSTORE PUSH1 0x21 DUP2 MSTORE PUSH1 0x20 ADD DUP1 PUSH2 0x1CCA PUSH1 0x21 SWAP2 CODECOPY PUSH1 0x40 ADD SWAP2 POP POP PUSH1 0x40 MLOAD DUP1 SWAP2 SUB SWAP1 REVERT JUMPDEST PUSH1 0x0 DUP1 DUP3 GT PUSH2 0x15EB JUMPI PUSH1 0x40 DUP1 MLOAD PUSH3 0x461BCD PUSH1 0xE5 SHL DUP2 MSTORE PUSH1 0x20 PUSH1 0x4 DUP3 ADD MSTORE PUSH1 0x1A PUSH1 0x24 DUP3 ADD MSTORE PUSH32 0x536166654D6174683A206469766973696F6E206279207A65726F000000000000 PUSH1 0x44 DUP3 ADD MSTORE SWAP1 MLOAD SWAP1 DUP2 SWAP1 SUB PUSH1 0x64 ADD SWAP1 REVERT JUMPDEST DUP2 DUP4 DUP2 PUSH2 0x15F4 JUMPI INVALID JUMPDEST DIV SWAP4 SWAP3 POP POP POP JUMP JUMPDEST PUSH1 0x0 DUP3 DUP3 GT ISZERO PUSH2 0x1653 JUMPI PUSH1 0x40 DUP1 MLOAD PUSH3 0x461BCD PUSH1 0xE5 SHL DUP2 MSTORE PUSH1 0x20 PUSH1 0x4 DUP3 ADD MSTORE PUSH1 0x1E PUSH1 0x24 DUP3 ADD MSTORE PUSH32 0x536166654D6174683A207375627472616374696F6E206F766572666C6F770000 PUSH1 0x44 DUP3 ADD MSTORE SWAP1 MLOAD SWAP1 DUP2 SWAP1 SUB PUSH1 0x64 ADD SWAP1 REVERT JUMPDEST POP SWAP1 SUB SWAP1 JUMP JUMPDEST PUSH1 0x2 SLOAD PUSH1 0x40 DUP1 MLOAD PUSH4 0x70A08231 PUSH1 0xE0 SHL DUP2 MSTORE ADDRESS PUSH1 0x4 DUP3 ADD MSTORE SWAP1 MLOAD PUSH1 0x0 SWAP3 PUSH1 0x1 PUSH1 0x1 PUSH1 0xA0 SHL SUB AND SWAP2 PUSH4 0x70A08231 SWAP2 PUSH1 0x24 DUP1 DUP4 ADD SWAP3 PUSH1 0x20 SWAP3 SWAP2 SWAP1 DUP3 SWAP1 SUB ADD DUP2 DUP7 DUP1 EXTCODESIZE ISZERO DUP1 ISZERO PUSH2 0x16A4 JUMPI PUSH1 0x0 DUP1 REVERT JUMPDEST POP GAS STATICCALL ISZERO DUP1 ISZERO PUSH2 0x16B8 JUMPI RETURNDATASIZE PUSH1 0x0 DUP1 RETURNDATACOPY RETURNDATASIZE PUSH1 0x0 REVERT JUMPDEST POP POP POP POP PUSH1 0x40 MLOAD RETURNDATASIZE PUSH1 0x20 DUP2 LT ISZERO PUSH2 0x16CE JUMPI PUSH1 0x0 DUP1 REVERT JUMPDEST POP MLOAD SWAP1 POP PUSH1 0x0 DUP2 DUP4 GT ISZERO PUSH2 0x1765 JUMPI PUSH1 0x2 SLOAD PUSH1 0x40 DUP1 MLOAD PUSH4 0xA9059CBB PUSH1 0xE0 SHL DUP2 MSTORE PUSH1 0x1 PUSH1 0x1 PUSH1 0xA0 SHL SUB DUP8 DUP2 AND PUSH1 0x4 DUP4 ADD MSTORE PUSH1 0x24 DUP3 ADD DUP7 SWAP1 MSTORE SWAP2 MLOAD SWAP2 SWAP1 SWAP3 AND SWAP2 PUSH4 0xA9059CBB SWAP2 PUSH1 0x44 DUP1 DUP4 ADD SWAP3 PUSH1 0x20 SWAP3 SWAP2 SWAP1 DUP3 SWAP1 SUB ADD DUP2 PUSH1 0x0 DUP8 DUP1 EXTCODESIZE ISZERO DUP1 ISZERO PUSH2 0x1732 JUMPI PUSH1 0x0 DUP1 REVERT JUMPDEST POP GAS CALL ISZERO DUP1 ISZERO PUSH2 0x1746 JUMPI RETURNDATASIZE PUSH1 0x0 DUP1 RETURNDATACOPY RETURNDATASIZE PUSH1 0x0 REVERT JUMPDEST POP POP POP POP PUSH1 0x40 MLOAD RETURNDATASIZE PUSH1 0x20 DUP2 LT ISZERO PUSH2 0x175C JUMPI PUSH1 0x0 DUP1 REVERT JUMPDEST POP MLOAD SWAP1 POP PUSH2 0x17EA JUMP JUMPDEST PUSH1 0x2 SLOAD PUSH1 0x40 DUP1 MLOAD PUSH4 0xA9059CBB PUSH1 0xE0 SHL DUP2 MSTORE PUSH1 0x1 PUSH1 0x1 PUSH1 0xA0 SHL SUB DUP8 DUP2 AND PUSH1 0x4 DUP4 ADD MSTORE PUSH1 0x24 DUP3 ADD DUP8 SWAP1 MSTORE SWAP2 MLOAD SWAP2 SWAP1 SWAP3 AND SWAP2 PUSH4 0xA9059CBB SWAP2 PUSH1 0x44 DUP1 DUP4 ADD SWAP3 PUSH1 0x20 SWAP3 SWAP2 SWAP1 DUP3 SWAP1 SUB ADD DUP2 PUSH1 0x0 DUP8 DUP1 EXTCODESIZE ISZERO DUP1 ISZERO PUSH2 0x17BB JUMPI PUSH1 0x0 DUP1 REVERT JUMPDEST POP GAS CALL ISZERO DUP1 ISZERO PUSH2 0x17CF JUMPI RETURNDATASIZE PUSH1 0x0 DUP1 RETURNDATACOPY RETURNDATASIZE PUSH1 0x0 REVERT JUMPDEST POP POP POP POP PUSH1 0x40 MLOAD RETURNDATASIZE PUSH1 0x20 DUP2 LT ISZERO PUSH2 0x17E5 JUMPI PUSH1 0x0 DUP1 REVERT JUMPDEST POP MLOAD SWAP1 POP JUMPDEST DUP1 PUSH2 0x183C JUMPI PUSH1 0x40 DUP1 MLOAD PUSH3 0x461BCD PUSH1 0xE5 SHL DUP2 MSTORE PUSH1 0x20 PUSH1 0x4 DUP3 ADD DUP2 SWAP1 MSTORE PUSH1 0x24 DUP3 ADD MSTORE PUSH32 0x736166654567675472616E736665723A207472616E73666572206661696C6564 PUSH1 0x44 DUP3 ADD MSTORE SWAP1 MLOAD SWAP1 DUP2 SWAP1 SUB PUSH1 0x64 ADD SWAP1 REVERT JUMPDEST POP POP POP POP JUMP JUMPDEST PUSH1 0x40 DUP1 MLOAD PUSH1 0x1 PUSH1 0x1 PUSH1 0xA0 SHL SUB DUP5 AND PUSH1 0x24 DUP3 ADD MSTORE PUSH1 0x44 DUP1 DUP3 ADD DUP5 SWAP1 MSTORE DUP3 MLOAD DUP1 DUP4 SUB SWAP1 SWAP2 ADD DUP2 MSTORE PUSH1 0x64 SWAP1 SWAP2 ADD SWAP1 SWAP2 MSTORE PUSH1 0x20 DUP2 ADD DUP1 MLOAD PUSH1 0x1 PUSH1 0x1 PUSH1 0xE0 SHL SUB AND PUSH4 0xA9059CBB PUSH1 0xE0 SHL OR SWAP1 MSTORE PUSH2 0x1894 SWAP1 DUP5 SWAP1 PUSH2 0x1949 JUMP JUMPDEST POP POP POP JUMP JUMPDEST PUSH1 0x0 DUP3 DUP3 ADD DUP4 DUP2 LT ISZERO PUSH2 0xF4E JUMPI PUSH1 0x40 DUP1 MLOAD PUSH3 0x461BCD PUSH1 0xE5 SHL DUP2 MSTORE PUSH1 0x20 PUSH1 0x4 DUP3 ADD MSTORE PUSH1 0x1B PUSH1 0x24 DUP3 ADD MSTORE PUSH32 0x536166654D6174683A206164646974696F6E206F766572666C6F770000000000 PUSH1 0x44 DUP3 ADD MSTORE SWAP1 MLOAD SWAP1 DUP2 SWAP1 SUB PUSH1 0x64 ADD SWAP1 REVERT JUMPDEST PUSH1 0x40 DUP1 MLOAD PUSH1 0x1 PUSH1 0x1 PUSH1 0xA0 SHL SUB DUP1 DUP7 AND PUSH1 0x24 DUP4 ADD MSTORE DUP5 AND PUSH1 0x44 DUP3 ADD MSTORE PUSH1 0x64 DUP1 DUP3 ADD DUP5 SWAP1 MSTORE DUP3 MLOAD DUP1 DUP4 SUB SWAP1 SWAP2 ADD DUP2 MSTORE PUSH1 0x84 SWAP1 SWAP2 ADD SWAP1 SWAP2 MSTORE PUSH1 0x20 DUP2 ADD DUP1 MLOAD PUSH1 0x1 PUSH1 0x1 PUSH1 0xE0 SHL SUB AND PUSH4 0x23B872DD PUSH1 0xE0 SHL OR SWAP1 MSTORE PUSH2 0x183C SWAP1 DUP6 SWAP1 JUMPDEST PUSH1 0x60 PUSH2 0x199E DUP3 PUSH1 0x40 MLOAD DUP1 PUSH1 0x40 ADD PUSH1 0x40 MSTORE DUP1 PUSH1 0x20 DUP2 MSTORE PUSH1 0x20 ADD PUSH32 0x5361666542455032303A206C6F772D6C6576656C2063616C6C206661696C6564 DUP2 MSTORE POP DUP6 PUSH1 0x1 PUSH1 0x1 PUSH1 0xA0 SHL SUB AND PUSH2 0x19FA SWAP1 SWAP3 SWAP2 SWAP1 PUSH4 0xFFFFFFFF AND JUMP JUMPDEST DUP1 MLOAD SWAP1 SWAP2 POP ISZERO PUSH2 0x1894 JUMPI DUP1 DUP1 PUSH1 0x20 ADD SWAP1 MLOAD PUSH1 0x20 DUP2 LT ISZERO PUSH2 0x19BD JUMPI PUSH1 0x0 DUP1 REVERT JUMPDEST POP MLOAD PUSH2 0x1894 JUMPI PUSH1 0x40 MLOAD PUSH3 0x461BCD PUSH1 0xE5 SHL DUP2 MSTORE PUSH1 0x4 ADD DUP1 DUP1 PUSH1 0x20 ADD DUP3 DUP2 SUB DUP3 MSTORE PUSH1 0x2A DUP2 MSTORE PUSH1 0x20 ADD DUP1 PUSH2 0x1C54 PUSH1 0x2A SWAP2 CODECOPY PUSH1 0x40 ADD SWAP2 POP POP PUSH1 0x40 MLOAD DUP1 SWAP2 SUB SWAP1 REVERT JUMPDEST PUSH1 0x60 PUSH2 0x1A09 DUP5 DUP5 PUSH1 0x0 DUP6 PUSH2 0x1A13 JUMP JUMPDEST SWAP1 POP JUMPDEST SWAP4 SWAP3 POP POP POP JUMP JUMPDEST PUSH1 0x60 DUP3 SELFBALANCE LT ISZERO PUSH2 0x1A54 JUMPI PUSH1 0x40 MLOAD PUSH3 0x461BCD PUSH1 0xE5 SHL DUP2 MSTORE PUSH1 0x4 ADD DUP1 DUP1 PUSH1 0x20 ADD DUP3 DUP2 SUB DUP3 MSTORE PUSH1 0x26 DUP2 MSTORE PUSH1 0x20 ADD DUP1 PUSH2 0x1CA4 PUSH1 0x26 SWAP2 CODECOPY PUSH1 0x40 ADD SWAP2 POP POP PUSH1 0x40 MLOAD DUP1 SWAP2 SUB SWAP1 REVERT JUMPDEST PUSH2 0x1A5D DUP6 PUSH2 0x1B64 JUMP JUMPDEST PUSH2 0x1AAE JUMPI PUSH1 0x40 DUP1 MLOAD PUSH3 0x461BCD PUSH1 0xE5 SHL DUP2 MSTORE PUSH1 0x20 PUSH1 0x4 DUP3 ADD MSTORE PUSH1 0x1D PUSH1 0x24 DUP3 ADD MSTORE PUSH32 0x416464726573733A2063616C6C20746F206E6F6E2D636F6E7472616374000000 PUSH1 0x44 DUP3 ADD MSTORE SWAP1 MLOAD SWAP1 DUP2 SWAP1 SUB PUSH1 0x64 ADD SWAP1 REVERT JUMPDEST PUSH1 0x0 PUSH1 0x60 DUP7 PUSH1 0x1 PUSH1 0x1 PUSH1 0xA0 SHL SUB AND DUP6 DUP8 PUSH1 0x40 MLOAD DUP1 DUP3 DUP1 MLOAD SWAP1 PUSH1 0x20 ADD SWAP1 DUP1 DUP4 DUP4 JUMPDEST PUSH1 0x20 DUP4 LT PUSH2 0x1AED JUMPI DUP1 MLOAD DUP3 MSTORE PUSH1 0x1F NOT SWAP1 SWAP3 ADD SWAP2 PUSH1 0x20 SWAP2 DUP3 ADD SWAP2 ADD PUSH2 0x1ACE JUMP JUMPDEST PUSH1 0x1 DUP4 PUSH1 0x20 SUB PUSH2 0x100 EXP SUB DUP1 NOT DUP3 MLOAD AND DUP2 DUP5 MLOAD AND DUP1 DUP3 OR DUP6 MSTORE POP POP POP POP POP POP SWAP1 POP ADD SWAP2 POP POP PUSH1 0x0 PUSH1 0x40 MLOAD DUP1 DUP4 SUB DUP2 DUP6 DUP8 GAS CALL SWAP3 POP POP POP RETURNDATASIZE DUP1 PUSH1 0x0 DUP2 EQ PUSH2 0x1B4F JUMPI PUSH1 0x40 MLOAD SWAP2 POP PUSH1 0x1F NOT PUSH1 0x3F RETURNDATASIZE ADD AND DUP3 ADD PUSH1 0x40 MSTORE RETURNDATASIZE DUP3 MSTORE RETURNDATASIZE PUSH1 0x0 PUSH1 0x20 DUP5 ADD RETURNDATACOPY PUSH2 0x1B54 JUMP JUMPDEST PUSH1 0x60 SWAP2 POP JUMPDEST POP SWAP2 POP SWAP2 POP PUSH2 0x152D DUP3 DUP3 DUP7 PUSH2 0x1B6A JUMP JUMPDEST EXTCODESIZE ISZERO ISZERO SWAP1 JUMP JUMPDEST PUSH1 0x60 DUP4 ISZERO PUSH2 0x1B79 JUMPI POP DUP2 PUSH2 0x1A0C JUMP JUMPDEST DUP3 MLOAD ISZERO PUSH2 0x1B89 JUMPI DUP3 MLOAD DUP1 DUP5 PUSH1 0x20 ADD REVERT JUMPDEST DUP2 PUSH1 0x40 MLOAD PUSH3 0x461BCD PUSH1 0xE5 SHL DUP2 MSTORE PUSH1 0x4 ADD DUP1 DUP1 PUSH1 0x20 ADD DUP3 DUP2 SUB DUP3 MSTORE DUP4 DUP2 DUP2 MLOAD DUP2 MSTORE PUSH1 0x20 ADD SWAP2 POP DUP1 MLOAD SWAP1 PUSH1 0x20 ADD SWAP1 DUP1 DUP4 DUP4 PUSH1 0x0 JUMPDEST DUP4 DUP2 LT ISZERO PUSH2 0x1BD3 JUMPI DUP2 DUP2 ADD MLOAD DUP4 DUP3 ADD MSTORE PUSH1 0x20 ADD PUSH2 0x1BBB JUMP JUMPDEST POP POP POP POP SWAP1 POP SWAP1 DUP2 ADD SWAP1 PUSH1 0x1F AND DUP1 ISZERO PUSH2 0x1C00 JUMPI DUP1 DUP3 SUB DUP1 MLOAD PUSH1 0x1 DUP4 PUSH1 0x20 SUB PUSH2 0x100 EXP SUB NOT AND DUP2 MSTORE PUSH1 0x20 ADD SWAP2 POP JUMPDEST POP SWAP3 POP POP POP PUSH1 0x40 MLOAD DUP1 SWAP2 SUB SWAP1 REVERT INVALID MSTORE PUSH6 0x656E7472616E PUSH4 0x79477561 PUSH19 0x643A207265656E7472616E742063616C6C0061 PUSH5 0x643A20696E PUSH23 0x616C6964206465706F7369742066656520626173697320 PUSH17 0x6F696E74735361666542455032303A2042 GASLIMIT POP ORIGIN ADDRESS KECCAK256 PUSH16 0x7065726174696F6E20646964206E6F74 KECCAK256 PUSH20 0x7563636565644F776E61626C653A206E6577206F PUSH24 0x6E657220697320746865207A65726F206164647265737341 PUSH5 0x6472657373 GASPRICE KECCAK256 PUSH10 0x6E73756666696369656E PUSH21 0x2062616C616E636520666F722063616C6C53616665 0x4D PUSH2 0x7468 GASPRICE KECCAK256 PUSH14 0x756C7469706C69636174696F6E20 PUSH16 0x766572666C6F777365743A20696E7661 PUSH13 0x6964206465706F736974206665 PUSH6 0x206261736973 KECCAK256 PUSH17 0x6F696E74734F776E61626C653A2063616C PUSH13 0x6572206973206E6F7420746865 KECCAK256 PUSH16 0x776E6572A2646970667358221220EE5C JUMP PUSH12 0x25274B96A6E800F43319883D EQ LT LT 0x2F SUB 0x22 DUP16 BYTE MULMOD 0x2C ADDRESS PUSH11 0x7769A2A064736F6C634300 MOD 0xC STOP CALLER "},"gasEstimates":{"creation":{"codeDepositCost":"1505000","executionCost":"infinite","totalCost":"infinite"},"external":{"BONUS_MULTIPLIER()":"221","add(uint256,address,uint16,bool)":"infinite","deposit(uint256,uint256)":"infinite","dev(address)":"23477","devaddr()":"1103","egg()":"1059","eggPerBlock()":"1131","emergencyWithdraw(uint256)":"infinite","feeAddress()":"1149","getMultiplier(uint256,uint256)":"infinite","massUpdatePools()":"infinite","owner()":"1104","pendingEgg(uint256,address)":"infinite","poolExistence(address)":"1180","poolInfo(uint256)":"5402","poolLength()":"1022","renounceOwnership()":"infinite","set(uint256,uint256,uint16,bool)":"infinite","setFeeAddress(address)":"23587","startBlock()":"1021","totalAllocPoint()":"1088","transferOwnership(address)":"infinite","updateEmissionRate(uint256)":"infinite","updatePool(uint256)":"infinite","userInfo(uint256,address)":"2161","withdraw(uint256,uint256)":"infinite"},"internal":{"safeEggTransfer(address,uint256)":"infinite"}},"methodIdentifiers":{"BONUS_MULTIPLIER()":"8aa28550","add(uint256,address,uint16,bool)":"84e82a33","deposit(uint256,uint256)":"e2bbb158","dev(address)":"8d88a90e","devaddr()":"d49e77cd","egg()":"c06abfc7","eggPerBlock()":"a1a4d4a4","emergencyWithdraw(uint256)":"5312ea8e","feeAddress()":"41275358","getMultiplier(uint256,uint256)":"8dbb1e3a","massUpdatePools()":"630b5ba1","owner()":"8da5cb5b","pendingEgg(uint256,address)":"f456426f","poolExistence(address)":"cbd258b5","poolInfo(uint256)":"1526fe27","poolLength()":"081e3eda","renounceOwnership()":"715018a6","set(uint256,uint256,uint16,bool)":"d9638422","setFeeAddress(address)":"8705fcd4","startBlock()":"48cd4cb1","totalAllocPoint()":"17caf6f1","transferOwnership(address)":"f2fde38b","updateEmissionRate(uint256)":"0ba84cd2","updatePool(uint256)":"51eb05a6","userInfo(uint256,address)":"93f1a40b","withdraw(uint256,uint256)":"441a3e70"}},"storageLayout":{"storage":[{"astId":496,"contract":"contracts/MasterChefV2.sol:MasterChefV2","label":"_owner","offset":0,"slot":"0","type":"t_address"},{"astId":3590,"contract":"contracts/MasterChefV2.sol:MasterChefV2","label":"_status","offset":0,"slot":"1","type":"t_uint256"},{"astId":4378,"contract":"contracts/MasterChefV2.sol:MasterChefV2","label":"egg","offset":0,"slot":"2","type":"t_contract(EggToken)4342"},{"astId":4380,"contract":"contracts/MasterChefV2.sol:MasterChefV2","label":"devaddr","offset":0,"slot":"3","type":"t_address"},{"astId":4382,"contract":"contracts/MasterChefV2.sol:MasterChefV2","label":"eggPerBlock","offset":0,"slot":"4","type":"t_uint256"},{"astId":4387,"contract":"contracts/MasterChefV2.sol:MasterChefV2","label":"feeAddress","offset":0,"slot":"5","type":"t_address"},{"astId":4390,"contract":"contracts/MasterChefV2.sol:MasterChefV2","label":"poolInfo","offset":0,"slot":"6","type":"t_array(t_struct(PoolInfo)4376_storage)dyn_storage"},{"astId":4396,"contract":"contracts/MasterChefV2.sol:MasterChefV2","label":"userInfo","offset":0,"slot":"7","type":"t_mapping(t_uint256,t_mapping(t_address,t_struct(UserInfo)4365_storage))"},{"astId":4399,"contract":"contracts/MasterChefV2.sol:MasterChefV2","label":"totalAllocPoint","offset":0,"slot":"8","type":"t_uint256"},{"astId":4401,"contract":"contracts/MasterChefV2.sol:MasterChefV2","label":"startBlock","offset":0,"slot":"9","type":"t_uint256"},{"astId":4490,"contract":"contracts/MasterChefV2.sol:MasterChefV2","label":"poolExistence","offset":0,"slot":"10","type":"t_mapping(t_contract(IBEP20)6436,t_bool)"}],"types":{"t_address":{"encoding":"inplace","label":"address","numberOfBytes":"20"},"t_array(t_struct(PoolInfo)4376_storage)dyn_storage":{"base":"t_struct(PoolInfo)4376_storage","encoding":"dynamic_array","label":"struct MasterChefV2.PoolInfo[]","numberOfBytes":"32"},"t_bool":{"encoding":"inplace","label":"bool","numberOfBytes":"1"},"t_contract(EggToken)4342":{"encoding":"inplace","label":"contract EggToken","numberOfBytes":"20"},"t_contract(IBEP20)6436":{"encoding":"inplace","label":"contract IBEP20","numberOfBytes":"20"},"t_mapping(t_address,t_struct(UserInfo)4365_storage)":{"encoding":"mapping","key":"t_address","label":"mapping(address => struct MasterChefV2.UserInfo)","numberOfBytes":"32","value":"t_struct(UserInfo)4365_storage"},"t_mapping(t_contract(IBEP20)6436,t_bool)":{"encoding":"mapping","key":"t_contract(IBEP20)6436","label":"mapping(contract IBEP20 => bool)","numberOfBytes":"32","value":"t_bool"},"t_mapping(t_uint256,t_mapping(t_address,t_struct(UserInfo)4365_storage))":{"encoding":"mapping","key":"t_uint256","label":"mapping(uint256 => mapping(address => struct MasterChefV2.UserInfo))","numberOfBytes":"32","value":"t_mapping(t_address,t_struct(UserInfo)4365_storage)"},"t_struct(PoolInfo)4376_storage":{"encoding":"inplace","label":"struct MasterChefV2.PoolInfo","members":[{"astId":4367,"contract":"contracts/MasterChefV2.sol:MasterChefV2","label":"lpToken","offset":0,"slot":"0","type":"t_contract(IBEP20)6436"},{"astId":4369,"contract":"contracts/MasterChefV2.sol:MasterChefV2","label":"allocPoint","offset":0,"slot":"1","type":"t_uint256"},{"astId":4371,"contract":"contracts/MasterChefV2.sol:MasterChefV2","label":"lastRewardBlock","offset":0,"slot":"2","type":"t_uint256"},{"astId":4373,"contract":"contracts/MasterChefV2.sol:MasterChefV2","label":"accEggPerShare","offset":0,"slot":"3","type":"t_uint256"},{"astId":4375,"contract":"contracts/MasterChefV2.sol:MasterChefV2","label":"depositFeeBP","offset":0,"slot":"4","type":"t_uint16"}],"numberOfBytes":"160"},"t_struct(UserInfo)4365_storage":{"encoding":"inplace","label":"struct MasterChefV2.UserInfo","members":[{"astId":4362,"contract":"contracts/MasterChefV2.sol:MasterChefV2","label":"amount","offset":0,"slot":"0","type":"t_uint256"},{"astId":4364,"contract":"contracts/MasterChefV2.sol:MasterChefV2","label":"rewardDebt","offset":0,"slot":"1","type":"t_uint256"}],"numberOfBytes":"64"},"t_uint16":{"encoding":"inplace","label":"uint16","numberOfBytes":"2"},"t_uint256":{"encoding":"inplace","label":"uint256","numberOfBytes":"32"}}},"userdoc":{"kind":"user","methods":{},"version":1}}}}