{"contracts/lottery/Lottery.sol":{"Lottery":{"abi":[{"inputs":[],"stateMutability":"nonpayable","type":"constructor"},{"anonymous":false,"inputs":[{"indexed":true,"internalType":"address","name":"user","type":"address"},{"indexed":false,"internalType":"uint256","name":"tokenId","type":"uint256"}],"name":"Buy","type":"event"},{"anonymous":false,"inputs":[{"indexed":true,"internalType":"address","name":"user","type":"address"},{"indexed":false,"internalType":"uint256","name":"tokenid","type":"uint256"},{"indexed":false,"internalType":"uint256","name":"amount","type":"uint256"}],"name":"Claim","type":"event"},{"anonymous":false,"inputs":[{"indexed":true,"internalType":"address","name":"user","type":"address"},{"indexed":false,"internalType":"uint256","name":"amount","type":"uint256"}],"name":"DevWithdraw","type":"event"},{"anonymous":false,"inputs":[{"indexed":true,"internalType":"uint256","name":"issueIndex","type":"uint256"},{"indexed":false,"internalType":"uint8[4]","name":"winningNumbers","type":"uint8[4]"}],"name":"Drawing","type":"event"},{"anonymous":false,"inputs":[{"indexed":true,"internalType":"address","name":"user","type":"address"},{"indexed":false,"internalType":"uint256","name":"amount","type":"uint256"}],"name":"MultiBuy","type":"event"},{"anonymous":false,"inputs":[{"indexed":true,"internalType":"address","name":"user","type":"address"},{"indexed":false,"internalType":"uint256","name":"amount","type":"uint256"}],"name":"MultiClaim","type":"event"},{"anonymous":false,"inputs":[{"indexed":true,"internalType":"address","name":"previousOwner","type":"address"},{"indexed":true,"internalType":"address","name":"newOwner","type":"address"}],"name":"OwnershipTransferred","type":"event"},{"anonymous":false,"inputs":[{"indexed":true,"internalType":"uint256","name":"issueIndex","type":"uint256"}],"name":"Reset","type":"event"},{"anonymous":false,"inputs":[{"indexed":true,"internalType":"address","name":"user","type":"address"},{"indexed":true,"internalType":"address","name":"admin","type":"address"}],"name":"SetAdmin","type":"event"},{"anonymous":false,"inputs":[{"indexed":true,"internalType":"address","name":"user","type":"address"},{"indexed":false,"internalType":"uint8","name":"allocation1","type":"uint8"},{"indexed":false,"internalType":"uint8","name":"allocation2","type":"uint8"},{"indexed":false,"internalType":"uint8","name":"allocation3","type":"uint8"}],"name":"SetAllocation","type":"event"},{"anonymous":false,"inputs":[{"indexed":true,"internalType":"address","name":"user","type":"address"},{"indexed":false,"internalType":"uint256","name":"number","type":"uint256"}],"name":"SetMaxNumber","type":"event"},{"anonymous":false,"inputs":[{"indexed":true,"internalType":"address","name":"user","type":"address"},{"indexed":false,"internalType":"uint256","name":"price","type":"uint256"}],"name":"SetMinPrice","type":"event"},{"inputs":[],"name":"adminAddress","outputs":[{"internalType":"address","name":"","type":"address"}],"stateMutability":"view","type":"function"},{"inputs":[{"internalType":"uint256","name":"_amount","type":"uint256"}],"name":"adminWithdraw","outputs":[],"stateMutability":"nonpayable","type":"function"},{"inputs":[{"internalType":"uint256","name":"","type":"uint256"}],"name":"allocation","outputs":[{"internalType":"uint8","name":"","type":"uint8"}],"stateMutability":"view","type":"function"},{"inputs":[{"internalType":"uint256","name":"_price","type":"uint256"},{"internalType":"uint8[4]","name":"_numbers","type":"uint8[4]"}],"name":"buy","outputs":[],"stateMutability":"nonpayable","type":"function"},{"inputs":[{"internalType":"uint256","name":"_tokenId","type":"uint256"}],"name":"claimReward","outputs":[],"stateMutability":"nonpayable","type":"function"},{"inputs":[],"name":"drawed","outputs":[{"internalType":"bool","name":"","type":"bool"}],"stateMutability":"view","type":"function"},{"inputs":[{"internalType":"uint256","name":"_externalRandomNumber","type":"uint256"}],"name":"drawing","outputs":[],"stateMutability":"nonpayable","type":"function"},{"inputs":[],"name":"drawingPhase","outputs":[{"internalType":"bool","name":"","type":"bool"}],"stateMutability":"view","type":"function"},{"inputs":[],"name":"egg","outputs":[{"internalType":"contract IBEP20","name":"","type":"address"}],"stateMutability":"view","type":"function"},{"inputs":[],"name":"enterDrawingPhase","outputs":[],"stateMutability":"nonpayable","type":"function"},{"inputs":[{"internalType":"uint8[4]","name":"number","type":"uint8[4]"}],"name":"generateCombinations","outputs":[{"internalType":"uint32[11]","name":"","type":"uint32[11]"}],"stateMutability":"pure","type":"function"},{"inputs":[{"internalType":"uint256","name":"_issueIndex","type":"uint256"},{"internalType":"uint256","name":"_matchingNumber","type":"uint256"}],"name":"getMatchingRewardAmount","outputs":[{"internalType":"uint256","name":"","type":"uint256"}],"stateMutability":"view","type":"function"},{"inputs":[{"internalType":"uint256","name":"_tokenId","type":"uint256"}],"name":"getRewardView","outputs":[{"internalType":"uint256","name":"","type":"uint256"}],"stateMutability":"view","type":"function"},{"inputs":[{"internalType":"uint256","name":"_issueIndex","type":"uint256"}],"name":"getTotalRewards","outputs":[{"internalType":"uint256","name":"","type":"uint256"}],"stateMutability":"view","type":"function"},{"inputs":[{"internalType":"uint256","name":"","type":"uint256"},{"internalType":"uint256","name":"","type":"uint256"}],"name":"historyAmount","outputs":[{"internalType":"uint256","name":"","type":"uint256"}],"stateMutability":"view","type":"function"},{"inputs":[{"internalType":"uint256","name":"","type":"uint256"},{"internalType":"uint256","name":"","type":"uint256"}],"name":"historyNumbers","outputs":[{"internalType":"uint8","name":"","type":"uint8"}],"stateMutability":"view","type":"function"},{"inputs":[{"internalType":"contract IBEP20","name":"_egg","type":"address"},{"internalType":"contract LotteryNFT","name":"_lottery","type":"address"},{"internalType":"uint256","name":"_minPrice","type":"uint256"},{"internalType":"uint8","name":"_maxNumber","type":"uint8"},{"internalType":"address","name":"_adminAddress","type":"address"}],"name":"initialize","outputs":[],"stateMutability":"nonpayable","type":"function"},{"inputs":[],"name":"issueIndex","outputs":[{"internalType":"uint256","name":"","type":"uint256"}],"stateMutability":"view","type":"function"},{"inputs":[],"name":"lastTimestamp","outputs":[{"internalType":"uint256","name":"","type":"uint256"}],"stateMutability":"view","type":"function"},{"inputs":[{"internalType":"uint256","name":"","type":"uint256"},{"internalType":"uint256","name":"","type":"uint256"}],"name":"lotteryInfo","outputs":[{"internalType":"uint256","name":"","type":"uint256"}],"stateMutability":"view","type":"function"},{"inputs":[],"name":"lotteryNFT","outputs":[{"internalType":"contract LotteryNFT","name":"","type":"address"}],"stateMutability":"view","type":"function"},{"inputs":[],"name":"maxNumber","outputs":[{"internalType":"uint8","name":"","type":"uint8"}],"stateMutability":"view","type":"function"},{"inputs":[],"name":"minPrice","outputs":[{"internalType":"uint256","name":"","type":"uint256"}],"stateMutability":"view","type":"function"},{"inputs":[{"internalType":"uint256","name":"_price","type":"uint256"},{"internalType":"uint8[4][]","name":"_numbers","type":"uint8[4][]"}],"name":"multiBuy","outputs":[],"stateMutability":"nonpayable","type":"function"},{"inputs":[{"internalType":"uint256[]","name":"_tickets","type":"uint256[]"}],"name":"multiClaim","outputs":[],"stateMutability":"nonpayable","type":"function"},{"inputs":[],"name":"owner","outputs":[{"internalType":"address","name":"","type":"address"}],"stateMutability":"view","type":"function"},{"inputs":[],"name":"renounceOwnership","outputs":[],"stateMutability":"nonpayable","type":"function"},{"inputs":[],"name":"reset","outputs":[],"stateMutability":"nonpayable","type":"function"},{"inputs":[{"internalType":"address","name":"_adminAddress","type":"address"}],"name":"setAdmin","outputs":[],"stateMutability":"nonpayable","type":"function"},{"inputs":[{"internalType":"uint8","name":"_allcation1","type":"uint8"},{"internalType":"uint8","name":"_allcation2","type":"uint8"},{"internalType":"uint8","name":"_allcation3","type":"uint8"}],"name":"setAllocation","outputs":[],"stateMutability":"nonpayable","type":"function"},{"inputs":[{"internalType":"uint8","name":"_maxNumber","type":"uint8"}],"name":"setMaxNumber","outputs":[],"stateMutability":"nonpayable","type":"function"},{"inputs":[{"internalType":"uint256","name":"_price","type":"uint256"}],"name":"setMinPrice","outputs":[],"stateMutability":"nonpayable","type":"function"},{"inputs":[],"name":"totalAddresses","outputs":[{"internalType":"uint256","name":"","type":"uint256"}],"stateMutability":"view","type":"function"},{"inputs":[],"name":"totalAmount","outputs":[{"internalType":"uint256","name":"","type":"uint256"}],"stateMutability":"view","type":"function"},{"inputs":[{"internalType":"address","name":"newOwner","type":"address"}],"name":"transferOwnership","outputs":[],"stateMutability":"nonpayable","type":"function"},{"inputs":[{"internalType":"uint256","name":"","type":"uint256"},{"internalType":"uint64","name":"","type":"uint64"}],"name":"userBuyAmountSum","outputs":[{"internalType":"uint256","name":"","type":"uint256"}],"stateMutability":"view","type":"function"},{"inputs":[{"internalType":"address","name":"","type":"address"},{"internalType":"uint256","name":"","type":"uint256"}],"name":"userInfo","outputs":[{"internalType":"uint256","name":"","type":"uint256"}],"stateMutability":"view","type":"function"},{"inputs":[{"internalType":"uint256","name":"","type":"uint256"}],"name":"winningNumbers","outputs":[{"internalType":"uint8","name":"","type":"uint8"}],"stateMutability":"view","type":"function"}],"devdoc":{"kind":"dev","methods":{"owner()":{"details":"Returns the address of the current owner."},"renounceOwnership()":{"details":"Leaves the contract without owner. It will not be possible to call `onlyOwner` functions anymore. Can only be called by the current owner. NOTE: Renouncing ownership will leave the contract without an owner, thereby removing any functionality that is only available to the owner."},"transferOwnership(address)":{"details":"Transfers ownership of the contract to a new account (`newOwner`). Can only be called by the current owner."}},"version":1},"evm":{"bytecode":{"linkReferences":{},"object":"6000606f81905560708190556071819055610100604052608081815260a082905260c082905260e0919091526200003b90607590600462000050565b503480156200004957600080fd5b5062000105565b600183019183908215620000d85791602002820160005b83821115620000a757835183826101000a81548160ff021916908360ff160217905550926020019260010160208160000104928301926001030262000067565b8015620000d65782816101000a81549060ff0219169055600101602081600001049283019260010302620000a7565b505b50620000e6929150620000ea565b5090565b5b80821115620000e657805460ff19168155600101620000eb565b61341280620001156000396000f3fe608060405234801561001057600080fd5b50600436106102125760003560e01c8063704b6c0211610120578063cfad5277116100b8578063e13454161161007c578063e1345416146107b4578063e45be8eb146107bc578063e8adfbc7146107c4578063f2fde38b146107cc578063fc6f9468146107f257610212565b8063cfad52771461071d578063d1f7dbcf14610725578063d411b0fa14610748578063d826f88f14610765578063dc41825b1461076d57610212565b8063704b6c021461062c578063715018a6146106525780637c5b4a371461065a578063850bad94146106775780638da5cb5b14610694578063a42206c9146106b8578063ae169a50146106d5578063c06abfc7146106f2578063c39f49c0146106fa57610212565b8063438209f5116101ae57806359bcbd681161017257806359bcbd681461058f5780635c17623a146105b25780635ea8cd12146105e45780636575243f146106015780636a28f8281461062457610212565b8063438209f51461040d5780634e45f095146104295780634ed73d2814610446578063552164ee146104e7578063569337191461050457610212565b806314c20d571461021757806319d8ac611461026f5780631a39d8ef146102895780631ff688661461029157806321ce919d146102995780632bdff851146102c55780632f506b20146103a2578063324a5562146103cf5780633a4f6999146103ef575b600080fd5b61026d600480360360a081101561022d57600080fd5b604080516080818101909252833593928301929160a083019190602084019060049083908390808284376000920191909152509194506107fa9350505050565b005b610277610956565b60408051918252519081900360200190f35b61027761095c565b61026d610962565b610277600480360360408110156102af57600080fd5b506001600160a01b038135169060200135610a01565b61026d600480360360408110156102db57600080fd5b81359190810190604081016020820135600160201b8111156102fc57600080fd5b82018360208201111561030e57600080fd5b803590602001918460808302840111600160201b8311171561032f57600080fd5b9190808060200260200160405190810160405280939291908181526020016000905b828210156103925760408051608081810190925290808402870190600490839083908082843760009201919091525050508152600190910190602001610351565b50939650610a2f95505050505050565b610277600480360360408110156103b857600080fd5b508035906020013567ffffffffffffffff16610b69565b61026d600480360360208110156103e557600080fd5b503560ff16610b86565b6103f7610c2a565b6040805160ff9092168252519081900360200190f35b610415610c3a565b604080519115158252519081900360200190f35b6103f76004803603602081101561043f57600080fd5b5035610c43565b61026d6004803603602081101561045c57600080fd5b810190602081018135600160201b81111561047657600080fd5b82018360208201111561048857600080fd5b803590602001918460208302840111600160201b831117156104a957600080fd5b919080806020026020016040519081016040528093929190818152602001838360200280828437600092019190915250929550610c6a945050505050565b610277600480360360208110156104fd57600080fd5b5035610f3e565b6105566004803603608081101561051a57600080fd5b8101908080608001906004806020026040519081016040528092919082600460200280828437600092019190915250919450610fe39350505050565b604051808261016080838360005b8381101561057c578181015183820152602001610564565b5050505090500191505060405180910390f35b6103f7600480360360408110156105a557600080fd5b50803590602001356110b3565b61026d600480360360608110156105c857600080fd5b5060ff81358116916020810135821691604090910135166110e9565b61026d600480360360208110156105fa57600080fd5b50356111b4565b6102776004803603604081101561061757600080fd5b508035906020013561123f565b610277611258565b61026d6004803603602081101561064257600080fd5b50356001600160a01b031661125e565b61026d61131f565b61026d6004803603602081101561067057600080fd5b50356113b9565b6103f76004803603602081101561068d57600080fd5b5035611456565b61069c611463565b604080516001600160a01b039092168252519081900360200190f35b61026d600480360360208110156106ce57600080fd5b5035611472565b61026d600480360360208110156106eb57600080fd5b50356117e4565b61069c611a21565b6102776004803603604081101561071057600080fd5b5080359060200135611a30565b610277611a49565b6102776004803603604081101561073b57600080fd5b5080359060200135611a4f565b6102776004803603602081101561075e57600080fd5b5035611ae6565b61026d611dff565b61026d600480360360a081101561078357600080fd5b506001600160a01b038135811691602081013582169160408201359160ff6060820135169160809091013516611f7d565b6104156120c5565b6102776120d0565b61069c6120d6565b61026d600480360360208110156107e257600080fd5b50356001600160a01b03166120e5565b61069c6121d6565b6108026120c5565b1561084e576040805162461bcd60e51b81526020600482015260176024820152766472617765642c2063616e206e6f7420627579206e6f7760481b604482015290519081900360640190fd5b60745460ff16156108a1576040805162461bcd60e51b815260206004820152601860248201527764726177696e672c2063616e206e6f7420627579206e6f7760401b604482015290519081900360640190fd5b6069548210156108f4576040805162461bcd60e51b81526020600482015260196024820152787072696365206d7573742061626f7665206d696e507269636560381b604482015290519081900360640190fd5b600061090083836121e5565b60665490915061091b906001600160a01b031633308661244c565b60408051828152905133917fe3d4187f6ca4248660cc0ac8b8056515bac4a8132be2eca31d6d0cc170722a7e919081900360200190a2505050565b60725481565b60715481565b6068546001600160a01b031633146109af576040805162461bcd60e51b815260206004820152600b60248201526a61646d696e3a207775743f60a81b604482015290519081900360640190fd5b6109b76120c5565b156109f2576040805162461bcd60e51b8152602060048201526006602482015265191c985dd95960d21b604482015290519081900360640190fd5b6074805460ff19166001179055565b606e6020528160005260406000208181548110610a1a57fe5b90600052602060002001600091509150505481565b610a376120c5565b15610a83576040805162461bcd60e51b81526020600482015260176024820152766472617765642c2063616e206e6f7420627579206e6f7760481b604482015290519081900360640190fd5b606954821015610ad6576040805162461bcd60e51b81526020600482015260196024820152787072696365206d7573742061626f7665206d696e507269636560381b604482015290519081900360640190fd5b6000805b8251811015610b1557610b0084848381518110610af357fe5b60200260200101516121e5565b50610b0b82856124ac565b9150600101610ada565b50606654610b2e906001600160a01b031633308461244c565b60408051828152905133917f96c35ad1cc1743f26cb87980c38042de8082358ec6d171a7986d6e11dddfe857919081900360200190a2505050565b606d60209081526000928352604080842090915290825290205481565b6068546001600160a01b03163314610bd3576040805162461bcd60e51b815260206004820152600b60248201526a61646d696e3a207775743f60a81b604482015290519081900360640190fd5b6068805460ff8316600160a01b810260ff60a01b1990921691909117909155604080519182525133917f506d53b52bc18bc1700b98da33af73e7e3ac7eab9dc8ccdc73f311b91e17443f919081900360200190a250565b606854600160a01b900460ff1681565b60745460ff1681565b60738160048110610c5057fe5b60209182820401919006915054906101000a900460ff1681565b6000805b8251811015610e525760675483516001600160a01b0390911690636352211e90859084908110610c9a57fe5b60200260200101516040518263ffffffff1660e01b81526004018082815260200191505060206040518083038186803b158015610cd657600080fd5b505afa158015610cea573d6000803e3d6000fd5b505050506040513d6020811015610d0057600080fd5b50516001600160a01b03163314610d4f576040805162461bcd60e51b815260206004820152600e60248201526d3737ba10333937b69037bbb732b960911b604482015290519081900360640190fd5b60675483516001600160a01b03909116906336dbd2f990859084908110610d7257fe5b60200260200101516040518263ffffffff1660e01b81526004018082815260200191505060206040518083038186803b158015610dae57600080fd5b505afa158015610dc2573d6000803e3d6000fd5b505050506040513d6020811015610dd857600080fd5b505115610e16576040805162461bcd60e51b815260206004820152600760248201526618db185a5b595960ca1b604482015290519081900360640190fd5b6000610e34848381518110610e2757fe5b6020026020010151611ae6565b90508015610e4957610e4681846124ac565b92505b50600101610c6e565b50606754604051637431035560e01b81526020600482018181528551602484015285516001600160a01b039094169363743103559387938392604490920191818601910280838360005b83811015610eb4578181015183820152602001610e9c565b5050505090500192505050600060405180830381600087803b158015610ed957600080fd5b505af1158015610eed573d6000803e3d6000fd5b505050506000811115610f0457610f04338261250d565b60408051828152905133917f6606374655494f5c0e2d6f392656e9777afd9ac5f61527d1bcad50b7e918a03e919081900360200190a25050565b6000606f54821115610f93576040805162461bcd60e51b81526020600482015260196024820152780bed2e6e6eaca92dcc8caf040787a40d2e6e6eaca92dcc8caf603b1b604482015290519081900360640190fd5b610f9b6120c5565b158015610fa95750606f5482145b15610fb75750607154610fde565b6000828152606c602052604081208054909190610fd057fe5b906000526020600020015490505b919050565b610feb61315f565b606082015160408301516020840151845160ff60089390931b61ff001660109290921b62ff00001660189190911b63ff0000001601019091011661102d61315f565b63ffffffff8216815262ffffff8216602082015263ff00ffff8216604082015263ffff00ff8216606082015263ffffff008216608082015261ffff821660a082015262ff00ff821660c082015262ffff00821660e082015263ff0000ff821661010082015263ff00ff00821661012082015263ffff000090911661014082015292915050565b606a60205281600052604060002081600481106110cc57fe5b602081049091015460ff601f9092166101000a9004169150829050565b6068546001600160a01b03163314611136576040805162461bcd60e51b815260206004820152600b60248201526a61646d696e3a207775743f60a81b604482015290519081900360640190fd5b6040805160608101825260ff8086168252848116602083015283169181019190915261116690606590600361317e565b506040805160ff80861682528085166020830152831681830152905133917f084866ac1c2208396290fe35a38f78993aa38fa5f458ad832d768e4ac6d18fa3919081900360600190a2505050565b6068546001600160a01b03163314611201576040805162461bcd60e51b815260206004820152600b60248201526a61646d696e3a207775743f60a81b604482015290519081900360640190fd5b606981905560408051828152905133917f84cb1bb9f2cf0bbe5de6714c4b085e5ace133558133f8ea973b7b3177996ce81919081900360200190a250565b606b6020528160005260406000208181548110610a1a57fe5b606f5481565b61126661269e565b6001600160a01b0316611277611463565b6001600160a01b0316146112c0576040805162461bcd60e51b8152602060048201819052602482015260008051602061339d833981519152604482015290519081900360640190fd5b6001600160a01b0381166112d357600080fd5b606880546001600160a01b0319166001600160a01b03831690811790915560405133907f848ac24ab84501710d6631faab117b66b79aba7ec6f7778cf3bcff428c1a4efc90600090a350565b61132761269e565b6001600160a01b0316611338611463565b6001600160a01b031614611381576040805162461bcd60e51b8152602060048201819052602482015260008051602061339d833981519152604482015290519081900360640190fd5b6033546040516000916001600160a01b0316906000805160206133bd833981519152908390a3603380546001600160a01b0319169055565b6068546001600160a01b03163314611406576040805162461bcd60e51b815260206004820152600b60248201526a61646d696e3a207775743f60a81b604482015290519081900360640190fd5b60665461141d906001600160a01b031633836126a2565b60408051828152905133917f050d1c64cc22ce461b9bc14f6b73852566da02b03c155242bc63169d1fec42aa919081900360200190a250565b60658160038110610c5057fe5b6033546001600160a01b031690565b6068546001600160a01b031633146114bf576040805162461bcd60e51b815260206004820152600b60248201526a61646d696e3a207775743f60a81b604482015290519081900360640190fd5b6114c76120c5565b15611502576040805162461bcd60e51b815260206004820152600660248201526572657365743f60d01b604482015290519081900360640190fd5b60745460ff16611555576040805162461bcd60e51b8152602060048201526019602482015278195b9d195c88191c985dda5b99c81c1a185cd948199a5c9cdd603a1b604482015290519081900360640190fd5b6068546000908190600160a01b900460ff16436000190140825b600a81101561158c57611583606f54610f3e565b5060010161156f565b5060005a607054604080516020808201879052818301939093526060810184905260808082018b90528251808303909101815260a0820183528051908401206073805460715460c085018a905260e08501526101008085018890526101208086018f905286518087039091018152610140860187528051908801208b9006600190810160ff90811690920261ff001960ff19909416958d90068201909216949094179190911617815560725461016084018990526101808401526101a083018690526101c08084018d9052845180850390910181526101e0909301909352815191909301209750858806909101955090915084906002602091828204019190066101000a81548160ff021916908360ff1602179055508181876040516020018084815260200183815260200182815260200193505050506040516020818303038152906040528051906020012094508460001c935060018385060193508360736003600481106116f857fe5b602091828204019190066101000a81548160ff021916908360ff1602179055506073606a6000606f54815260200190815260200160002090600461173d929190613211565b506117466126f4565b606f546000908152606c60205260409020611762916004613244565b506074805460ff19169055606f546040517fa13e935b188993737b3009d62bd916dcbe9e82d8236d75981eeadf26a1460d3d9060739060808101826000835b825461010083900a900460ff168152602060019283018181049485019490930390920291018084116117a1579050505091505060405180910390a2505050505050565b606754604080516331a9108f60e11b81526004810184905290516001600160a01b0390921691636352211e91602480820192602092909190829003018186803b15801561183057600080fd5b505afa158015611844573d6000803e3d6000fd5b505050506040513d602081101561185a57600080fd5b50516001600160a01b031633146118a9576040805162461bcd60e51b815260206004820152600e60248201526d3737ba10333937b69037bbb732b960911b604482015290519081900360640190fd5b606754604080516336dbd2f960e01b81526004810184905290516001600160a01b03909216916336dbd2f991602480820192602092909190829003018186803b1580156118f557600080fd5b505afa158015611909573d6000803e3d6000fd5b505050506040513d602081101561191f57600080fd5b50511561195d576040805162461bcd60e51b815260206004820152600760248201526618db185a5b595960ca1b604482015290519081900360640190fd5b600061196882611ae6565b60675460408051630ae169a560e41b81526004810186905290519293506001600160a01b039091169163ae169a509160248082019260009290919082900301818387803b1580156119b857600080fd5b505af11580156119cc573d6000803e3d6000fd5b5050505060008111156119e3576119e3338261250d565b6040805183815260208101839052815133927f34fcbac0073d7c3d388e51312faf357774904998eeb8fca628b9e6f65ee1cbf7928290030190a25050565b6066546001600160a01b031681565b606c6020528160005260406000208181548110610a1a57fe5b60705481565b600060028210158015611a63575060048211155b611ab4576040805162461bcd60e51b815260206004820181905260248201527f6765744d61746368696e67526577617264416d6f756e743a20494e56414c4944604482015290519081900360640190fd5b6000838152606c6020526040902080546005849003908110611ad257fe5b906000526020600020015490505b92915050565b60675460408051631bf1e00f60e01b815260048101849052905160009283926001600160a01b0390911691631bf1e00f91602480820192602092909190829003018186803b158015611b3757600080fd5b505afa158015611b4b573d6000803e3d6000fd5b505050506040513d6020811015611b6157600080fd5b50519050611b6d61328b565b60675460408051635f8e26a760e01b81526004810187905290516001600160a01b0390921691635f8e26a791602480820192608092909190829003018186803b158015611bb957600080fd5b505afa158015611bcd573d6000803e3d6000fd5b505050506040513d601f19601f820116820180604052506080811015611bf257600080fd5b509050611bfd61328b565b6000838152606a6020526040808220815160808101928390529290916004918390855b825461010083900a900460ff16815260206001928301818104948501949093039092029101808411611c205790505050505050905080600060048110611c6257fe5b602002015160ff16611ca8576040805162461bcd60e51b815260206004820152600a6024820152691b9bdd08191c985dd95960b21b604482015290519081900360640190fd5b6000805b6004811015611cf257838160048110611cc157fe5b602002015160ff16838260048110611cd557fe5b602002015160ff161415611cea578160010191505b600101611cac565b5060006001821115611de55760675460408051637bd0606560e11b8152600481018a905290516000926001600160a01b03169163f7a0c0ca916024808301926020929190829003018186803b158015611d4a57600080fd5b505afa158015611d5e573d6000803e3d6000fd5b505050506040513d6020811015611d7457600080fd5b505190506000611dbe6064611db86065600488900360038110611d9357fe5b602081049091015460ff601f9092166101000a900416611db28b610f3e565b9061293e565b90612997565b9050611de0611dcd8886611a4f565b611db883611db28664e8d4a5100061293e565b925050505b611df48164e8d4a51000612997565b979650505050505050565b6068546001600160a01b03163314611e4c576040805162461bcd60e51b815260206004820152600b60248201526a61646d696e3a207775743f60a81b604482015290519081900360640190fd5b611e546120c5565b611e8f576040805162461bcd60e51b81526020600482015260076024820152666472617765643f60c81b604482015290519081900360640190fd5b42607255600060708190556071556073805463ffffffff191690556074805460ff19169055606f805460018101909155611eca906004611a4f565b611f4f57606554606f54600091611ef591606491611db89160ff90911690611db29060001901610f3e565b604080516080810191829052919250611f4d918391607590600490826000855b825461010083900a900460ff16815260206001928301818104948501949093039092029101808411611f1557905050505050506129fe565b505b606f546040517f01c3cbb0d62726ab09d163873ebf9aed99dd8dc08e57bc938f458132fd178cf690600090a2565b600054610100900460ff1680611f965750611f96612bfa565b80611fa4575060005460ff16155b611fdf5760405162461bcd60e51b815260040180806020018281038252602e81526020018061334e602e913960400191505060405180910390fd5b600054610100900460ff1615801561200a576000805460ff1961ff0019909116610100171660011790555b6001600160a01b03821661201d57600080fd5b606680546001600160a01b03199081166001600160a01b038981169190911790925560678054821688841617905560698690556068805460ff60a01b1916600160a01b60ff881602179091169184169190911790554260725560408051606081018252603c815260146020820152600a918101919091526120a290606590600361317e565b506120ab612c0b565b80156120bd576000805461ff00191690555b505050505050565b60735460ff16151590565b60695481565b6067546001600160a01b031681565b6120ed61269e565b6001600160a01b03166120fe611463565b6001600160a01b031614612147576040805162461bcd60e51b8152602060048201819052602482015260008051602061339d833981519152604482015290519081900360640190fd5b6001600160a01b03811661218c5760405162461bcd60e51b81526004018080602001828103825260268152602001806133026026913960400191505060405180910390fd5b6033546040516001600160a01b038084169216906000805160206133bd83398151915290600090a3603380546001600160a01b0319166001600160a01b0392909216919091179055565b6068546001600160a01b031681565b6000805b600481101561225b57606854600160a01b900460ff1683826004811061220b57fe5b602002015160ff161115612253576040805162461bcd60e51b815260206004820152600a6024820152693130b210373ab6b132b960b11b604482015290519081900360640190fd5b6001016121e9565b50606754606f54604051620dce4760ea1b815233600482018181526000946001600160a01b0316936337391c009388928a92916024018460808083838d5b838110156122b1578181015183820152602001612299565b50505050905001838152602001828152602001945050505050602060405180830381600087803b1580156122e457600080fd5b505af11580156122f8573d6000803e3d6000fd5b505050506040513d602081101561230e57600080fd5b5051606f546000908152606b60209081526040808320805460018101825590845282842001849055338352606e909152902054909150612352576070805460010190555b336000908152606e602090815260408220805460018101825590835291200181905560715461238190856124ac565b6071554260725561239061315f565b61239984610fe3565b905060005b600b81101561244257606f546000908152606d602052604081206123fd918891908585600b81106123cb57fe5b602002015163ffffffff1667ffffffffffffffff168152602001908152602001600020546124ac90919063ffffffff16565b606f546000908152606d60205260408120908484600b811061241b57fe5b6020908102919091015163ffffffff1682528101919091526040016000205560010161239e565b5090949350505050565b604080516001600160a01b0380861660248301528416604482015260648082018490528251808303909101815260849091019091526020810180516001600160e01b03166323b872dd60e01b1790526124a6908590612cbd565b50505050565b600082820183811015612506576040805162461bcd60e51b815260206004820152601b60248201527f536166654d6174683a206164646974696f6e206f766572666c6f770000000000604482015290519081900360640190fd5b9392505050565b606654604080516370a0823160e01b815230600482015290516000926001600160a01b0316916370a08231916024808301926020929190829003018186803b15801561255857600080fd5b505afa15801561256c573d6000803e3d6000fd5b505050506040513d602081101561258257600080fd5b5051905080821115612616576066546040805163a9059cbb60e01b81526001600160a01b038681166004830152602482018590529151919092169163a9059cbb9160448083019260209291908290030181600087803b1580156125e457600080fd5b505af11580156125f8573d6000803e3d6000fd5b505050506040513d602081101561260e57600080fd5b506126999050565b6066546040805163a9059cbb60e01b81526001600160a01b038681166004830152602482018690529151919092169163a9059cbb9160448083019260209291908290030181600087803b15801561266c57600080fd5b505af1158015612680573d6000803e3d6000fd5b505050506040513d602081101561269657600080fd5b50505b505050565b3390565b604080516001600160a01b038416602482015260448082018490528251808303909101815260649091019091526020810180516001600160e01b031663a9059cbb60e01b179052612699908490612cbd565b6126fc61328b565b61270461315f565b60408051608081019182905261275791607390600490826000855b825461010083900a900460ff1681526020600192830181810494850194909303909202910180841161271f5790505050505050610fe3565b606f546000818152606d60208181526040808420865163ffffffff90811686528184528286205487875285855288850151909116865281845291852054958552929091529394506127d9918560025b602002015163ffffffff1667ffffffffffffffff16815260200190815260200160002054826124ac90919063ffffffff16565b606f546000908152606d602052604081209192506127fa91908560036127a6565b606f546000908152606d6020526040812091925061281b91908560046127a6565b905061283261282b83600461293e565b8290612d6e565b606f546000818152606d6020818152604080842060a08a015163ffffffff168552808352908420549484529190529293509091612871918660066127a6565b606f546000908152606d6020526040812091925061289291908660076127a6565b606f546000908152606d602052604081209192506128b391908660086127a6565b606f546000908152606d602052604081209192506128d491908660096127a6565b606f546000908152606d602052604081209192506128f5919086600a6127a6565b905061290561282b83600361293e565b905061291561282b84600661293e565b604080516080810182526071548152602081019590955284019290925250606082015291505090565b60008261294d57506000611ae0565b8282028284828161295a57fe5b04146125065760405162461bcd60e51b815260040180806020018281038252602181526020018061337c6021913960400191505060405180910390fd5b60008082116129ed576040805162461bcd60e51b815260206004820152601a60248201527f536166654d6174683a206469766973696f6e206279207a65726f000000000000604482015290519081900360640190fd5b8183816129f657fe5b049392505050565b612a066120c5565b15612a52576040805162461bcd60e51b81526020600482015260176024820152766472617765642c2063616e206e6f7420627579206e6f7760481b604482015290519081900360640190fd5b60005b6004811015612acf57606854600160a01b900460ff16828260048110612a7757fe5b602002015160ff161115612ac7576040805162461bcd60e51b815260206004820152601260248201527165786365656420746865206d6178696d756d60701b604482015290519081900360640190fd5b600101612a55565b50606754606f54604051620dce4760ea1b815230600482018181526000946001600160a01b0316936337391c009387928992916024018460808083838d5b83811015612b25578181015183820152602001612b0d565b50505050905001838152602001828152602001945050505050602060405180830381600087803b158015612b5857600080fd5b505af1158015612b6c573d6000803e3d6000fd5b505050506040513d6020811015612b8257600080fd5b5051606f546000908152606b6020908152604082208054600181018255908352912001819055607154909150612bb890846124ac565b6071554260725560408051828152905130917fe3d4187f6ca4248660cc0ac8b8056515bac4a8132be2eca31d6d0cc170722a7e919081900360200190a2505050565b6000612c0530612dcb565b15905090565b600054610100900460ff1680612c245750612c24612bfa565b80612c32575060005460ff16155b612c6d5760405162461bcd60e51b815260040180806020018281038252602e81526020018061334e602e913960400191505060405180910390fd5b600054610100900460ff16158015612c98576000805460ff1961ff0019909116610100171660011790555b612ca0612dd1565b612ca8612e71565b8015612cba576000805461ff00191690555b50565b6060612d12826040518060400160405280602081526020017f5361666542455032303a206c6f772d6c6576656c2063616c6c206661696c6564815250856001600160a01b0316612f589092919063ffffffff16565b80519091501561269957808060200190516020811015612d3157600080fd5b50516126995760405162461bcd60e51b815260040180806020018281038252602a8152602001806132d8602a913960400191505060405180910390fd5b600082821115612dc5576040805162461bcd60e51b815260206004820152601e60248201527f536166654d6174683a207375627472616374696f6e206f766572666c6f770000604482015290519081900360640190fd5b50900390565b3b151590565b600054610100900460ff1680612dea5750612dea612bfa565b80612df8575060005460ff16155b612e335760405162461bcd60e51b815260040180806020018281038252602e81526020018061334e602e913960400191505060405180910390fd5b600054610100900460ff16158015612ca8576000805460ff1961ff0019909116610100171660011790558015612cba576000805461ff001916905550565b600054610100900460ff1680612e8a5750612e8a612bfa565b80612e98575060005460ff16155b612ed35760405162461bcd60e51b815260040180806020018281038252602e81526020018061334e602e913960400191505060405180910390fd5b600054610100900460ff16158015612efe576000805460ff1961ff0019909116610100171660011790555b6000612f0861269e565b603380546001600160a01b0319166001600160a01b038316908117909155604051919250906000906000805160206133bd833981519152908290a3508015612cba576000805461ff001916905550565b6060612f678484600085612f6f565b949350505050565b606082471015612fb05760405162461bcd60e51b81526004018080602001828103825260268152602001806133286026913960400191505060405180910390fd5b612fb985612dcb565b61300a576040805162461bcd60e51b815260206004820152601d60248201527f416464726573733a2063616c6c20746f206e6f6e2d636f6e7472616374000000604482015290519081900360640190fd5b60006060866001600160a01b031685876040518082805190602001908083835b602083106130495780518252601f19909201916020918201910161302a565b6001836020036101000a03801982511681845116808217855250505050505090500191505060006040518083038185875af1925050503d80600081146130ab576040519150601f19603f3d011682016040523d82523d6000602084013e6130b0565b606091505b5091509150611df4828286606083156130ca575081612506565b8251156130da5782518084602001fd5b8160405162461bcd60e51b81526004018080602001828103825283818151815260200191508051906020019080838360005b8381101561312457818101518382015260200161310c565b50505050905090810190601f1680156131515780820380516001836020036101000a031916815260200191505b509250505060405180910390fd5b604051806101600160405280600b906020820280368337509192915050565b6001830191839082156132015791602002820160005b838211156131d257835183826101000a81548160ff021916908360ff1602179055509260200192600101602081600001049283019260010302613194565b80156131ff5782816101000a81549060ff02191690556001016020816000010492830192600103026131d2565b505b5061320d9291506132a9565b5090565b6001830191839082156132015791601f016020900482015b82811115613201578254825591600101919060010190613229565b82805482825590600052602060002090810192821561327f579160200282015b8281111561327f578251825591602001919060010190613264565b5061320d9291506132c2565b60405180608001604052806004906020820280368337509192915050565b5b8082111561320d57805460ff191681556001016132aa565b5b8082111561320d57600081556001016132c356fe5361666542455032303a204245503230206f7065726174696f6e20646964206e6f7420737563636565644f776e61626c653a206e6577206f776e657220697320746865207a65726f2061646472657373416464726573733a20696e73756666696369656e742062616c616e636520666f722063616c6c496e697469616c697a61626c653a20636f6e747261637420697320616c726561647920696e697469616c697a6564536166654d6174683a206d756c7469706c69636174696f6e206f766572666c6f774f776e61626c653a2063616c6c6572206973206e6f7420746865206f776e65728be0079c531659141344cd1fd0a4f28419497f9722a3daafe3b4186f6b6457e0a26469706673582212205b29bea7f165c24c60575df43e8fa4af51e418db2377104084af7bb7af906a6e64736f6c634300060c0033","opcodes":"PUSH1 0x0 PUSH1 0x6F DUP2 SWAP1 SSTORE PUSH1 0x70 DUP2 SWAP1 SSTORE PUSH1 0x71 DUP2 SWAP1 SSTORE PUSH2 0x100 PUSH1 0x40 MSTORE PUSH1 0x80 DUP2 DUP2 MSTORE PUSH1 0xA0 DUP3 SWAP1 MSTORE PUSH1 0xC0 DUP3 SWAP1 MSTORE PUSH1 0xE0 SWAP2 SWAP1 SWAP2 MSTORE PUSH3 0x3B SWAP1 PUSH1 0x75 SWAP1 PUSH1 0x4 PUSH3 0x50 JUMP JUMPDEST POP CALLVALUE DUP1 ISZERO PUSH3 0x49 JUMPI PUSH1 0x0 DUP1 REVERT JUMPDEST POP PUSH3 0x105 JUMP JUMPDEST PUSH1 0x1 DUP4 ADD SWAP2 DUP4 SWAP1 DUP3 ISZERO PUSH3 0xD8 JUMPI SWAP2 PUSH1 0x20 MUL DUP3 ADD PUSH1 0x0 JUMPDEST DUP4 DUP3 GT ISZERO PUSH3 0xA7 JUMPI DUP4 MLOAD DUP4 DUP3 PUSH2 0x100 EXP DUP2 SLOAD DUP2 PUSH1 0xFF MUL NOT AND SWAP1 DUP4 PUSH1 0xFF AND MUL OR SWAP1 SSTORE POP SWAP3 PUSH1 0x20 ADD SWAP3 PUSH1 0x1 ADD PUSH1 0x20 DUP2 PUSH1 0x0 ADD DIV SWAP3 DUP4 ADD SWAP3 PUSH1 0x1 SUB MUL PUSH3 0x67 JUMP JUMPDEST DUP1 ISZERO PUSH3 0xD6 JUMPI DUP3 DUP2 PUSH2 0x100 EXP DUP2 SLOAD SWAP1 PUSH1 0xFF MUL NOT AND SWAP1 SSTORE PUSH1 0x1 ADD PUSH1 0x20 DUP2 PUSH1 0x0 ADD DIV SWAP3 DUP4 ADD SWAP3 PUSH1 0x1 SUB MUL PUSH3 0xA7 JUMP JUMPDEST POP JUMPDEST POP PUSH3 0xE6 SWAP3 SWAP2 POP PUSH3 0xEA JUMP JUMPDEST POP SWAP1 JUMP JUMPDEST JUMPDEST DUP1 DUP3 GT ISZERO PUSH3 0xE6 JUMPI DUP1 SLOAD PUSH1 0xFF NOT AND DUP2 SSTORE PUSH1 0x1 ADD PUSH3 0xEB JUMP JUMPDEST PUSH2 0x3412 DUP1 PUSH3 0x115 PUSH1 0x0 CODECOPY PUSH1 0x0 RETURN INVALID PUSH1 0x80 PUSH1 0x40 MSTORE CALLVALUE DUP1 ISZERO PUSH2 0x10 JUMPI PUSH1 0x0 DUP1 REVERT JUMPDEST POP PUSH1 0x4 CALLDATASIZE LT PUSH2 0x212 JUMPI PUSH1 0x0 CALLDATALOAD PUSH1 0xE0 SHR DUP1 PUSH4 0x704B6C02 GT PUSH2 0x120 JUMPI DUP1 PUSH4 0xCFAD5277 GT PUSH2 0xB8 JUMPI DUP1 PUSH4 0xE1345416 GT PUSH2 0x7C JUMPI DUP1 PUSH4 0xE1345416 EQ PUSH2 0x7B4 JUMPI DUP1 PUSH4 0xE45BE8EB EQ PUSH2 0x7BC JUMPI DUP1 PUSH4 0xE8ADFBC7 EQ PUSH2 0x7C4 JUMPI DUP1 PUSH4 0xF2FDE38B EQ PUSH2 0x7CC JUMPI DUP1 PUSH4 0xFC6F9468 EQ PUSH2 0x7F2 JUMPI PUSH2 0x212 JUMP JUMPDEST DUP1 PUSH4 0xCFAD5277 EQ PUSH2 0x71D JUMPI DUP1 PUSH4 0xD1F7DBCF EQ PUSH2 0x725 JUMPI DUP1 PUSH4 0xD411B0FA EQ PUSH2 0x748 JUMPI DUP1 PUSH4 0xD826F88F EQ PUSH2 0x765 JUMPI DUP1 PUSH4 0xDC41825B EQ PUSH2 0x76D JUMPI PUSH2 0x212 JUMP JUMPDEST DUP1 PUSH4 0x704B6C02 EQ PUSH2 0x62C JUMPI DUP1 PUSH4 0x715018A6 EQ PUSH2 0x652 JUMPI DUP1 PUSH4 0x7C5B4A37 EQ PUSH2 0x65A JUMPI DUP1 PUSH4 0x850BAD94 EQ PUSH2 0x677 JUMPI DUP1 PUSH4 0x8DA5CB5B EQ PUSH2 0x694 JUMPI DUP1 PUSH4 0xA42206C9 EQ PUSH2 0x6B8 JUMPI DUP1 PUSH4 0xAE169A50 EQ PUSH2 0x6D5 JUMPI DUP1 PUSH4 0xC06ABFC7 EQ PUSH2 0x6F2 JUMPI DUP1 PUSH4 0xC39F49C0 EQ PUSH2 0x6FA JUMPI PUSH2 0x212 JUMP JUMPDEST DUP1 PUSH4 0x438209F5 GT PUSH2 0x1AE JUMPI DUP1 PUSH4 0x59BCBD68 GT PUSH2 0x172 JUMPI DUP1 PUSH4 0x59BCBD68 EQ PUSH2 0x58F JUMPI DUP1 PUSH4 0x5C17623A EQ PUSH2 0x5B2 JUMPI DUP1 PUSH4 0x5EA8CD12 EQ PUSH2 0x5E4 JUMPI DUP1 PUSH4 0x6575243F EQ PUSH2 0x601 JUMPI DUP1 PUSH4 0x6A28F828 EQ PUSH2 0x624 JUMPI PUSH2 0x212 JUMP JUMPDEST DUP1 PUSH4 0x438209F5 EQ PUSH2 0x40D JUMPI DUP1 PUSH4 0x4E45F095 EQ PUSH2 0x429 JUMPI DUP1 PUSH4 0x4ED73D28 EQ PUSH2 0x446 JUMPI DUP1 PUSH4 0x552164EE EQ PUSH2 0x4E7 JUMPI DUP1 PUSH4 0x56933719 EQ PUSH2 0x504 JUMPI PUSH2 0x212 JUMP JUMPDEST DUP1 PUSH4 0x14C20D57 EQ PUSH2 0x217 JUMPI DUP1 PUSH4 0x19D8AC61 EQ PUSH2 0x26F JUMPI DUP1 PUSH4 0x1A39D8EF EQ PUSH2 0x289 JUMPI DUP1 PUSH4 0x1FF68866 EQ PUSH2 0x291 JUMPI DUP1 PUSH4 0x21CE919D EQ PUSH2 0x299 JUMPI DUP1 PUSH4 0x2BDFF851 EQ PUSH2 0x2C5 JUMPI DUP1 PUSH4 0x2F506B20 EQ PUSH2 0x3A2 JUMPI DUP1 PUSH4 0x324A5562 EQ PUSH2 0x3CF JUMPI DUP1 PUSH4 0x3A4F6999 EQ PUSH2 0x3EF JUMPI JUMPDEST PUSH1 0x0 DUP1 REVERT JUMPDEST PUSH2 0x26D PUSH1 0x4 DUP1 CALLDATASIZE SUB PUSH1 0xA0 DUP2 LT ISZERO PUSH2 0x22D JUMPI PUSH1 0x0 DUP1 REVERT JUMPDEST PUSH1 0x40 DUP1 MLOAD PUSH1 0x80 DUP2 DUP2 ADD SWAP1 SWAP3 MSTORE DUP4 CALLDATALOAD SWAP4 SWAP3 DUP4 ADD SWAP3 SWAP2 PUSH1 0xA0 DUP4 ADD SWAP2 SWAP1 PUSH1 0x20 DUP5 ADD SWAP1 PUSH1 0x4 SWAP1 DUP4 SWAP1 DUP4 SWAP1 DUP1 DUP3 DUP5 CALLDATACOPY PUSH1 0x0 SWAP3 ADD SWAP2 SWAP1 SWAP2 MSTORE POP SWAP2 SWAP5 POP PUSH2 0x7FA SWAP4 POP POP POP POP JUMP JUMPDEST STOP JUMPDEST PUSH2 0x277 PUSH2 0x956 JUMP JUMPDEST PUSH1 0x40 DUP1 MLOAD SWAP2 DUP3 MSTORE MLOAD SWAP1 DUP2 SWAP1 SUB PUSH1 0x20 ADD SWAP1 RETURN JUMPDEST PUSH2 0x277 PUSH2 0x95C JUMP JUMPDEST PUSH2 0x26D PUSH2 0x962 JUMP JUMPDEST PUSH2 0x277 PUSH1 0x4 DUP1 CALLDATASIZE SUB PUSH1 0x40 DUP2 LT ISZERO PUSH2 0x2AF JUMPI PUSH1 0x0 DUP1 REVERT JUMPDEST POP PUSH1 0x1 PUSH1 0x1 PUSH1 0xA0 SHL SUB DUP2 CALLDATALOAD AND SWAP1 PUSH1 0x20 ADD CALLDATALOAD PUSH2 0xA01 JUMP JUMPDEST PUSH2 0x26D PUSH1 0x4 DUP1 CALLDATASIZE SUB PUSH1 0x40 DUP2 LT ISZERO PUSH2 0x2DB JUMPI PUSH1 0x0 DUP1 REVERT JUMPDEST DUP2 CALLDATALOAD SWAP2 SWAP1 DUP2 ADD SWAP1 PUSH1 0x40 DUP2 ADD PUSH1 0x20 DUP3 ADD CALLDATALOAD PUSH1 0x1 PUSH1 0x20 SHL DUP2 GT ISZERO PUSH2 0x2FC JUMPI PUSH1 0x0 DUP1 REVERT JUMPDEST DUP3 ADD DUP4 PUSH1 0x20 DUP3 ADD GT ISZERO PUSH2 0x30E JUMPI PUSH1 0x0 DUP1 REVERT JUMPDEST DUP1 CALLDATALOAD SWAP1 PUSH1 0x20 ADD SWAP2 DUP5 PUSH1 0x80 DUP4 MUL DUP5 ADD GT PUSH1 0x1 PUSH1 0x20 SHL DUP4 GT OR ISZERO PUSH2 0x32F JUMPI PUSH1 0x0 DUP1 REVERT JUMPDEST SWAP2 SWAP1 DUP1 DUP1 PUSH1 0x20 MUL PUSH1 0x20 ADD PUSH1 0x40 MLOAD SWAP1 DUP2 ADD PUSH1 0x40 MSTORE DUP1 SWAP4 SWAP3 SWAP2 SWAP1 DUP2 DUP2 MSTORE PUSH1 0x20 ADD PUSH1 0x0 SWAP1 JUMPDEST DUP3 DUP3 LT ISZERO PUSH2 0x392 JUMPI PUSH1 0x40 DUP1 MLOAD PUSH1 0x80 DUP2 DUP2 ADD SWAP1 SWAP3 MSTORE SWAP1 DUP1 DUP5 MUL DUP8 ADD SWAP1 PUSH1 0x4 SWAP1 DUP4 SWAP1 DUP4 SWAP1 DUP1 DUP3 DUP5 CALLDATACOPY PUSH1 0x0 SWAP3 ADD SWAP2 SWAP1 SWAP2 MSTORE POP POP POP DUP2 MSTORE PUSH1 0x1 SWAP1 SWAP2 ADD SWAP1 PUSH1 0x20 ADD PUSH2 0x351 JUMP JUMPDEST POP SWAP4 SWAP7 POP PUSH2 0xA2F SWAP6 POP POP POP POP POP POP JUMP JUMPDEST PUSH2 0x277 PUSH1 0x4 DUP1 CALLDATASIZE SUB PUSH1 0x40 DUP2 LT ISZERO PUSH2 0x3B8 JUMPI PUSH1 0x0 DUP1 REVERT JUMPDEST POP DUP1 CALLDATALOAD SWAP1 PUSH1 0x20 ADD CALLDATALOAD PUSH8 0xFFFFFFFFFFFFFFFF AND PUSH2 0xB69 JUMP JUMPDEST PUSH2 0x26D PUSH1 0x4 DUP1 CALLDATASIZE SUB PUSH1 0x20 DUP2 LT ISZERO PUSH2 0x3E5 JUMPI PUSH1 0x0 DUP1 REVERT JUMPDEST POP CALLDATALOAD PUSH1 0xFF AND PUSH2 0xB86 JUMP JUMPDEST PUSH2 0x3F7 PUSH2 0xC2A JUMP JUMPDEST PUSH1 0x40 DUP1 MLOAD PUSH1 0xFF SWAP1 SWAP3 AND DUP3 MSTORE MLOAD SWAP1 DUP2 SWAP1 SUB PUSH1 0x20 ADD SWAP1 RETURN JUMPDEST PUSH2 0x415 PUSH2 0xC3A JUMP JUMPDEST PUSH1 0x40 DUP1 MLOAD SWAP2 ISZERO ISZERO DUP3 MSTORE MLOAD SWAP1 DUP2 SWAP1 SUB PUSH1 0x20 ADD SWAP1 RETURN JUMPDEST PUSH2 0x3F7 PUSH1 0x4 DUP1 CALLDATASIZE SUB PUSH1 0x20 DUP2 LT ISZERO PUSH2 0x43F JUMPI PUSH1 0x0 DUP1 REVERT JUMPDEST POP CALLDATALOAD PUSH2 0xC43 JUMP JUMPDEST PUSH2 0x26D PUSH1 0x4 DUP1 CALLDATASIZE SUB PUSH1 0x20 DUP2 LT ISZERO PUSH2 0x45C JUMPI PUSH1 0x0 DUP1 REVERT JUMPDEST DUP2 ADD SWAP1 PUSH1 0x20 DUP2 ADD DUP2 CALLDATALOAD PUSH1 0x1 PUSH1 0x20 SHL DUP2 GT ISZERO PUSH2 0x476 JUMPI PUSH1 0x0 DUP1 REVERT JUMPDEST DUP3 ADD DUP4 PUSH1 0x20 DUP3 ADD GT ISZERO PUSH2 0x488 JUMPI PUSH1 0x0 DUP1 REVERT JUMPDEST DUP1 CALLDATALOAD SWAP1 PUSH1 0x20 ADD SWAP2 DUP5 PUSH1 0x20 DUP4 MUL DUP5 ADD GT PUSH1 0x1 PUSH1 0x20 SHL DUP4 GT OR ISZERO PUSH2 0x4A9 JUMPI PUSH1 0x0 DUP1 REVERT JUMPDEST SWAP2 SWAP1 DUP1 DUP1 PUSH1 0x20 MUL PUSH1 0x20 ADD PUSH1 0x40 MLOAD SWAP1 DUP2 ADD PUSH1 0x40 MSTORE DUP1 SWAP4 SWAP3 SWAP2 SWAP1 DUP2 DUP2 MSTORE PUSH1 0x20 ADD DUP4 DUP4 PUSH1 0x20 MUL DUP1 DUP3 DUP5 CALLDATACOPY PUSH1 0x0 SWAP3 ADD SWAP2 SWAP1 SWAP2 MSTORE POP SWAP3 SWAP6 POP PUSH2 0xC6A SWAP5 POP POP POP POP POP JUMP JUMPDEST PUSH2 0x277 PUSH1 0x4 DUP1 CALLDATASIZE SUB PUSH1 0x20 DUP2 LT ISZERO PUSH2 0x4FD JUMPI PUSH1 0x0 DUP1 REVERT JUMPDEST POP CALLDATALOAD PUSH2 0xF3E JUMP JUMPDEST PUSH2 0x556 PUSH1 0x4 DUP1 CALLDATASIZE SUB PUSH1 0x80 DUP2 LT ISZERO PUSH2 0x51A JUMPI PUSH1 0x0 DUP1 REVERT JUMPDEST DUP2 ADD SWAP1 DUP1 DUP1 PUSH1 0x80 ADD SWAP1 PUSH1 0x4 DUP1 PUSH1 0x20 MUL PUSH1 0x40 MLOAD SWAP1 DUP2 ADD PUSH1 0x40 MSTORE DUP1 SWAP3 SWAP2 SWAP1 DUP3 PUSH1 0x4 PUSH1 0x20 MUL DUP1 DUP3 DUP5 CALLDATACOPY PUSH1 0x0 SWAP3 ADD SWAP2 SWAP1 SWAP2 MSTORE POP SWAP2 SWAP5 POP PUSH2 0xFE3 SWAP4 POP POP POP POP JUMP JUMPDEST PUSH1 0x40 MLOAD DUP1 DUP3 PUSH2 0x160 DUP1 DUP4 DUP4 PUSH1 0x0 JUMPDEST DUP4 DUP2 LT ISZERO PUSH2 0x57C JUMPI DUP2 DUP2 ADD MLOAD DUP4 DUP3 ADD MSTORE PUSH1 0x20 ADD PUSH2 0x564 JUMP JUMPDEST POP POP POP POP SWAP1 POP ADD SWAP2 POP POP PUSH1 0x40 MLOAD DUP1 SWAP2 SUB SWAP1 RETURN JUMPDEST PUSH2 0x3F7 PUSH1 0x4 DUP1 CALLDATASIZE SUB PUSH1 0x40 DUP2 LT ISZERO PUSH2 0x5A5 JUMPI PUSH1 0x0 DUP1 REVERT JUMPDEST POP DUP1 CALLDATALOAD SWAP1 PUSH1 0x20 ADD CALLDATALOAD PUSH2 0x10B3 JUMP JUMPDEST PUSH2 0x26D PUSH1 0x4 DUP1 CALLDATASIZE SUB PUSH1 0x60 DUP2 LT ISZERO PUSH2 0x5C8 JUMPI PUSH1 0x0 DUP1 REVERT JUMPDEST POP PUSH1 0xFF DUP2 CALLDATALOAD DUP2 AND SWAP2 PUSH1 0x20 DUP2 ADD CALLDATALOAD DUP3 AND SWAP2 PUSH1 0x40 SWAP1 SWAP2 ADD CALLDATALOAD AND PUSH2 0x10E9 JUMP JUMPDEST PUSH2 0x26D PUSH1 0x4 DUP1 CALLDATASIZE SUB PUSH1 0x20 DUP2 LT ISZERO PUSH2 0x5FA JUMPI PUSH1 0x0 DUP1 REVERT JUMPDEST POP CALLDATALOAD PUSH2 0x11B4 JUMP JUMPDEST PUSH2 0x277 PUSH1 0x4 DUP1 CALLDATASIZE SUB PUSH1 0x40 DUP2 LT ISZERO PUSH2 0x617 JUMPI PUSH1 0x0 DUP1 REVERT JUMPDEST POP DUP1 CALLDATALOAD SWAP1 PUSH1 0x20 ADD CALLDATALOAD PUSH2 0x123F JUMP JUMPDEST PUSH2 0x277 PUSH2 0x1258 JUMP JUMPDEST PUSH2 0x26D PUSH1 0x4 DUP1 CALLDATASIZE SUB PUSH1 0x20 DUP2 LT ISZERO PUSH2 0x642 JUMPI PUSH1 0x0 DUP1 REVERT JUMPDEST POP CALLDATALOAD PUSH1 0x1 PUSH1 0x1 PUSH1 0xA0 SHL SUB AND PUSH2 0x125E JUMP JUMPDEST PUSH2 0x26D PUSH2 0x131F JUMP JUMPDEST PUSH2 0x26D PUSH1 0x4 DUP1 CALLDATASIZE SUB PUSH1 0x20 DUP2 LT ISZERO PUSH2 0x670 JUMPI PUSH1 0x0 DUP1 REVERT JUMPDEST POP CALLDATALOAD PUSH2 0x13B9 JUMP JUMPDEST PUSH2 0x3F7 PUSH1 0x4 DUP1 CALLDATASIZE SUB PUSH1 0x20 DUP2 LT ISZERO PUSH2 0x68D JUMPI PUSH1 0x0 DUP1 REVERT JUMPDEST POP CALLDATALOAD PUSH2 0x1456 JUMP JUMPDEST PUSH2 0x69C PUSH2 0x1463 JUMP JUMPDEST PUSH1 0x40 DUP1 MLOAD PUSH1 0x1 PUSH1 0x1 PUSH1 0xA0 SHL SUB SWAP1 SWAP3 AND DUP3 MSTORE MLOAD SWAP1 DUP2 SWAP1 SUB PUSH1 0x20 ADD SWAP1 RETURN JUMPDEST PUSH2 0x26D PUSH1 0x4 DUP1 CALLDATASIZE SUB PUSH1 0x20 DUP2 LT ISZERO PUSH2 0x6CE JUMPI PUSH1 0x0 DUP1 REVERT JUMPDEST POP CALLDATALOAD PUSH2 0x1472 JUMP JUMPDEST PUSH2 0x26D PUSH1 0x4 DUP1 CALLDATASIZE SUB PUSH1 0x20 DUP2 LT ISZERO PUSH2 0x6EB JUMPI PUSH1 0x0 DUP1 REVERT JUMPDEST POP CALLDATALOAD PUSH2 0x17E4 JUMP JUMPDEST PUSH2 0x69C PUSH2 0x1A21 JUMP JUMPDEST PUSH2 0x277 PUSH1 0x4 DUP1 CALLDATASIZE SUB PUSH1 0x40 DUP2 LT ISZERO PUSH2 0x710 JUMPI PUSH1 0x0 DUP1 REVERT JUMPDEST POP DUP1 CALLDATALOAD SWAP1 PUSH1 0x20 ADD CALLDATALOAD PUSH2 0x1A30 JUMP JUMPDEST PUSH2 0x277 PUSH2 0x1A49 JUMP JUMPDEST PUSH2 0x277 PUSH1 0x4 DUP1 CALLDATASIZE SUB PUSH1 0x40 DUP2 LT ISZERO PUSH2 0x73B JUMPI PUSH1 0x0 DUP1 REVERT JUMPDEST POP DUP1 CALLDATALOAD SWAP1 PUSH1 0x20 ADD CALLDATALOAD PUSH2 0x1A4F JUMP JUMPDEST PUSH2 0x277 PUSH1 0x4 DUP1 CALLDATASIZE SUB PUSH1 0x20 DUP2 LT ISZERO PUSH2 0x75E JUMPI PUSH1 0x0 DUP1 REVERT JUMPDEST POP CALLDATALOAD PUSH2 0x1AE6 JUMP JUMPDEST PUSH2 0x26D PUSH2 0x1DFF JUMP JUMPDEST PUSH2 0x26D PUSH1 0x4 DUP1 CALLDATASIZE SUB PUSH1 0xA0 DUP2 LT ISZERO PUSH2 0x783 JUMPI PUSH1 0x0 DUP1 REVERT JUMPDEST POP PUSH1 0x1 PUSH1 0x1 PUSH1 0xA0 SHL SUB DUP2 CALLDATALOAD DUP2 AND SWAP2 PUSH1 0x20 DUP2 ADD CALLDATALOAD DUP3 AND SWAP2 PUSH1 0x40 DUP3 ADD CALLDATALOAD SWAP2 PUSH1 0xFF PUSH1 0x60 DUP3 ADD CALLDATALOAD AND SWAP2 PUSH1 0x80 SWAP1 SWAP2 ADD CALLDATALOAD AND PUSH2 0x1F7D JUMP JUMPDEST PUSH2 0x415 PUSH2 0x20C5 JUMP JUMPDEST PUSH2 0x277 PUSH2 0x20D0 JUMP JUMPDEST PUSH2 0x69C PUSH2 0x20D6 JUMP JUMPDEST PUSH2 0x26D PUSH1 0x4 DUP1 CALLDATASIZE SUB PUSH1 0x20 DUP2 LT ISZERO PUSH2 0x7E2 JUMPI PUSH1 0x0 DUP1 REVERT JUMPDEST POP CALLDATALOAD PUSH1 0x1 PUSH1 0x1 PUSH1 0xA0 SHL SUB AND PUSH2 0x20E5 JUMP JUMPDEST PUSH2 0x69C PUSH2 0x21D6 JUMP JUMPDEST PUSH2 0x802 PUSH2 0x20C5 JUMP JUMPDEST ISZERO PUSH2 0x84E JUMPI PUSH1 0x40 DUP1 MLOAD PUSH3 0x461BCD PUSH1 0xE5 SHL DUP2 MSTORE PUSH1 0x20 PUSH1 0x4 DUP3 ADD MSTORE PUSH1 0x17 PUSH1 0x24 DUP3 ADD MSTORE PUSH23 0x6472617765642C2063616E206E6F7420627579206E6F77 PUSH1 0x48 SHL PUSH1 0x44 DUP3 ADD MSTORE SWAP1 MLOAD SWAP1 DUP2 SWAP1 SUB PUSH1 0x64 ADD SWAP1 REVERT JUMPDEST PUSH1 0x74 SLOAD PUSH1 0xFF AND ISZERO PUSH2 0x8A1 JUMPI PUSH1 0x40 DUP1 MLOAD PUSH3 0x461BCD PUSH1 0xE5 SHL DUP2 MSTORE PUSH1 0x20 PUSH1 0x4 DUP3 ADD MSTORE PUSH1 0x18 PUSH1 0x24 DUP3 ADD MSTORE PUSH24 0x64726177696E672C2063616E206E6F7420627579206E6F77 PUSH1 0x40 SHL PUSH1 0x44 DUP3 ADD MSTORE SWAP1 MLOAD SWAP1 DUP2 SWAP1 SUB PUSH1 0x64 ADD SWAP1 REVERT JUMPDEST PUSH1 0x69 SLOAD DUP3 LT ISZERO PUSH2 0x8F4 JUMPI PUSH1 0x40 DUP1 MLOAD PUSH3 0x461BCD PUSH1 0xE5 SHL DUP2 MSTORE PUSH1 0x20 PUSH1 0x4 DUP3 ADD MSTORE PUSH1 0x19 PUSH1 0x24 DUP3 ADD MSTORE PUSH25 0x7072696365206D7573742061626F7665206D696E5072696365 PUSH1 0x38 SHL PUSH1 0x44 DUP3 ADD MSTORE SWAP1 MLOAD SWAP1 DUP2 SWAP1 SUB PUSH1 0x64 ADD SWAP1 REVERT JUMPDEST PUSH1 0x0 PUSH2 0x900 DUP4 DUP4 PUSH2 0x21E5 JUMP JUMPDEST PUSH1 0x66 SLOAD SWAP1 SWAP2 POP PUSH2 0x91B SWAP1 PUSH1 0x1 PUSH1 0x1 PUSH1 0xA0 SHL SUB AND CALLER ADDRESS DUP7 PUSH2 0x244C JUMP JUMPDEST PUSH1 0x40 DUP1 MLOAD DUP3 DUP2 MSTORE SWAP1 MLOAD CALLER SWAP2 PUSH32 0xE3D4187F6CA4248660CC0AC8B8056515BAC4A8132BE2ECA31D6D0CC170722A7E SWAP2 SWAP1 DUP2 SWAP1 SUB PUSH1 0x20 ADD SWAP1 LOG2 POP POP POP JUMP JUMPDEST PUSH1 0x72 SLOAD DUP2 JUMP JUMPDEST PUSH1 0x71 SLOAD DUP2 JUMP JUMPDEST PUSH1 0x68 SLOAD PUSH1 0x1 PUSH1 0x1 PUSH1 0xA0 SHL SUB AND CALLER EQ PUSH2 0x9AF JUMPI PUSH1 0x40 DUP1 MLOAD PUSH3 0x461BCD PUSH1 0xE5 SHL DUP2 MSTORE PUSH1 0x20 PUSH1 0x4 DUP3 ADD MSTORE PUSH1 0xB PUSH1 0x24 DUP3 ADD MSTORE PUSH11 0x61646D696E3A207775743F PUSH1 0xA8 SHL PUSH1 0x44 DUP3 ADD MSTORE SWAP1 MLOAD SWAP1 DUP2 SWAP1 SUB PUSH1 0x64 ADD SWAP1 REVERT JUMPDEST PUSH2 0x9B7 PUSH2 0x20C5 JUMP JUMPDEST ISZERO PUSH2 0x9F2 JUMPI PUSH1 0x40 DUP1 MLOAD PUSH3 0x461BCD PUSH1 0xE5 SHL DUP2 MSTORE PUSH1 0x20 PUSH1 0x4 DUP3 ADD MSTORE PUSH1 0x6 PUSH1 0x24 DUP3 ADD MSTORE PUSH6 0x191C985DD959 PUSH1 0xD2 SHL PUSH1 0x44 DUP3 ADD MSTORE SWAP1 MLOAD SWAP1 DUP2 SWAP1 SUB PUSH1 0x64 ADD SWAP1 REVERT JUMPDEST PUSH1 0x74 DUP1 SLOAD PUSH1 0xFF NOT AND PUSH1 0x1 OR SWAP1 SSTORE JUMP JUMPDEST PUSH1 0x6E PUSH1 0x20 MSTORE DUP2 PUSH1 0x0 MSTORE PUSH1 0x40 PUSH1 0x0 KECCAK256 DUP2 DUP2 SLOAD DUP2 LT PUSH2 0xA1A JUMPI INVALID JUMPDEST SWAP1 PUSH1 0x0 MSTORE PUSH1 0x20 PUSH1 0x0 KECCAK256 ADD PUSH1 0x0 SWAP2 POP SWAP2 POP POP SLOAD DUP2 JUMP JUMPDEST PUSH2 0xA37 PUSH2 0x20C5 JUMP JUMPDEST ISZERO PUSH2 0xA83 JUMPI PUSH1 0x40 DUP1 MLOAD PUSH3 0x461BCD PUSH1 0xE5 SHL DUP2 MSTORE PUSH1 0x20 PUSH1 0x4 DUP3 ADD MSTORE PUSH1 0x17 PUSH1 0x24 DUP3 ADD MSTORE PUSH23 0x6472617765642C2063616E206E6F7420627579206E6F77 PUSH1 0x48 SHL PUSH1 0x44 DUP3 ADD MSTORE SWAP1 MLOAD SWAP1 DUP2 SWAP1 SUB PUSH1 0x64 ADD SWAP1 REVERT JUMPDEST PUSH1 0x69 SLOAD DUP3 LT ISZERO PUSH2 0xAD6 JUMPI PUSH1 0x40 DUP1 MLOAD PUSH3 0x461BCD PUSH1 0xE5 SHL DUP2 MSTORE PUSH1 0x20 PUSH1 0x4 DUP3 ADD MSTORE PUSH1 0x19 PUSH1 0x24 DUP3 ADD MSTORE PUSH25 0x7072696365206D7573742061626F7665206D696E5072696365 PUSH1 0x38 SHL PUSH1 0x44 DUP3 ADD MSTORE SWAP1 MLOAD SWAP1 DUP2 SWAP1 SUB PUSH1 0x64 ADD SWAP1 REVERT JUMPDEST PUSH1 0x0 DUP1 JUMPDEST DUP3 MLOAD DUP2 LT ISZERO PUSH2 0xB15 JUMPI PUSH2 0xB00 DUP5 DUP5 DUP4 DUP2 MLOAD DUP2 LT PUSH2 0xAF3 JUMPI INVALID JUMPDEST PUSH1 0x20 MUL PUSH1 0x20 ADD ADD MLOAD PUSH2 0x21E5 JUMP JUMPDEST POP PUSH2 0xB0B DUP3 DUP6 PUSH2 0x24AC JUMP JUMPDEST SWAP2 POP PUSH1 0x1 ADD PUSH2 0xADA JUMP JUMPDEST POP PUSH1 0x66 SLOAD PUSH2 0xB2E SWAP1 PUSH1 0x1 PUSH1 0x1 PUSH1 0xA0 SHL SUB AND CALLER ADDRESS DUP5 PUSH2 0x244C JUMP JUMPDEST PUSH1 0x40 DUP1 MLOAD DUP3 DUP2 MSTORE SWAP1 MLOAD CALLER SWAP2 PUSH32 0x96C35AD1CC1743F26CB87980C38042DE8082358EC6D171A7986D6E11DDDFE857 SWAP2 SWAP1 DUP2 SWAP1 SUB PUSH1 0x20 ADD SWAP1 LOG2 POP POP POP JUMP JUMPDEST PUSH1 0x6D PUSH1 0x20 SWAP1 DUP2 MSTORE PUSH1 0x0 SWAP3 DUP4 MSTORE PUSH1 0x40 DUP1 DUP5 KECCAK256 SWAP1 SWAP2 MSTORE SWAP1 DUP3 MSTORE SWAP1 KECCAK256 SLOAD DUP2 JUMP JUMPDEST PUSH1 0x68 SLOAD PUSH1 0x1 PUSH1 0x1 PUSH1 0xA0 SHL SUB AND CALLER EQ PUSH2 0xBD3 JUMPI PUSH1 0x40 DUP1 MLOAD PUSH3 0x461BCD PUSH1 0xE5 SHL DUP2 MSTORE PUSH1 0x20 PUSH1 0x4 DUP3 ADD MSTORE PUSH1 0xB PUSH1 0x24 DUP3 ADD MSTORE PUSH11 0x61646D696E3A207775743F PUSH1 0xA8 SHL PUSH1 0x44 DUP3 ADD MSTORE SWAP1 MLOAD SWAP1 DUP2 SWAP1 SUB PUSH1 0x64 ADD SWAP1 REVERT JUMPDEST PUSH1 0x68 DUP1 SLOAD PUSH1 0xFF DUP4 AND PUSH1 0x1 PUSH1 0xA0 SHL DUP2 MUL PUSH1 0xFF PUSH1 0xA0 SHL NOT SWAP1 SWAP3 AND SWAP2 SWAP1 SWAP2 OR SWAP1 SWAP2 SSTORE PUSH1 0x40 DUP1 MLOAD SWAP2 DUP3 MSTORE MLOAD CALLER SWAP2 PUSH32 0x506D53B52BC18BC1700B98DA33AF73E7E3AC7EAB9DC8CCDC73F311B91E17443F SWAP2 SWAP1 DUP2 SWAP1 SUB PUSH1 0x20 ADD SWAP1 LOG2 POP JUMP JUMPDEST PUSH1 0x68 SLOAD PUSH1 0x1 PUSH1 0xA0 SHL SWAP1 DIV PUSH1 0xFF AND DUP2 JUMP JUMPDEST PUSH1 0x74 SLOAD PUSH1 0xFF AND DUP2 JUMP JUMPDEST PUSH1 0x73 DUP2 PUSH1 0x4 DUP2 LT PUSH2 0xC50 JUMPI INVALID JUMPDEST PUSH1 0x20 SWAP2 DUP3 DUP3 DIV ADD SWAP2 SWAP1 MOD SWAP2 POP SLOAD SWAP1 PUSH2 0x100 EXP SWAP1 DIV PUSH1 0xFF AND DUP2 JUMP JUMPDEST PUSH1 0x0 DUP1 JUMPDEST DUP3 MLOAD DUP2 LT ISZERO PUSH2 0xE52 JUMPI PUSH1 0x67 SLOAD DUP4 MLOAD PUSH1 0x1 PUSH1 0x1 PUSH1 0xA0 SHL SUB SWAP1 SWAP2 AND SWAP1 PUSH4 0x6352211E SWAP1 DUP6 SWAP1 DUP5 SWAP1 DUP2 LT PUSH2 0xC9A JUMPI INVALID JUMPDEST PUSH1 0x20 MUL PUSH1 0x20 ADD ADD MLOAD PUSH1 0x40 MLOAD DUP3 PUSH4 0xFFFFFFFF AND PUSH1 0xE0 SHL DUP2 MSTORE PUSH1 0x4 ADD DUP1 DUP3 DUP2 MSTORE PUSH1 0x20 ADD SWAP2 POP POP PUSH1 0x20 PUSH1 0x40 MLOAD DUP1 DUP4 SUB DUP2 DUP7 DUP1 EXTCODESIZE ISZERO DUP1 ISZERO PUSH2 0xCD6 JUMPI PUSH1 0x0 DUP1 REVERT JUMPDEST POP GAS STATICCALL ISZERO DUP1 ISZERO PUSH2 0xCEA JUMPI RETURNDATASIZE PUSH1 0x0 DUP1 RETURNDATACOPY RETURNDATASIZE PUSH1 0x0 REVERT JUMPDEST POP POP POP POP PUSH1 0x40 MLOAD RETURNDATASIZE PUSH1 0x20 DUP2 LT ISZERO PUSH2 0xD00 JUMPI PUSH1 0x0 DUP1 REVERT JUMPDEST POP MLOAD PUSH1 0x1 PUSH1 0x1 PUSH1 0xA0 SHL SUB AND CALLER EQ PUSH2 0xD4F JUMPI PUSH1 0x40 DUP1 MLOAD PUSH3 0x461BCD PUSH1 0xE5 SHL DUP2 MSTORE PUSH1 0x20 PUSH1 0x4 DUP3 ADD MSTORE PUSH1 0xE PUSH1 0x24 DUP3 ADD MSTORE PUSH14 0x3737BA10333937B69037BBB732B9 PUSH1 0x91 SHL PUSH1 0x44 DUP3 ADD MSTORE SWAP1 MLOAD SWAP1 DUP2 SWAP1 SUB PUSH1 0x64 ADD SWAP1 REVERT JUMPDEST PUSH1 0x67 SLOAD DUP4 MLOAD PUSH1 0x1 PUSH1 0x1 PUSH1 0xA0 SHL SUB SWAP1 SWAP2 AND SWAP1 PUSH4 0x36DBD2F9 SWAP1 DUP6 SWAP1 DUP5 SWAP1 DUP2 LT PUSH2 0xD72 JUMPI INVALID JUMPDEST PUSH1 0x20 MUL PUSH1 0x20 ADD ADD MLOAD PUSH1 0x40 MLOAD DUP3 PUSH4 0xFFFFFFFF AND PUSH1 0xE0 SHL DUP2 MSTORE PUSH1 0x4 ADD DUP1 DUP3 DUP2 MSTORE PUSH1 0x20 ADD SWAP2 POP POP PUSH1 0x20 PUSH1 0x40 MLOAD DUP1 DUP4 SUB DUP2 DUP7 DUP1 EXTCODESIZE ISZERO DUP1 ISZERO PUSH2 0xDAE JUMPI PUSH1 0x0 DUP1 REVERT JUMPDEST POP GAS STATICCALL ISZERO DUP1 ISZERO PUSH2 0xDC2 JUMPI RETURNDATASIZE PUSH1 0x0 DUP1 RETURNDATACOPY RETURNDATASIZE PUSH1 0x0 REVERT JUMPDEST POP POP POP POP PUSH1 0x40 MLOAD RETURNDATASIZE PUSH1 0x20 DUP2 LT ISZERO PUSH2 0xDD8 JUMPI PUSH1 0x0 DUP1 REVERT JUMPDEST POP MLOAD ISZERO PUSH2 0xE16 JUMPI PUSH1 0x40 DUP1 MLOAD PUSH3 0x461BCD PUSH1 0xE5 SHL DUP2 MSTORE PUSH1 0x20 PUSH1 0x4 DUP3 ADD MSTORE PUSH1 0x7 PUSH1 0x24 DUP3 ADD MSTORE PUSH7 0x18DB185A5B5959 PUSH1 0xCA SHL PUSH1 0x44 DUP3 ADD MSTORE SWAP1 MLOAD SWAP1 DUP2 SWAP1 SUB PUSH1 0x64 ADD SWAP1 REVERT JUMPDEST PUSH1 0x0 PUSH2 0xE34 DUP5 DUP4 DUP2 MLOAD DUP2 LT PUSH2 0xE27 JUMPI INVALID JUMPDEST PUSH1 0x20 MUL PUSH1 0x20 ADD ADD MLOAD PUSH2 0x1AE6 JUMP JUMPDEST SWAP1 POP DUP1 ISZERO PUSH2 0xE49 JUMPI PUSH2 0xE46 DUP2 DUP5 PUSH2 0x24AC JUMP JUMPDEST SWAP3 POP JUMPDEST POP PUSH1 0x1 ADD PUSH2 0xC6E JUMP JUMPDEST POP PUSH1 0x67 SLOAD PUSH1 0x40 MLOAD PUSH4 0x74310355 PUSH1 0xE0 SHL DUP2 MSTORE PUSH1 0x20 PUSH1 0x4 DUP3 ADD DUP2 DUP2 MSTORE DUP6 MLOAD PUSH1 0x24 DUP5 ADD MSTORE DUP6 MLOAD PUSH1 0x1 PUSH1 0x1 PUSH1 0xA0 SHL SUB SWAP1 SWAP5 AND SWAP4 PUSH4 0x74310355 SWAP4 DUP8 SWAP4 DUP4 SWAP3 PUSH1 0x44 SWAP1 SWAP3 ADD SWAP2 DUP2 DUP7 ADD SWAP2 MUL DUP1 DUP4 DUP4 PUSH1 0x0 JUMPDEST DUP4 DUP2 LT ISZERO PUSH2 0xEB4 JUMPI DUP2 DUP2 ADD MLOAD DUP4 DUP3 ADD MSTORE PUSH1 0x20 ADD PUSH2 0xE9C JUMP JUMPDEST POP POP POP POP SWAP1 POP ADD SWAP3 POP POP POP PUSH1 0x0 PUSH1 0x40 MLOAD DUP1 DUP4 SUB DUP2 PUSH1 0x0 DUP8 DUP1 EXTCODESIZE ISZERO DUP1 ISZERO PUSH2 0xED9 JUMPI PUSH1 0x0 DUP1 REVERT JUMPDEST POP GAS CALL ISZERO DUP1 ISZERO PUSH2 0xEED JUMPI RETURNDATASIZE PUSH1 0x0 DUP1 RETURNDATACOPY RETURNDATASIZE PUSH1 0x0 REVERT JUMPDEST POP POP POP POP PUSH1 0x0 DUP2 GT ISZERO PUSH2 0xF04 JUMPI PUSH2 0xF04 CALLER DUP3 PUSH2 0x250D JUMP JUMPDEST PUSH1 0x40 DUP1 MLOAD DUP3 DUP2 MSTORE SWAP1 MLOAD CALLER SWAP2 PUSH32 0x6606374655494F5C0E2D6F392656E9777AFD9AC5F61527D1BCAD50B7E918A03E SWAP2 SWAP1 DUP2 SWAP1 SUB PUSH1 0x20 ADD SWAP1 LOG2 POP POP JUMP JUMPDEST PUSH1 0x0 PUSH1 0x6F SLOAD DUP3 GT ISZERO PUSH2 0xF93 JUMPI PUSH1 0x40 DUP1 MLOAD PUSH3 0x461BCD PUSH1 0xE5 SHL DUP2 MSTORE PUSH1 0x20 PUSH1 0x4 DUP3 ADD MSTORE PUSH1 0x19 PUSH1 0x24 DUP3 ADD MSTORE PUSH25 0xBED2E6E6EACA92DCC8CAF040787A40D2E6E6EACA92DCC8CAF PUSH1 0x3B SHL PUSH1 0x44 DUP3 ADD MSTORE SWAP1 MLOAD SWAP1 DUP2 SWAP1 SUB PUSH1 0x64 ADD SWAP1 REVERT JUMPDEST PUSH2 0xF9B PUSH2 0x20C5 JUMP JUMPDEST ISZERO DUP1 ISZERO PUSH2 0xFA9 JUMPI POP PUSH1 0x6F SLOAD DUP3 EQ JUMPDEST ISZERO PUSH2 0xFB7 JUMPI POP PUSH1 0x71 SLOAD PUSH2 0xFDE JUMP JUMPDEST PUSH1 0x0 DUP3 DUP2 MSTORE PUSH1 0x6C PUSH1 0x20 MSTORE PUSH1 0x40 DUP2 KECCAK256 DUP1 SLOAD SWAP1 SWAP2 SWAP1 PUSH2 0xFD0 JUMPI INVALID JUMPDEST SWAP1 PUSH1 0x0 MSTORE PUSH1 0x20 PUSH1 0x0 KECCAK256 ADD SLOAD SWAP1 POP JUMPDEST SWAP2 SWAP1 POP JUMP JUMPDEST PUSH2 0xFEB PUSH2 0x315F JUMP JUMPDEST PUSH1 0x60 DUP3 ADD MLOAD PUSH1 0x40 DUP4 ADD MLOAD PUSH1 0x20 DUP5 ADD MLOAD DUP5 MLOAD PUSH1 0xFF PUSH1 0x8 SWAP4 SWAP1 SWAP4 SHL PUSH2 0xFF00 AND PUSH1 0x10 SWAP3 SWAP1 SWAP3 SHL PUSH3 0xFF0000 AND PUSH1 0x18 SWAP2 SWAP1 SWAP2 SHL PUSH4 0xFF000000 AND ADD ADD SWAP1 SWAP2 ADD AND PUSH2 0x102D PUSH2 0x315F JUMP JUMPDEST PUSH4 0xFFFFFFFF DUP3 AND DUP2 MSTORE PUSH3 0xFFFFFF DUP3 AND PUSH1 0x20 DUP3 ADD MSTORE PUSH4 0xFF00FFFF DUP3 AND PUSH1 0x40 DUP3 ADD MSTORE PUSH4 0xFFFF00FF DUP3 AND PUSH1 0x60 DUP3 ADD MSTORE PUSH4 0xFFFFFF00 DUP3 AND PUSH1 0x80 DUP3 ADD MSTORE PUSH2 0xFFFF DUP3 AND PUSH1 0xA0 DUP3 ADD MSTORE PUSH3 0xFF00FF DUP3 AND PUSH1 0xC0 DUP3 ADD MSTORE PUSH3 0xFFFF00 DUP3 AND PUSH1 0xE0 DUP3 ADD MSTORE PUSH4 0xFF0000FF DUP3 AND PUSH2 0x100 DUP3 ADD MSTORE PUSH4 0xFF00FF00 DUP3 AND PUSH2 0x120 DUP3 ADD MSTORE PUSH4 0xFFFF0000 SWAP1 SWAP2 AND PUSH2 0x140 DUP3 ADD MSTORE SWAP3 SWAP2 POP POP JUMP JUMPDEST PUSH1 0x6A PUSH1 0x20 MSTORE DUP2 PUSH1 0x0 MSTORE PUSH1 0x40 PUSH1 0x0 KECCAK256 DUP2 PUSH1 0x4 DUP2 LT PUSH2 0x10CC JUMPI INVALID JUMPDEST PUSH1 0x20 DUP2 DIV SWAP1 SWAP2 ADD SLOAD PUSH1 0xFF PUSH1 0x1F SWAP1 SWAP3 AND PUSH2 0x100 EXP SWAP1 DIV AND SWAP2 POP DUP3 SWAP1 POP JUMP JUMPDEST PUSH1 0x68 SLOAD PUSH1 0x1 PUSH1 0x1 PUSH1 0xA0 SHL SUB AND CALLER EQ PUSH2 0x1136 JUMPI PUSH1 0x40 DUP1 MLOAD PUSH3 0x461BCD PUSH1 0xE5 SHL DUP2 MSTORE PUSH1 0x20 PUSH1 0x4 DUP3 ADD MSTORE PUSH1 0xB PUSH1 0x24 DUP3 ADD MSTORE PUSH11 0x61646D696E3A207775743F PUSH1 0xA8 SHL PUSH1 0x44 DUP3 ADD MSTORE SWAP1 MLOAD SWAP1 DUP2 SWAP1 SUB PUSH1 0x64 ADD SWAP1 REVERT JUMPDEST PUSH1 0x40 DUP1 MLOAD PUSH1 0x60 DUP2 ADD DUP3 MSTORE PUSH1 0xFF DUP1 DUP7 AND DUP3 MSTORE DUP5 DUP2 AND PUSH1 0x20 DUP4 ADD MSTORE DUP4 AND SWAP2 DUP2 ADD SWAP2 SWAP1 SWAP2 MSTORE PUSH2 0x1166 SWAP1 PUSH1 0x65 SWAP1 PUSH1 0x3 PUSH2 0x317E JUMP JUMPDEST POP PUSH1 0x40 DUP1 MLOAD PUSH1 0xFF DUP1 DUP7 AND DUP3 MSTORE DUP1 DUP6 AND PUSH1 0x20 DUP4 ADD MSTORE DUP4 AND DUP2 DUP4 ADD MSTORE SWAP1 MLOAD CALLER SWAP2 PUSH32 0x84866AC1C2208396290FE35A38F78993AA38FA5F458AD832D768E4AC6D18FA3 SWAP2 SWAP1 DUP2 SWAP1 SUB PUSH1 0x60 ADD SWAP1 LOG2 POP POP POP JUMP JUMPDEST PUSH1 0x68 SLOAD PUSH1 0x1 PUSH1 0x1 PUSH1 0xA0 SHL SUB AND CALLER EQ PUSH2 0x1201 JUMPI PUSH1 0x40 DUP1 MLOAD PUSH3 0x461BCD PUSH1 0xE5 SHL DUP2 MSTORE PUSH1 0x20 PUSH1 0x4 DUP3 ADD MSTORE PUSH1 0xB PUSH1 0x24 DUP3 ADD MSTORE PUSH11 0x61646D696E3A207775743F PUSH1 0xA8 SHL PUSH1 0x44 DUP3 ADD MSTORE SWAP1 MLOAD SWAP1 DUP2 SWAP1 SUB PUSH1 0x64 ADD SWAP1 REVERT JUMPDEST PUSH1 0x69 DUP2 SWAP1 SSTORE PUSH1 0x40 DUP1 MLOAD DUP3 DUP2 MSTORE SWAP1 MLOAD CALLER SWAP2 PUSH32 0x84CB1BB9F2CF0BBE5DE6714C4B085E5ACE133558133F8EA973B7B3177996CE81 SWAP2 SWAP1 DUP2 SWAP1 SUB PUSH1 0x20 ADD SWAP1 LOG2 POP JUMP JUMPDEST PUSH1 0x6B PUSH1 0x20 MSTORE DUP2 PUSH1 0x0 MSTORE PUSH1 0x40 PUSH1 0x0 KECCAK256 DUP2 DUP2 SLOAD DUP2 LT PUSH2 0xA1A JUMPI INVALID JUMPDEST PUSH1 0x6F SLOAD DUP2 JUMP JUMPDEST PUSH2 0x1266 PUSH2 0x269E JUMP JUMPDEST PUSH1 0x1 PUSH1 0x1 PUSH1 0xA0 SHL SUB AND PUSH2 0x1277 PUSH2 0x1463 JUMP JUMPDEST PUSH1 0x1 PUSH1 0x1 PUSH1 0xA0 SHL SUB AND EQ PUSH2 0x12C0 JUMPI PUSH1 0x40 DUP1 MLOAD PUSH3 0x461BCD PUSH1 0xE5 SHL DUP2 MSTORE PUSH1 0x20 PUSH1 0x4 DUP3 ADD DUP2 SWAP1 MSTORE PUSH1 0x24 DUP3 ADD MSTORE PUSH1 0x0 DUP1 MLOAD PUSH1 0x20 PUSH2 0x339D DUP4 CODECOPY DUP2 MLOAD SWAP2 MSTORE PUSH1 0x44 DUP3 ADD MSTORE SWAP1 MLOAD SWAP1 DUP2 SWAP1 SUB PUSH1 0x64 ADD SWAP1 REVERT JUMPDEST PUSH1 0x1 PUSH1 0x1 PUSH1 0xA0 SHL SUB DUP2 AND PUSH2 0x12D3 JUMPI PUSH1 0x0 DUP1 REVERT JUMPDEST PUSH1 0x68 DUP1 SLOAD PUSH1 0x1 PUSH1 0x1 PUSH1 0xA0 SHL SUB NOT AND PUSH1 0x1 PUSH1 0x1 PUSH1 0xA0 SHL SUB DUP4 AND SWAP1 DUP2 OR SWAP1 SWAP2 SSTORE PUSH1 0x40 MLOAD CALLER SWAP1 PUSH32 0x848AC24AB84501710D6631FAAB117B66B79ABA7EC6F7778CF3BCFF428C1A4EFC SWAP1 PUSH1 0x0 SWAP1 LOG3 POP JUMP JUMPDEST PUSH2 0x1327 PUSH2 0x269E JUMP JUMPDEST PUSH1 0x1 PUSH1 0x1 PUSH1 0xA0 SHL SUB AND PUSH2 0x1338 PUSH2 0x1463 JUMP JUMPDEST PUSH1 0x1 PUSH1 0x1 PUSH1 0xA0 SHL SUB AND EQ PUSH2 0x1381 JUMPI PUSH1 0x40 DUP1 MLOAD PUSH3 0x461BCD PUSH1 0xE5 SHL DUP2 MSTORE PUSH1 0x20 PUSH1 0x4 DUP3 ADD DUP2 SWAP1 MSTORE PUSH1 0x24 DUP3 ADD MSTORE PUSH1 0x0 DUP1 MLOAD PUSH1 0x20 PUSH2 0x339D DUP4 CODECOPY DUP2 MLOAD SWAP2 MSTORE PUSH1 0x44 DUP3 ADD MSTORE SWAP1 MLOAD SWAP1 DUP2 SWAP1 SUB PUSH1 0x64 ADD SWAP1 REVERT JUMPDEST PUSH1 0x33 SLOAD PUSH1 0x40 MLOAD PUSH1 0x0 SWAP2 PUSH1 0x1 PUSH1 0x1 PUSH1 0xA0 SHL SUB AND SWAP1 PUSH1 0x0 DUP1 MLOAD PUSH1 0x20 PUSH2 0x33BD DUP4 CODECOPY DUP2 MLOAD SWAP2 MSTORE SWAP1 DUP4 SWAP1 LOG3 PUSH1 0x33 DUP1 SLOAD PUSH1 0x1 PUSH1 0x1 PUSH1 0xA0 SHL SUB NOT AND SWAP1 SSTORE JUMP JUMPDEST PUSH1 0x68 SLOAD PUSH1 0x1 PUSH1 0x1 PUSH1 0xA0 SHL SUB AND CALLER EQ PUSH2 0x1406 JUMPI PUSH1 0x40 DUP1 MLOAD PUSH3 0x461BCD PUSH1 0xE5 SHL DUP2 MSTORE PUSH1 0x20 PUSH1 0x4 DUP3 ADD MSTORE PUSH1 0xB PUSH1 0x24 DUP3 ADD MSTORE PUSH11 0x61646D696E3A207775743F PUSH1 0xA8 SHL PUSH1 0x44 DUP3 ADD MSTORE SWAP1 MLOAD SWAP1 DUP2 SWAP1 SUB PUSH1 0x64 ADD SWAP1 REVERT JUMPDEST PUSH1 0x66 SLOAD PUSH2 0x141D SWAP1 PUSH1 0x1 PUSH1 0x1 PUSH1 0xA0 SHL SUB AND CALLER DUP4 PUSH2 0x26A2 JUMP JUMPDEST PUSH1 0x40 DUP1 MLOAD DUP3 DUP2 MSTORE SWAP1 MLOAD CALLER SWAP2 PUSH32 0x50D1C64CC22CE461B9BC14F6B73852566DA02B03C155242BC63169D1FEC42AA SWAP2 SWAP1 DUP2 SWAP1 SUB PUSH1 0x20 ADD SWAP1 LOG2 POP JUMP JUMPDEST PUSH1 0x65 DUP2 PUSH1 0x3 DUP2 LT PUSH2 0xC50 JUMPI INVALID JUMPDEST PUSH1 0x33 SLOAD PUSH1 0x1 PUSH1 0x1 PUSH1 0xA0 SHL SUB AND SWAP1 JUMP JUMPDEST PUSH1 0x68 SLOAD PUSH1 0x1 PUSH1 0x1 PUSH1 0xA0 SHL SUB AND CALLER EQ PUSH2 0x14BF JUMPI PUSH1 0x40 DUP1 MLOAD PUSH3 0x461BCD PUSH1 0xE5 SHL DUP2 MSTORE PUSH1 0x20 PUSH1 0x4 DUP3 ADD MSTORE PUSH1 0xB PUSH1 0x24 DUP3 ADD MSTORE PUSH11 0x61646D696E3A207775743F PUSH1 0xA8 SHL PUSH1 0x44 DUP3 ADD MSTORE SWAP1 MLOAD SWAP1 DUP2 SWAP1 SUB PUSH1 0x64 ADD SWAP1 REVERT JUMPDEST PUSH2 0x14C7 PUSH2 0x20C5 JUMP JUMPDEST ISZERO PUSH2 0x1502 JUMPI PUSH1 0x40 DUP1 MLOAD PUSH3 0x461BCD PUSH1 0xE5 SHL DUP2 MSTORE PUSH1 0x20 PUSH1 0x4 DUP3 ADD MSTORE PUSH1 0x6 PUSH1 0x24 DUP3 ADD MSTORE PUSH6 0x72657365743F PUSH1 0xD0 SHL PUSH1 0x44 DUP3 ADD MSTORE SWAP1 MLOAD SWAP1 DUP2 SWAP1 SUB PUSH1 0x64 ADD SWAP1 REVERT JUMPDEST PUSH1 0x74 SLOAD PUSH1 0xFF AND PUSH2 0x1555 JUMPI PUSH1 0x40 DUP1 MLOAD PUSH3 0x461BCD PUSH1 0xE5 SHL DUP2 MSTORE PUSH1 0x20 PUSH1 0x4 DUP3 ADD MSTORE PUSH1 0x19 PUSH1 0x24 DUP3 ADD MSTORE PUSH25 0x195B9D195C88191C985DDA5B99C81C1A185CD948199A5C9CDD PUSH1 0x3A SHL PUSH1 0x44 DUP3 ADD MSTORE SWAP1 MLOAD SWAP1 DUP2 SWAP1 SUB PUSH1 0x64 ADD SWAP1 REVERT JUMPDEST PUSH1 0x68 SLOAD PUSH1 0x0 SWAP1 DUP2 SWAP1 PUSH1 0x1 PUSH1 0xA0 SHL SWAP1 DIV PUSH1 0xFF AND NUMBER PUSH1 0x0 NOT ADD BLOCKHASH DUP3 JUMPDEST PUSH1 0xA DUP2 LT ISZERO PUSH2 0x158C JUMPI PUSH2 0x1583 PUSH1 0x6F SLOAD PUSH2 0xF3E JUMP JUMPDEST POP PUSH1 0x1 ADD PUSH2 0x156F JUMP JUMPDEST POP PUSH1 0x0 GAS PUSH1 0x70 SLOAD PUSH1 0x40 DUP1 MLOAD PUSH1 0x20 DUP1 DUP3 ADD DUP8 SWAP1 MSTORE DUP2 DUP4 ADD SWAP4 SWAP1 SWAP4 MSTORE PUSH1 0x60 DUP2 ADD DUP5 SWAP1 MSTORE PUSH1 0x80 DUP1 DUP3 ADD DUP12 SWAP1 MSTORE DUP3 MLOAD DUP1 DUP4 SUB SWAP1 SWAP2 ADD DUP2 MSTORE PUSH1 0xA0 DUP3 ADD DUP4 MSTORE DUP1 MLOAD SWAP1 DUP5 ADD KECCAK256 PUSH1 0x73 DUP1 SLOAD PUSH1 0x71 SLOAD PUSH1 0xC0 DUP6 ADD DUP11 SWAP1 MSTORE PUSH1 0xE0 DUP6 ADD MSTORE PUSH2 0x100 DUP1 DUP6 ADD DUP9 SWAP1 MSTORE PUSH2 0x120 DUP1 DUP7 ADD DUP16 SWAP1 MSTORE DUP7 MLOAD DUP1 DUP8 SUB SWAP1 SWAP2 ADD DUP2 MSTORE PUSH2 0x140 DUP7 ADD DUP8 MSTORE DUP1 MLOAD SWAP1 DUP9 ADD KECCAK256 DUP12 SWAP1 MOD PUSH1 0x1 SWAP1 DUP2 ADD PUSH1 0xFF SWAP1 DUP2 AND SWAP1 SWAP3 MUL PUSH2 0xFF00 NOT PUSH1 0xFF NOT SWAP1 SWAP5 AND SWAP6 DUP14 SWAP1 MOD DUP3 ADD SWAP1 SWAP3 AND SWAP5 SWAP1 SWAP5 OR SWAP2 SWAP1 SWAP2 AND OR DUP2 SSTORE PUSH1 0x72 SLOAD PUSH2 0x160 DUP5 ADD DUP10 SWAP1 MSTORE PUSH2 0x180 DUP5 ADD MSTORE PUSH2 0x1A0 DUP4 ADD DUP7 SWAP1 MSTORE PUSH2 0x1C0 DUP1 DUP5 ADD DUP14 SWAP1 MSTORE DUP5 MLOAD DUP1 DUP6 SUB SWAP1 SWAP2 ADD DUP2 MSTORE PUSH2 0x1E0 SWAP1 SWAP4 ADD SWAP1 SWAP4 MSTORE DUP2 MLOAD SWAP2 SWAP1 SWAP4 ADD KECCAK256 SWAP8 POP DUP6 DUP9 MOD SWAP1 SWAP2 ADD SWAP6 POP SWAP1 SWAP2 POP DUP5 SWAP1 PUSH1 0x2 PUSH1 0x20 SWAP2 DUP3 DUP3 DIV ADD SWAP2 SWAP1 MOD PUSH2 0x100 EXP DUP2 SLOAD DUP2 PUSH1 0xFF MUL NOT AND SWAP1 DUP4 PUSH1 0xFF AND MUL OR SWAP1 SSTORE POP DUP2 DUP2 DUP8 PUSH1 0x40 MLOAD PUSH1 0x20 ADD DUP1 DUP5 DUP2 MSTORE PUSH1 0x20 ADD DUP4 DUP2 MSTORE PUSH1 0x20 ADD DUP3 DUP2 MSTORE PUSH1 0x20 ADD SWAP4 POP POP POP POP PUSH1 0x40 MLOAD PUSH1 0x20 DUP2 DUP4 SUB SUB DUP2 MSTORE SWAP1 PUSH1 0x40 MSTORE DUP1 MLOAD SWAP1 PUSH1 0x20 ADD KECCAK256 SWAP5 POP DUP5 PUSH1 0x0 SHR SWAP4 POP PUSH1 0x1 DUP4 DUP6 MOD ADD SWAP4 POP DUP4 PUSH1 0x73 PUSH1 0x3 PUSH1 0x4 DUP2 LT PUSH2 0x16F8 JUMPI INVALID JUMPDEST PUSH1 0x20 SWAP2 DUP3 DUP3 DIV ADD SWAP2 SWAP1 MOD PUSH2 0x100 EXP DUP2 SLOAD DUP2 PUSH1 0xFF MUL NOT AND SWAP1 DUP4 PUSH1 0xFF AND MUL OR SWAP1 SSTORE POP PUSH1 0x73 PUSH1 0x6A PUSH1 0x0 PUSH1 0x6F SLOAD DUP2 MSTORE PUSH1 0x20 ADD SWAP1 DUP2 MSTORE PUSH1 0x20 ADD PUSH1 0x0 KECCAK256 SWAP1 PUSH1 0x4 PUSH2 0x173D SWAP3 SWAP2 SWAP1 PUSH2 0x3211 JUMP JUMPDEST POP PUSH2 0x1746 PUSH2 0x26F4 JUMP JUMPDEST PUSH1 0x6F SLOAD PUSH1 0x0 SWAP1 DUP2 MSTORE PUSH1 0x6C PUSH1 0x20 MSTORE PUSH1 0x40 SWAP1 KECCAK256 PUSH2 0x1762 SWAP2 PUSH1 0x4 PUSH2 0x3244 JUMP JUMPDEST POP PUSH1 0x74 DUP1 SLOAD PUSH1 0xFF NOT AND SWAP1 SSTORE PUSH1 0x6F SLOAD PUSH1 0x40 MLOAD PUSH32 0xA13E935B188993737B3009D62BD916DCBE9E82D8236D75981EEADF26A1460D3D SWAP1 PUSH1 0x73 SWAP1 PUSH1 0x80 DUP2 ADD DUP3 PUSH1 0x0 DUP4 JUMPDEST DUP3 SLOAD PUSH2 0x100 DUP4 SWAP1 EXP SWAP1 DIV PUSH1 0xFF AND DUP2 MSTORE PUSH1 0x20 PUSH1 0x1 SWAP3 DUP4 ADD DUP2 DUP2 DIV SWAP5 DUP6 ADD SWAP5 SWAP1 SWAP4 SUB SWAP1 SWAP3 MUL SWAP2 ADD DUP1 DUP5 GT PUSH2 0x17A1 JUMPI SWAP1 POP POP POP SWAP2 POP POP PUSH1 0x40 MLOAD DUP1 SWAP2 SUB SWAP1 LOG2 POP POP POP POP POP POP JUMP JUMPDEST PUSH1 0x67 SLOAD PUSH1 0x40 DUP1 MLOAD PUSH4 0x31A9108F PUSH1 0xE1 SHL DUP2 MSTORE PUSH1 0x4 DUP2 ADD DUP5 SWAP1 MSTORE SWAP1 MLOAD PUSH1 0x1 PUSH1 0x1 PUSH1 0xA0 SHL SUB SWAP1 SWAP3 AND SWAP2 PUSH4 0x6352211E SWAP2 PUSH1 0x24 DUP1 DUP3 ADD SWAP3 PUSH1 0x20 SWAP3 SWAP1 SWAP2 SWAP1 DUP3 SWAP1 SUB ADD DUP2 DUP7 DUP1 EXTCODESIZE ISZERO DUP1 ISZERO PUSH2 0x1830 JUMPI PUSH1 0x0 DUP1 REVERT JUMPDEST POP GAS STATICCALL ISZERO DUP1 ISZERO PUSH2 0x1844 JUMPI RETURNDATASIZE PUSH1 0x0 DUP1 RETURNDATACOPY RETURNDATASIZE PUSH1 0x0 REVERT JUMPDEST POP POP POP POP PUSH1 0x40 MLOAD RETURNDATASIZE PUSH1 0x20 DUP2 LT ISZERO PUSH2 0x185A JUMPI PUSH1 0x0 DUP1 REVERT JUMPDEST POP MLOAD PUSH1 0x1 PUSH1 0x1 PUSH1 0xA0 SHL SUB AND CALLER EQ PUSH2 0x18A9 JUMPI PUSH1 0x40 DUP1 MLOAD PUSH3 0x461BCD PUSH1 0xE5 SHL DUP2 MSTORE PUSH1 0x20 PUSH1 0x4 DUP3 ADD MSTORE PUSH1 0xE PUSH1 0x24 DUP3 ADD MSTORE PUSH14 0x3737BA10333937B69037BBB732B9 PUSH1 0x91 SHL PUSH1 0x44 DUP3 ADD MSTORE SWAP1 MLOAD SWAP1 DUP2 SWAP1 SUB PUSH1 0x64 ADD SWAP1 REVERT JUMPDEST PUSH1 0x67 SLOAD PUSH1 0x40 DUP1 MLOAD PUSH4 0x36DBD2F9 PUSH1 0xE0 SHL DUP2 MSTORE PUSH1 0x4 DUP2 ADD DUP5 SWAP1 MSTORE SWAP1 MLOAD PUSH1 0x1 PUSH1 0x1 PUSH1 0xA0 SHL SUB SWAP1 SWAP3 AND SWAP2 PUSH4 0x36DBD2F9 SWAP2 PUSH1 0x24 DUP1 DUP3 ADD SWAP3 PUSH1 0x20 SWAP3 SWAP1 SWAP2 SWAP1 DUP3 SWAP1 SUB ADD DUP2 DUP7 DUP1 EXTCODESIZE ISZERO DUP1 ISZERO PUSH2 0x18F5 JUMPI PUSH1 0x0 DUP1 REVERT JUMPDEST POP GAS STATICCALL ISZERO DUP1 ISZERO PUSH2 0x1909 JUMPI RETURNDATASIZE PUSH1 0x0 DUP1 RETURNDATACOPY RETURNDATASIZE PUSH1 0x0 REVERT JUMPDEST POP POP POP POP PUSH1 0x40 MLOAD RETURNDATASIZE PUSH1 0x20 DUP2 LT ISZERO PUSH2 0x191F JUMPI PUSH1 0x0 DUP1 REVERT JUMPDEST POP MLOAD ISZERO PUSH2 0x195D JUMPI PUSH1 0x40 DUP1 MLOAD PUSH3 0x461BCD PUSH1 0xE5 SHL DUP2 MSTORE PUSH1 0x20 PUSH1 0x4 DUP3 ADD MSTORE PUSH1 0x7 PUSH1 0x24 DUP3 ADD MSTORE PUSH7 0x18DB185A5B5959 PUSH1 0xCA SHL PUSH1 0x44 DUP3 ADD MSTORE SWAP1 MLOAD SWAP1 DUP2 SWAP1 SUB PUSH1 0x64 ADD SWAP1 REVERT JUMPDEST PUSH1 0x0 PUSH2 0x1968 DUP3 PUSH2 0x1AE6 JUMP JUMPDEST PUSH1 0x67 SLOAD PUSH1 0x40 DUP1 MLOAD PUSH4 0xAE169A5 PUSH1 0xE4 SHL DUP2 MSTORE PUSH1 0x4 DUP2 ADD DUP7 SWAP1 MSTORE SWAP1 MLOAD SWAP3 SWAP4 POP PUSH1 0x1 PUSH1 0x1 PUSH1 0xA0 SHL SUB SWAP1 SWAP2 AND SWAP2 PUSH4 0xAE169A50 SWAP2 PUSH1 0x24 DUP1 DUP3 ADD SWAP3 PUSH1 0x0 SWAP3 SWAP1 SWAP2 SWAP1 DUP3 SWAP1 SUB ADD DUP2 DUP4 DUP8 DUP1 EXTCODESIZE ISZERO DUP1 ISZERO PUSH2 0x19B8 JUMPI PUSH1 0x0 DUP1 REVERT JUMPDEST POP GAS CALL ISZERO DUP1 ISZERO PUSH2 0x19CC JUMPI RETURNDATASIZE PUSH1 0x0 DUP1 RETURNDATACOPY RETURNDATASIZE PUSH1 0x0 REVERT JUMPDEST POP POP POP POP PUSH1 0x0 DUP2 GT ISZERO PUSH2 0x19E3 JUMPI PUSH2 0x19E3 CALLER DUP3 PUSH2 0x250D JUMP JUMPDEST PUSH1 0x40 DUP1 MLOAD DUP4 DUP2 MSTORE PUSH1 0x20 DUP2 ADD DUP4 SWAP1 MSTORE DUP2 MLOAD CALLER SWAP3 PUSH32 0x34FCBAC0073D7C3D388E51312FAF357774904998EEB8FCA628B9E6F65EE1CBF7 SWAP3 DUP3 SWAP1 SUB ADD SWAP1 LOG2 POP POP JUMP JUMPDEST PUSH1 0x66 SLOAD PUSH1 0x1 PUSH1 0x1 PUSH1 0xA0 SHL SUB AND DUP2 JUMP JUMPDEST PUSH1 0x6C PUSH1 0x20 MSTORE DUP2 PUSH1 0x0 MSTORE PUSH1 0x40 PUSH1 0x0 KECCAK256 DUP2 DUP2 SLOAD DUP2 LT PUSH2 0xA1A JUMPI INVALID JUMPDEST PUSH1 0x70 SLOAD DUP2 JUMP JUMPDEST PUSH1 0x0 PUSH1 0x2 DUP3 LT ISZERO DUP1 ISZERO PUSH2 0x1A63 JUMPI POP PUSH1 0x4 DUP3 GT ISZERO JUMPDEST PUSH2 0x1AB4 JUMPI PUSH1 0x40 DUP1 MLOAD PUSH3 0x461BCD PUSH1 0xE5 SHL DUP2 MSTORE PUSH1 0x20 PUSH1 0x4 DUP3 ADD DUP2 SWAP1 MSTORE PUSH1 0x24 DUP3 ADD MSTORE PUSH32 0x6765744D61746368696E67526577617264416D6F756E743A20494E56414C4944 PUSH1 0x44 DUP3 ADD MSTORE SWAP1 MLOAD SWAP1 DUP2 SWAP1 SUB PUSH1 0x64 ADD SWAP1 REVERT JUMPDEST PUSH1 0x0 DUP4 DUP2 MSTORE PUSH1 0x6C PUSH1 0x20 MSTORE PUSH1 0x40 SWAP1 KECCAK256 DUP1 SLOAD PUSH1 0x5 DUP5 SWAP1 SUB SWAP1 DUP2 LT PUSH2 0x1AD2 JUMPI INVALID JUMPDEST SWAP1 PUSH1 0x0 MSTORE PUSH1 0x20 PUSH1 0x0 KECCAK256 ADD SLOAD SWAP1 POP JUMPDEST SWAP3 SWAP2 POP POP JUMP JUMPDEST PUSH1 0x67 SLOAD PUSH1 0x40 DUP1 MLOAD PUSH4 0x1BF1E00F PUSH1 0xE0 SHL DUP2 MSTORE PUSH1 0x4 DUP2 ADD DUP5 SWAP1 MSTORE SWAP1 MLOAD PUSH1 0x0 SWAP3 DUP4 SWAP3 PUSH1 0x1 PUSH1 0x1 PUSH1 0xA0 SHL SUB SWAP1 SWAP2 AND SWAP2 PUSH4 0x1BF1E00F SWAP2 PUSH1 0x24 DUP1 DUP3 ADD SWAP3 PUSH1 0x20 SWAP3 SWAP1 SWAP2 SWAP1 DUP3 SWAP1 SUB ADD DUP2 DUP7 DUP1 EXTCODESIZE ISZERO DUP1 ISZERO PUSH2 0x1B37 JUMPI PUSH1 0x0 DUP1 REVERT JUMPDEST POP GAS STATICCALL ISZERO DUP1 ISZERO PUSH2 0x1B4B JUMPI RETURNDATASIZE PUSH1 0x0 DUP1 RETURNDATACOPY RETURNDATASIZE PUSH1 0x0 REVERT JUMPDEST POP POP POP POP PUSH1 0x40 MLOAD RETURNDATASIZE PUSH1 0x20 DUP2 LT ISZERO PUSH2 0x1B61 JUMPI PUSH1 0x0 DUP1 REVERT JUMPDEST POP MLOAD SWAP1 POP PUSH2 0x1B6D PUSH2 0x328B JUMP JUMPDEST PUSH1 0x67 SLOAD PUSH1 0x40 DUP1 MLOAD PUSH4 0x5F8E26A7 PUSH1 0xE0 SHL DUP2 MSTORE PUSH1 0x4 DUP2 ADD DUP8 SWAP1 MSTORE SWAP1 MLOAD PUSH1 0x1 PUSH1 0x1 PUSH1 0xA0 SHL SUB SWAP1 SWAP3 AND SWAP2 PUSH4 0x5F8E26A7 SWAP2 PUSH1 0x24 DUP1 DUP3 ADD SWAP3 PUSH1 0x80 SWAP3 SWAP1 SWAP2 SWAP1 DUP3 SWAP1 SUB ADD DUP2 DUP7 DUP1 EXTCODESIZE ISZERO DUP1 ISZERO PUSH2 0x1BB9 JUMPI PUSH1 0x0 DUP1 REVERT JUMPDEST POP GAS STATICCALL ISZERO DUP1 ISZERO PUSH2 0x1BCD JUMPI RETURNDATASIZE PUSH1 0x0 DUP1 RETURNDATACOPY RETURNDATASIZE PUSH1 0x0 REVERT JUMPDEST POP POP POP POP PUSH1 0x40 MLOAD RETURNDATASIZE PUSH1 0x1F NOT PUSH1 0x1F DUP3 ADD AND DUP3 ADD DUP1 PUSH1 0x40 MSTORE POP PUSH1 0x80 DUP2 LT ISZERO PUSH2 0x1BF2 JUMPI PUSH1 0x0 DUP1 REVERT JUMPDEST POP SWAP1 POP PUSH2 0x1BFD PUSH2 0x328B JUMP JUMPDEST PUSH1 0x0 DUP4 DUP2 MSTORE PUSH1 0x6A PUSH1 0x20 MSTORE PUSH1 0x40 DUP1 DUP3 KECCAK256 DUP2 MLOAD PUSH1 0x80 DUP2 ADD SWAP3 DUP4 SWAP1 MSTORE SWAP3 SWAP1 SWAP2 PUSH1 0x4 SWAP2 DUP4 SWAP1 DUP6 JUMPDEST DUP3 SLOAD PUSH2 0x100 DUP4 SWAP1 EXP SWAP1 DIV PUSH1 0xFF AND DUP2 MSTORE PUSH1 0x20 PUSH1 0x1 SWAP3 DUP4 ADD DUP2 DUP2 DIV SWAP5 DUP6 ADD SWAP5 SWAP1 SWAP4 SUB SWAP1 SWAP3 MUL SWAP2 ADD DUP1 DUP5 GT PUSH2 0x1C20 JUMPI SWAP1 POP POP POP POP POP POP SWAP1 POP DUP1 PUSH1 0x0 PUSH1 0x4 DUP2 LT PUSH2 0x1C62 JUMPI INVALID JUMPDEST PUSH1 0x20 MUL ADD MLOAD PUSH1 0xFF AND PUSH2 0x1CA8 JUMPI PUSH1 0x40 DUP1 MLOAD PUSH3 0x461BCD PUSH1 0xE5 SHL DUP2 MSTORE PUSH1 0x20 PUSH1 0x4 DUP3 ADD MSTORE PUSH1 0xA PUSH1 0x24 DUP3 ADD MSTORE PUSH10 0x1B9BDD08191C985DD959 PUSH1 0xB2 SHL PUSH1 0x44 DUP3 ADD MSTORE SWAP1 MLOAD SWAP1 DUP2 SWAP1 SUB PUSH1 0x64 ADD SWAP1 REVERT JUMPDEST PUSH1 0x0 DUP1 JUMPDEST PUSH1 0x4 DUP2 LT ISZERO PUSH2 0x1CF2 JUMPI DUP4 DUP2 PUSH1 0x4 DUP2 LT PUSH2 0x1CC1 JUMPI INVALID JUMPDEST PUSH1 0x20 MUL ADD MLOAD PUSH1 0xFF AND DUP4 DUP3 PUSH1 0x4 DUP2 LT PUSH2 0x1CD5 JUMPI INVALID JUMPDEST PUSH1 0x20 MUL ADD MLOAD PUSH1 0xFF AND EQ ISZERO PUSH2 0x1CEA JUMPI DUP2 PUSH1 0x1 ADD SWAP2 POP JUMPDEST PUSH1 0x1 ADD PUSH2 0x1CAC JUMP JUMPDEST POP PUSH1 0x0 PUSH1 0x1 DUP3 GT ISZERO PUSH2 0x1DE5 JUMPI PUSH1 0x67 SLOAD PUSH1 0x40 DUP1 MLOAD PUSH4 0x7BD06065 PUSH1 0xE1 SHL DUP2 MSTORE PUSH1 0x4 DUP2 ADD DUP11 SWAP1 MSTORE SWAP1 MLOAD PUSH1 0x0 SWAP3 PUSH1 0x1 PUSH1 0x1 PUSH1 0xA0 SHL SUB AND SWAP2 PUSH4 0xF7A0C0CA SWAP2 PUSH1 0x24 DUP1 DUP4 ADD SWAP3 PUSH1 0x20 SWAP3 SWAP2 SWAP1 DUP3 SWAP1 SUB ADD DUP2 DUP7 DUP1 EXTCODESIZE ISZERO DUP1 ISZERO PUSH2 0x1D4A JUMPI PUSH1 0x0 DUP1 REVERT JUMPDEST POP GAS STATICCALL ISZERO DUP1 ISZERO PUSH2 0x1D5E JUMPI RETURNDATASIZE PUSH1 0x0 DUP1 RETURNDATACOPY RETURNDATASIZE PUSH1 0x0 REVERT JUMPDEST POP POP POP POP PUSH1 0x40 MLOAD RETURNDATASIZE PUSH1 0x20 DUP2 LT ISZERO PUSH2 0x1D74 JUMPI PUSH1 0x0 DUP1 REVERT JUMPDEST POP MLOAD SWAP1 POP PUSH1 0x0 PUSH2 0x1DBE PUSH1 0x64 PUSH2 0x1DB8 PUSH1 0x65 PUSH1 0x4 DUP9 SWAP1 SUB PUSH1 0x3 DUP2 LT PUSH2 0x1D93 JUMPI INVALID JUMPDEST PUSH1 0x20 DUP2 DIV SWAP1 SWAP2 ADD SLOAD PUSH1 0xFF PUSH1 0x1F SWAP1 SWAP3 AND PUSH2 0x100 EXP SWAP1 DIV AND PUSH2 0x1DB2 DUP12 PUSH2 0xF3E JUMP JUMPDEST SWAP1 PUSH2 0x293E JUMP JUMPDEST SWAP1 PUSH2 0x2997 JUMP JUMPDEST SWAP1 POP PUSH2 0x1DE0 PUSH2 0x1DCD DUP9 DUP7 PUSH2 0x1A4F JUMP JUMPDEST PUSH2 0x1DB8 DUP4 PUSH2 0x1DB2 DUP7 PUSH5 0xE8D4A51000 PUSH2 0x293E JUMP JUMPDEST SWAP3 POP POP POP JUMPDEST PUSH2 0x1DF4 DUP2 PUSH5 0xE8D4A51000 PUSH2 0x2997 JUMP JUMPDEST SWAP8 SWAP7 POP POP POP POP POP POP POP JUMP JUMPDEST PUSH1 0x68 SLOAD PUSH1 0x1 PUSH1 0x1 PUSH1 0xA0 SHL SUB AND CALLER EQ PUSH2 0x1E4C JUMPI PUSH1 0x40 DUP1 MLOAD PUSH3 0x461BCD PUSH1 0xE5 SHL DUP2 MSTORE PUSH1 0x20 PUSH1 0x4 DUP3 ADD MSTORE PUSH1 0xB PUSH1 0x24 DUP3 ADD MSTORE PUSH11 0x61646D696E3A207775743F PUSH1 0xA8 SHL PUSH1 0x44 DUP3 ADD MSTORE SWAP1 MLOAD SWAP1 DUP2 SWAP1 SUB PUSH1 0x64 ADD SWAP1 REVERT JUMPDEST PUSH2 0x1E54 PUSH2 0x20C5 JUMP JUMPDEST PUSH2 0x1E8F JUMPI PUSH1 0x40 DUP1 MLOAD PUSH3 0x461BCD PUSH1 0xE5 SHL DUP2 MSTORE PUSH1 0x20 PUSH1 0x4 DUP3 ADD MSTORE PUSH1 0x7 PUSH1 0x24 DUP3 ADD MSTORE PUSH7 0x6472617765643F PUSH1 0xC8 SHL PUSH1 0x44 DUP3 ADD MSTORE SWAP1 MLOAD SWAP1 DUP2 SWAP1 SUB PUSH1 0x64 ADD SWAP1 REVERT JUMPDEST TIMESTAMP PUSH1 0x72 SSTORE PUSH1 0x0 PUSH1 0x70 DUP2 SWAP1 SSTORE PUSH1 0x71 SSTORE PUSH1 0x73 DUP1 SLOAD PUSH4 0xFFFFFFFF NOT AND SWAP1 SSTORE PUSH1 0x74 DUP1 SLOAD PUSH1 0xFF NOT AND SWAP1 SSTORE PUSH1 0x6F DUP1 SLOAD PUSH1 0x1 DUP2 ADD SWAP1 SWAP2 SSTORE PUSH2 0x1ECA SWAP1 PUSH1 0x4 PUSH2 0x1A4F JUMP JUMPDEST PUSH2 0x1F4F JUMPI PUSH1 0x65 SLOAD PUSH1 0x6F SLOAD PUSH1 0x0 SWAP2 PUSH2 0x1EF5 SWAP2 PUSH1 0x64 SWAP2 PUSH2 0x1DB8 SWAP2 PUSH1 0xFF SWAP1 SWAP2 AND SWAP1 PUSH2 0x1DB2 SWAP1 PUSH1 0x0 NOT ADD PUSH2 0xF3E JUMP JUMPDEST PUSH1 0x40 DUP1 MLOAD PUSH1 0x80 DUP2 ADD SWAP2 DUP3 SWAP1 MSTORE SWAP2 SWAP3 POP PUSH2 0x1F4D SWAP2 DUP4 SWAP2 PUSH1 0x75 SWAP1 PUSH1 0x4 SWAP1 DUP3 PUSH1 0x0 DUP6 JUMPDEST DUP3 SLOAD PUSH2 0x100 DUP4 SWAP1 EXP SWAP1 DIV PUSH1 0xFF AND DUP2 MSTORE PUSH1 0x20 PUSH1 0x1 SWAP3 DUP4 ADD DUP2 DUP2 DIV SWAP5 DUP6 ADD SWAP5 SWAP1 SWAP4 SUB SWAP1 SWAP3 MUL SWAP2 ADD DUP1 DUP5 GT PUSH2 0x1F15 JUMPI SWAP1 POP POP POP POP POP POP PUSH2 0x29FE JUMP JUMPDEST POP JUMPDEST PUSH1 0x6F SLOAD PUSH1 0x40 MLOAD PUSH32 0x1C3CBB0D62726AB09D163873EBF9AED99DD8DC08E57BC938F458132FD178CF6 SWAP1 PUSH1 0x0 SWAP1 LOG2 JUMP JUMPDEST PUSH1 0x0 SLOAD PUSH2 0x100 SWAP1 DIV PUSH1 0xFF AND DUP1 PUSH2 0x1F96 JUMPI POP PUSH2 0x1F96 PUSH2 0x2BFA JUMP JUMPDEST DUP1 PUSH2 0x1FA4 JUMPI POP PUSH1 0x0 SLOAD PUSH1 0xFF AND ISZERO JUMPDEST PUSH2 0x1FDF JUMPI PUSH1 0x40 MLOAD PUSH3 0x461BCD PUSH1 0xE5 SHL DUP2 MSTORE PUSH1 0x4 ADD DUP1 DUP1 PUSH1 0x20 ADD DUP3 DUP2 SUB DUP3 MSTORE PUSH1 0x2E DUP2 MSTORE PUSH1 0x20 ADD DUP1 PUSH2 0x334E PUSH1 0x2E SWAP2 CODECOPY PUSH1 0x40 ADD SWAP2 POP POP PUSH1 0x40 MLOAD DUP1 SWAP2 SUB SWAP1 REVERT JUMPDEST PUSH1 0x0 SLOAD PUSH2 0x100 SWAP1 DIV PUSH1 0xFF AND ISZERO DUP1 ISZERO PUSH2 0x200A JUMPI PUSH1 0x0 DUP1 SLOAD PUSH1 0xFF NOT PUSH2 0xFF00 NOT SWAP1 SWAP2 AND PUSH2 0x100 OR AND PUSH1 0x1 OR SWAP1 SSTORE JUMPDEST PUSH1 0x1 PUSH1 0x1 PUSH1 0xA0 SHL SUB DUP3 AND PUSH2 0x201D JUMPI PUSH1 0x0 DUP1 REVERT JUMPDEST PUSH1 0x66 DUP1 SLOAD PUSH1 0x1 PUSH1 0x1 PUSH1 0xA0 SHL SUB NOT SWAP1 DUP2 AND PUSH1 0x1 PUSH1 0x1 PUSH1 0xA0 SHL SUB DUP10 DUP2 AND SWAP2 SWAP1 SWAP2 OR SWAP1 SWAP3 SSTORE PUSH1 0x67 DUP1 SLOAD DUP3 AND DUP9 DUP5 AND OR SWAP1 SSTORE PUSH1 0x69 DUP7 SWAP1 SSTORE PUSH1 0x68 DUP1 SLOAD PUSH1 0xFF PUSH1 0xA0 SHL NOT AND PUSH1 0x1 PUSH1 0xA0 SHL PUSH1 0xFF DUP9 AND MUL OR SWAP1 SWAP2 AND SWAP2 DUP5 AND SWAP2 SWAP1 SWAP2 OR SWAP1 SSTORE TIMESTAMP PUSH1 0x72 SSTORE PUSH1 0x40 DUP1 MLOAD PUSH1 0x60 DUP2 ADD DUP3 MSTORE PUSH1 0x3C DUP2 MSTORE PUSH1 0x14 PUSH1 0x20 DUP3 ADD MSTORE PUSH1 0xA SWAP2 DUP2 ADD SWAP2 SWAP1 SWAP2 MSTORE PUSH2 0x20A2 SWAP1 PUSH1 0x65 SWAP1 PUSH1 0x3 PUSH2 0x317E JUMP JUMPDEST POP PUSH2 0x20AB PUSH2 0x2C0B JUMP JUMPDEST DUP1 ISZERO PUSH2 0x20BD JUMPI PUSH1 0x0 DUP1 SLOAD PUSH2 0xFF00 NOT AND SWAP1 SSTORE JUMPDEST POP POP POP POP POP POP JUMP JUMPDEST PUSH1 0x73 SLOAD PUSH1 0xFF AND ISZERO ISZERO SWAP1 JUMP JUMPDEST PUSH1 0x69 SLOAD DUP2 JUMP JUMPDEST PUSH1 0x67 SLOAD PUSH1 0x1 PUSH1 0x1 PUSH1 0xA0 SHL SUB AND DUP2 JUMP JUMPDEST PUSH2 0x20ED PUSH2 0x269E JUMP JUMPDEST PUSH1 0x1 PUSH1 0x1 PUSH1 0xA0 SHL SUB AND PUSH2 0x20FE PUSH2 0x1463 JUMP JUMPDEST PUSH1 0x1 PUSH1 0x1 PUSH1 0xA0 SHL SUB AND EQ PUSH2 0x2147 JUMPI PUSH1 0x40 DUP1 MLOAD PUSH3 0x461BCD PUSH1 0xE5 SHL DUP2 MSTORE PUSH1 0x20 PUSH1 0x4 DUP3 ADD DUP2 SWAP1 MSTORE PUSH1 0x24 DUP3 ADD MSTORE PUSH1 0x0 DUP1 MLOAD PUSH1 0x20 PUSH2 0x339D DUP4 CODECOPY DUP2 MLOAD SWAP2 MSTORE PUSH1 0x44 DUP3 ADD MSTORE SWAP1 MLOAD SWAP1 DUP2 SWAP1 SUB PUSH1 0x64 ADD SWAP1 REVERT JUMPDEST PUSH1 0x1 PUSH1 0x1 PUSH1 0xA0 SHL SUB DUP2 AND PUSH2 0x218C JUMPI PUSH1 0x40 MLOAD PUSH3 0x461BCD PUSH1 0xE5 SHL DUP2 MSTORE PUSH1 0x4 ADD DUP1 DUP1 PUSH1 0x20 ADD DUP3 DUP2 SUB DUP3 MSTORE PUSH1 0x26 DUP2 MSTORE PUSH1 0x20 ADD DUP1 PUSH2 0x3302 PUSH1 0x26 SWAP2 CODECOPY PUSH1 0x40 ADD SWAP2 POP POP PUSH1 0x40 MLOAD DUP1 SWAP2 SUB SWAP1 REVERT JUMPDEST PUSH1 0x33 SLOAD PUSH1 0x40 MLOAD PUSH1 0x1 PUSH1 0x1 PUSH1 0xA0 SHL SUB DUP1 DUP5 AND SWAP3 AND SWAP1 PUSH1 0x0 DUP1 MLOAD PUSH1 0x20 PUSH2 0x33BD DUP4 CODECOPY DUP2 MLOAD SWAP2 MSTORE SWAP1 PUSH1 0x0 SWAP1 LOG3 PUSH1 0x33 DUP1 SLOAD PUSH1 0x1 PUSH1 0x1 PUSH1 0xA0 SHL SUB NOT AND PUSH1 0x1 PUSH1 0x1 PUSH1 0xA0 SHL SUB SWAP3 SWAP1 SWAP3 AND SWAP2 SWAP1 SWAP2 OR SWAP1 SSTORE JUMP JUMPDEST PUSH1 0x68 SLOAD PUSH1 0x1 PUSH1 0x1 PUSH1 0xA0 SHL SUB AND DUP2 JUMP JUMPDEST PUSH1 0x0 DUP1 JUMPDEST PUSH1 0x4 DUP2 LT ISZERO PUSH2 0x225B JUMPI PUSH1 0x68 SLOAD PUSH1 0x1 PUSH1 0xA0 SHL SWAP1 DIV PUSH1 0xFF AND DUP4 DUP3 PUSH1 0x4 DUP2 LT PUSH2 0x220B JUMPI INVALID JUMPDEST PUSH1 0x20 MUL ADD MLOAD PUSH1 0xFF AND GT ISZERO PUSH2 0x2253 JUMPI PUSH1 0x40 DUP1 MLOAD PUSH3 0x461BCD PUSH1 0xE5 SHL DUP2 MSTORE PUSH1 0x20 PUSH1 0x4 DUP3 ADD MSTORE PUSH1 0xA PUSH1 0x24 DUP3 ADD MSTORE PUSH10 0x3130B210373AB6B132B9 PUSH1 0xB1 SHL PUSH1 0x44 DUP3 ADD MSTORE SWAP1 MLOAD SWAP1 DUP2 SWAP1 SUB PUSH1 0x64 ADD SWAP1 REVERT JUMPDEST PUSH1 0x1 ADD PUSH2 0x21E9 JUMP JUMPDEST POP PUSH1 0x67 SLOAD PUSH1 0x6F SLOAD PUSH1 0x40 MLOAD PUSH3 0xDCE47 PUSH1 0xEA SHL DUP2 MSTORE CALLER PUSH1 0x4 DUP3 ADD DUP2 DUP2 MSTORE PUSH1 0x0 SWAP5 PUSH1 0x1 PUSH1 0x1 PUSH1 0xA0 SHL SUB AND SWAP4 PUSH4 0x37391C00 SWAP4 DUP9 SWAP3 DUP11 SWAP3 SWAP2 PUSH1 0x24 ADD DUP5 PUSH1 0x80 DUP1 DUP4 DUP4 DUP14 JUMPDEST DUP4 DUP2 LT ISZERO PUSH2 0x22B1 JUMPI DUP2 DUP2 ADD MLOAD DUP4 DUP3 ADD MSTORE PUSH1 0x20 ADD PUSH2 0x2299 JUMP JUMPDEST POP POP POP POP SWAP1 POP ADD DUP4 DUP2 MSTORE PUSH1 0x20 ADD DUP3 DUP2 MSTORE PUSH1 0x20 ADD SWAP5 POP POP POP POP POP PUSH1 0x20 PUSH1 0x40 MLOAD DUP1 DUP4 SUB DUP2 PUSH1 0x0 DUP8 DUP1 EXTCODESIZE ISZERO DUP1 ISZERO PUSH2 0x22E4 JUMPI PUSH1 0x0 DUP1 REVERT JUMPDEST POP GAS CALL ISZERO DUP1 ISZERO PUSH2 0x22F8 JUMPI RETURNDATASIZE PUSH1 0x0 DUP1 RETURNDATACOPY RETURNDATASIZE PUSH1 0x0 REVERT JUMPDEST POP POP POP POP PUSH1 0x40 MLOAD RETURNDATASIZE PUSH1 0x20 DUP2 LT ISZERO PUSH2 0x230E JUMPI PUSH1 0x0 DUP1 REVERT JUMPDEST POP MLOAD PUSH1 0x6F SLOAD PUSH1 0x0 SWAP1 DUP2 MSTORE PUSH1 0x6B PUSH1 0x20 SWAP1 DUP2 MSTORE PUSH1 0x40 DUP1 DUP4 KECCAK256 DUP1 SLOAD PUSH1 0x1 DUP2 ADD DUP3 SSTORE SWAP1 DUP5 MSTORE DUP3 DUP5 KECCAK256 ADD DUP5 SWAP1 SSTORE CALLER DUP4 MSTORE PUSH1 0x6E SWAP1 SWAP2 MSTORE SWAP1 KECCAK256 SLOAD SWAP1 SWAP2 POP PUSH2 0x2352 JUMPI PUSH1 0x70 DUP1 SLOAD PUSH1 0x1 ADD SWAP1 SSTORE JUMPDEST CALLER PUSH1 0x0 SWAP1 DUP2 MSTORE PUSH1 0x6E PUSH1 0x20 SWAP1 DUP2 MSTORE PUSH1 0x40 DUP3 KECCAK256 DUP1 SLOAD PUSH1 0x1 DUP2 ADD DUP3 SSTORE SWAP1 DUP4 MSTORE SWAP2 KECCAK256 ADD DUP2 SWAP1 SSTORE PUSH1 0x71 SLOAD PUSH2 0x2381 SWAP1 DUP6 PUSH2 0x24AC JUMP JUMPDEST PUSH1 0x71 SSTORE TIMESTAMP PUSH1 0x72 SSTORE PUSH2 0x2390 PUSH2 0x315F JUMP JUMPDEST PUSH2 0x2399 DUP5 PUSH2 0xFE3 JUMP JUMPDEST SWAP1 POP PUSH1 0x0 JUMPDEST PUSH1 0xB DUP2 LT ISZERO PUSH2 0x2442 JUMPI PUSH1 0x6F SLOAD PUSH1 0x0 SWAP1 DUP2 MSTORE PUSH1 0x6D PUSH1 0x20 MSTORE PUSH1 0x40 DUP2 KECCAK256 PUSH2 0x23FD SWAP2 DUP9 SWAP2 SWAP1 DUP6 DUP6 PUSH1 0xB DUP2 LT PUSH2 0x23CB JUMPI INVALID JUMPDEST PUSH1 0x20 MUL ADD MLOAD PUSH4 0xFFFFFFFF AND PUSH8 0xFFFFFFFFFFFFFFFF AND DUP2 MSTORE PUSH1 0x20 ADD SWAP1 DUP2 MSTORE PUSH1 0x20 ADD PUSH1 0x0 KECCAK256 SLOAD PUSH2 0x24AC SWAP1 SWAP2 SWAP1 PUSH4 0xFFFFFFFF AND JUMP JUMPDEST PUSH1 0x6F SLOAD PUSH1 0x0 SWAP1 DUP2 MSTORE PUSH1 0x6D PUSH1 0x20 MSTORE PUSH1 0x40 DUP2 KECCAK256 SWAP1 DUP5 DUP5 PUSH1 0xB DUP2 LT PUSH2 0x241B JUMPI INVALID JUMPDEST PUSH1 0x20 SWAP1 DUP2 MUL SWAP2 SWAP1 SWAP2 ADD MLOAD PUSH4 0xFFFFFFFF AND DUP3 MSTORE DUP2 ADD SWAP2 SWAP1 SWAP2 MSTORE PUSH1 0x40 ADD PUSH1 0x0 KECCAK256 SSTORE PUSH1 0x1 ADD PUSH2 0x239E JUMP JUMPDEST POP SWAP1 SWAP5 SWAP4 POP POP POP POP JUMP JUMPDEST PUSH1 0x40 DUP1 MLOAD PUSH1 0x1 PUSH1 0x1 PUSH1 0xA0 SHL SUB DUP1 DUP7 AND PUSH1 0x24 DUP4 ADD MSTORE DUP5 AND PUSH1 0x44 DUP3 ADD MSTORE PUSH1 0x64 DUP1 DUP3 ADD DUP5 SWAP1 MSTORE DUP3 MLOAD DUP1 DUP4 SUB SWAP1 SWAP2 ADD DUP2 MSTORE PUSH1 0x84 SWAP1 SWAP2 ADD SWAP1 SWAP2 MSTORE PUSH1 0x20 DUP2 ADD DUP1 MLOAD PUSH1 0x1 PUSH1 0x1 PUSH1 0xE0 SHL SUB AND PUSH4 0x23B872DD PUSH1 0xE0 SHL OR SWAP1 MSTORE PUSH2 0x24A6 SWAP1 DUP6 SWAP1 PUSH2 0x2CBD JUMP JUMPDEST POP POP POP POP JUMP JUMPDEST PUSH1 0x0 DUP3 DUP3 ADD DUP4 DUP2 LT ISZERO PUSH2 0x2506 JUMPI PUSH1 0x40 DUP1 MLOAD PUSH3 0x461BCD PUSH1 0xE5 SHL DUP2 MSTORE PUSH1 0x20 PUSH1 0x4 DUP3 ADD MSTORE PUSH1 0x1B PUSH1 0x24 DUP3 ADD MSTORE PUSH32 0x536166654D6174683A206164646974696F6E206F766572666C6F770000000000 PUSH1 0x44 DUP3 ADD MSTORE SWAP1 MLOAD SWAP1 DUP2 SWAP1 SUB PUSH1 0x64 ADD SWAP1 REVERT JUMPDEST SWAP4 SWAP3 POP POP POP JUMP JUMPDEST PUSH1 0x66 SLOAD PUSH1 0x40 DUP1 MLOAD PUSH4 0x70A08231 PUSH1 0xE0 SHL DUP2 MSTORE ADDRESS PUSH1 0x4 DUP3 ADD MSTORE SWAP1 MLOAD PUSH1 0x0 SWAP3 PUSH1 0x1 PUSH1 0x1 PUSH1 0xA0 SHL SUB AND SWAP2 PUSH4 0x70A08231 SWAP2 PUSH1 0x24 DUP1 DUP4 ADD SWAP3 PUSH1 0x20 SWAP3 SWAP2 SWAP1 DUP3 SWAP1 SUB ADD DUP2 DUP7 DUP1 EXTCODESIZE ISZERO DUP1 ISZERO PUSH2 0x2558 JUMPI PUSH1 0x0 DUP1 REVERT JUMPDEST POP GAS STATICCALL ISZERO DUP1 ISZERO PUSH2 0x256C JUMPI RETURNDATASIZE PUSH1 0x0 DUP1 RETURNDATACOPY RETURNDATASIZE PUSH1 0x0 REVERT JUMPDEST POP POP POP POP PUSH1 0x40 MLOAD RETURNDATASIZE PUSH1 0x20 DUP2 LT ISZERO PUSH2 0x2582 JUMPI PUSH1 0x0 DUP1 REVERT JUMPDEST POP MLOAD SWAP1 POP DUP1 DUP3 GT ISZERO PUSH2 0x2616 JUMPI PUSH1 0x66 SLOAD PUSH1 0x40 DUP1 MLOAD PUSH4 0xA9059CBB PUSH1 0xE0 SHL DUP2 MSTORE PUSH1 0x1 PUSH1 0x1 PUSH1 0xA0 SHL SUB DUP7 DUP2 AND PUSH1 0x4 DUP4 ADD MSTORE PUSH1 0x24 DUP3 ADD DUP6 SWAP1 MSTORE SWAP2 MLOAD SWAP2 SWAP1 SWAP3 AND SWAP2 PUSH4 0xA9059CBB SWAP2 PUSH1 0x44 DUP1 DUP4 ADD SWAP3 PUSH1 0x20 SWAP3 SWAP2 SWAP1 DUP3 SWAP1 SUB ADD DUP2 PUSH1 0x0 DUP8 DUP1 EXTCODESIZE ISZERO DUP1 ISZERO PUSH2 0x25E4 JUMPI PUSH1 0x0 DUP1 REVERT JUMPDEST POP GAS CALL ISZERO DUP1 ISZERO PUSH2 0x25F8 JUMPI RETURNDATASIZE PUSH1 0x0 DUP1 RETURNDATACOPY RETURNDATASIZE PUSH1 0x0 REVERT JUMPDEST POP POP POP POP PUSH1 0x40 MLOAD RETURNDATASIZE PUSH1 0x20 DUP2 LT ISZERO PUSH2 0x260E JUMPI PUSH1 0x0 DUP1 REVERT JUMPDEST POP PUSH2 0x2699 SWAP1 POP JUMP JUMPDEST PUSH1 0x66 SLOAD PUSH1 0x40 DUP1 MLOAD PUSH4 0xA9059CBB PUSH1 0xE0 SHL DUP2 MSTORE PUSH1 0x1 PUSH1 0x1 PUSH1 0xA0 SHL SUB DUP7 DUP2 AND PUSH1 0x4 DUP4 ADD MSTORE PUSH1 0x24 DUP3 ADD DUP7 SWAP1 MSTORE SWAP2 MLOAD SWAP2 SWAP1 SWAP3 AND SWAP2 PUSH4 0xA9059CBB SWAP2 PUSH1 0x44 DUP1 DUP4 ADD SWAP3 PUSH1 0x20 SWAP3 SWAP2 SWAP1 DUP3 SWAP1 SUB ADD DUP2 PUSH1 0x0 DUP8 DUP1 EXTCODESIZE ISZERO DUP1 ISZERO PUSH2 0x266C JUMPI PUSH1 0x0 DUP1 REVERT JUMPDEST POP GAS CALL ISZERO DUP1 ISZERO PUSH2 0x2680 JUMPI RETURNDATASIZE PUSH1 0x0 DUP1 RETURNDATACOPY RETURNDATASIZE PUSH1 0x0 REVERT JUMPDEST POP POP POP POP PUSH1 0x40 MLOAD RETURNDATASIZE PUSH1 0x20 DUP2 LT ISZERO PUSH2 0x2696 JUMPI PUSH1 0x0 DUP1 REVERT JUMPDEST POP POP JUMPDEST POP POP POP JUMP JUMPDEST CALLER SWAP1 JUMP JUMPDEST PUSH1 0x40 DUP1 MLOAD PUSH1 0x1 PUSH1 0x1 PUSH1 0xA0 SHL SUB DUP5 AND PUSH1 0x24 DUP3 ADD MSTORE PUSH1 0x44 DUP1 DUP3 ADD DUP5 SWAP1 MSTORE DUP3 MLOAD DUP1 DUP4 SUB SWAP1 SWAP2 ADD DUP2 MSTORE PUSH1 0x64 SWAP1 SWAP2 ADD SWAP1 SWAP2 MSTORE PUSH1 0x20 DUP2 ADD DUP1 MLOAD PUSH1 0x1 PUSH1 0x1 PUSH1 0xE0 SHL SUB AND PUSH4 0xA9059CBB PUSH1 0xE0 SHL OR SWAP1 MSTORE PUSH2 0x2699 SWAP1 DUP5 SWAP1 PUSH2 0x2CBD JUMP JUMPDEST PUSH2 0x26FC PUSH2 0x328B JUMP JUMPDEST PUSH2 0x2704 PUSH2 0x315F JUMP JUMPDEST PUSH1 0x40 DUP1 MLOAD PUSH1 0x80 DUP2 ADD SWAP2 DUP3 SWAP1 MSTORE PUSH2 0x2757 SWAP2 PUSH1 0x73 SWAP1 PUSH1 0x4 SWAP1 DUP3 PUSH1 0x0 DUP6 JUMPDEST DUP3 SLOAD PUSH2 0x100 DUP4 SWAP1 EXP SWAP1 DIV PUSH1 0xFF AND DUP2 MSTORE PUSH1 0x20 PUSH1 0x1 SWAP3 DUP4 ADD DUP2 DUP2 DIV SWAP5 DUP6 ADD SWAP5 SWAP1 SWAP4 SUB SWAP1 SWAP3 MUL SWAP2 ADD DUP1 DUP5 GT PUSH2 0x271F JUMPI SWAP1 POP POP POP POP POP POP PUSH2 0xFE3 JUMP JUMPDEST PUSH1 0x6F SLOAD PUSH1 0x0 DUP2 DUP2 MSTORE PUSH1 0x6D PUSH1 0x20 DUP2 DUP2 MSTORE PUSH1 0x40 DUP1 DUP5 KECCAK256 DUP7 MLOAD PUSH4 0xFFFFFFFF SWAP1 DUP2 AND DUP7 MSTORE DUP2 DUP5 MSTORE DUP3 DUP7 KECCAK256 SLOAD DUP8 DUP8 MSTORE DUP6 DUP6 MSTORE DUP9 DUP6 ADD MLOAD SWAP1 SWAP2 AND DUP7 MSTORE DUP2 DUP5 MSTORE SWAP2 DUP6 KECCAK256 SLOAD SWAP6 DUP6 MSTORE SWAP3 SWAP1 SWAP2 MSTORE SWAP4 SWAP5 POP PUSH2 0x27D9 SWAP2 DUP6 PUSH1 0x2 JUMPDEST PUSH1 0x20 MUL ADD MLOAD PUSH4 0xFFFFFFFF AND PUSH8 0xFFFFFFFFFFFFFFFF AND DUP2 MSTORE PUSH1 0x20 ADD SWAP1 DUP2 MSTORE PUSH1 0x20 ADD PUSH1 0x0 KECCAK256 SLOAD DUP3 PUSH2 0x24AC SWAP1 SWAP2 SWAP1 PUSH4 0xFFFFFFFF AND JUMP JUMPDEST PUSH1 0x6F SLOAD PUSH1 0x0 SWAP1 DUP2 MSTORE PUSH1 0x6D PUSH1 0x20 MSTORE PUSH1 0x40 DUP2 KECCAK256 SWAP2 SWAP3 POP PUSH2 0x27FA SWAP2 SWAP1 DUP6 PUSH1 0x3 PUSH2 0x27A6 JUMP JUMPDEST PUSH1 0x6F SLOAD PUSH1 0x0 SWAP1 DUP2 MSTORE PUSH1 0x6D PUSH1 0x20 MSTORE PUSH1 0x40 DUP2 KECCAK256 SWAP2 SWAP3 POP PUSH2 0x281B SWAP2 SWAP1 DUP6 PUSH1 0x4 PUSH2 0x27A6 JUMP JUMPDEST SWAP1 POP PUSH2 0x2832 PUSH2 0x282B DUP4 PUSH1 0x4 PUSH2 0x293E JUMP JUMPDEST DUP3 SWAP1 PUSH2 0x2D6E JUMP JUMPDEST PUSH1 0x6F SLOAD PUSH1 0x0 DUP2 DUP2 MSTORE PUSH1 0x6D PUSH1 0x20 DUP2 DUP2 MSTORE PUSH1 0x40 DUP1 DUP5 KECCAK256 PUSH1 0xA0 DUP11 ADD MLOAD PUSH4 0xFFFFFFFF AND DUP6 MSTORE DUP1 DUP4 MSTORE SWAP1 DUP5 KECCAK256 SLOAD SWAP5 DUP5 MSTORE SWAP2 SWAP1 MSTORE SWAP3 SWAP4 POP SWAP1 SWAP2 PUSH2 0x2871 SWAP2 DUP7 PUSH1 0x6 PUSH2 0x27A6 JUMP JUMPDEST PUSH1 0x6F SLOAD PUSH1 0x0 SWAP1 DUP2 MSTORE PUSH1 0x6D PUSH1 0x20 MSTORE PUSH1 0x40 DUP2 KECCAK256 SWAP2 SWAP3 POP PUSH2 0x2892 SWAP2 SWAP1 DUP7 PUSH1 0x7 PUSH2 0x27A6 JUMP JUMPDEST PUSH1 0x6F SLOAD PUSH1 0x0 SWAP1 DUP2 MSTORE PUSH1 0x6D PUSH1 0x20 MSTORE PUSH1 0x40 DUP2 KECCAK256 SWAP2 SWAP3 POP PUSH2 0x28B3 SWAP2 SWAP1 DUP7 PUSH1 0x8 PUSH2 0x27A6 JUMP JUMPDEST PUSH1 0x6F SLOAD PUSH1 0x0 SWAP1 DUP2 MSTORE PUSH1 0x6D PUSH1 0x20 MSTORE PUSH1 0x40 DUP2 KECCAK256 SWAP2 SWAP3 POP PUSH2 0x28D4 SWAP2 SWAP1 DUP7 PUSH1 0x9 PUSH2 0x27A6 JUMP JUMPDEST PUSH1 0x6F SLOAD PUSH1 0x0 SWAP1 DUP2 MSTORE PUSH1 0x6D PUSH1 0x20 MSTORE PUSH1 0x40 DUP2 KECCAK256 SWAP2 SWAP3 POP PUSH2 0x28F5 SWAP2 SWAP1 DUP7 PUSH1 0xA PUSH2 0x27A6 JUMP JUMPDEST SWAP1 POP PUSH2 0x2905 PUSH2 0x282B DUP4 PUSH1 0x3 PUSH2 0x293E JUMP JUMPDEST SWAP1 POP PUSH2 0x2915 PUSH2 0x282B DUP5 PUSH1 0x6 PUSH2 0x293E JUMP JUMPDEST PUSH1 0x40 DUP1 MLOAD PUSH1 0x80 DUP2 ADD DUP3 MSTORE PUSH1 0x71 SLOAD DUP2 MSTORE PUSH1 0x20 DUP2 ADD SWAP6 SWAP1 SWAP6 MSTORE DUP5 ADD SWAP3 SWAP1 SWAP3 MSTORE POP PUSH1 0x60 DUP3 ADD MSTORE SWAP2 POP POP SWAP1 JUMP JUMPDEST PUSH1 0x0 DUP3 PUSH2 0x294D JUMPI POP PUSH1 0x0 PUSH2 0x1AE0 JUMP JUMPDEST DUP3 DUP3 MUL DUP3 DUP5 DUP3 DUP2 PUSH2 0x295A JUMPI INVALID JUMPDEST DIV EQ PUSH2 0x2506 JUMPI PUSH1 0x40 MLOAD PUSH3 0x461BCD PUSH1 0xE5 SHL DUP2 MSTORE PUSH1 0x4 ADD DUP1 DUP1 PUSH1 0x20 ADD DUP3 DUP2 SUB DUP3 MSTORE PUSH1 0x21 DUP2 MSTORE PUSH1 0x20 ADD DUP1 PUSH2 0x337C PUSH1 0x21 SWAP2 CODECOPY PUSH1 0x40 ADD SWAP2 POP POP PUSH1 0x40 MLOAD DUP1 SWAP2 SUB SWAP1 REVERT JUMPDEST PUSH1 0x0 DUP1 DUP3 GT PUSH2 0x29ED JUMPI PUSH1 0x40 DUP1 MLOAD PUSH3 0x461BCD PUSH1 0xE5 SHL DUP2 MSTORE PUSH1 0x20 PUSH1 0x4 DUP3 ADD MSTORE PUSH1 0x1A PUSH1 0x24 DUP3 ADD MSTORE PUSH32 0x536166654D6174683A206469766973696F6E206279207A65726F000000000000 PUSH1 0x44 DUP3 ADD MSTORE SWAP1 MLOAD SWAP1 DUP2 SWAP1 SUB PUSH1 0x64 ADD SWAP1 REVERT JUMPDEST DUP2 DUP4 DUP2 PUSH2 0x29F6 JUMPI INVALID JUMPDEST DIV SWAP4 SWAP3 POP POP POP JUMP JUMPDEST PUSH2 0x2A06 PUSH2 0x20C5 JUMP JUMPDEST ISZERO PUSH2 0x2A52 JUMPI PUSH1 0x40 DUP1 MLOAD PUSH3 0x461BCD PUSH1 0xE5 SHL DUP2 MSTORE PUSH1 0x20 PUSH1 0x4 DUP3 ADD MSTORE PUSH1 0x17 PUSH1 0x24 DUP3 ADD MSTORE PUSH23 0x6472617765642C2063616E206E6F7420627579206E6F77 PUSH1 0x48 SHL PUSH1 0x44 DUP3 ADD MSTORE SWAP1 MLOAD SWAP1 DUP2 SWAP1 SUB PUSH1 0x64 ADD SWAP1 REVERT JUMPDEST PUSH1 0x0 JUMPDEST PUSH1 0x4 DUP2 LT ISZERO PUSH2 0x2ACF JUMPI PUSH1 0x68 SLOAD PUSH1 0x1 PUSH1 0xA0 SHL SWAP1 DIV PUSH1 0xFF AND DUP3 DUP3 PUSH1 0x4 DUP2 LT PUSH2 0x2A77 JUMPI INVALID JUMPDEST PUSH1 0x20 MUL ADD MLOAD PUSH1 0xFF AND GT ISZERO PUSH2 0x2AC7 JUMPI PUSH1 0x40 DUP1 MLOAD PUSH3 0x461BCD PUSH1 0xE5 SHL DUP2 MSTORE PUSH1 0x20 PUSH1 0x4 DUP3 ADD MSTORE PUSH1 0x12 PUSH1 0x24 DUP3 ADD MSTORE PUSH18 0x65786365656420746865206D6178696D756D PUSH1 0x70 SHL PUSH1 0x44 DUP3 ADD MSTORE SWAP1 MLOAD SWAP1 DUP2 SWAP1 SUB PUSH1 0x64 ADD SWAP1 REVERT JUMPDEST PUSH1 0x1 ADD PUSH2 0x2A55 JUMP JUMPDEST POP PUSH1 0x67 SLOAD PUSH1 0x6F SLOAD PUSH1 0x40 MLOAD PUSH3 0xDCE47 PUSH1 0xEA SHL DUP2 MSTORE ADDRESS PUSH1 0x4 DUP3 ADD DUP2 DUP2 MSTORE PUSH1 0x0 SWAP5 PUSH1 0x1 PUSH1 0x1 PUSH1 0xA0 SHL SUB AND SWAP4 PUSH4 0x37391C00 SWAP4 DUP8 SWAP3 DUP10 SWAP3 SWAP2 PUSH1 0x24 ADD DUP5 PUSH1 0x80 DUP1 DUP4 DUP4 DUP14 JUMPDEST DUP4 DUP2 LT ISZERO PUSH2 0x2B25 JUMPI DUP2 DUP2 ADD MLOAD DUP4 DUP3 ADD MSTORE PUSH1 0x20 ADD PUSH2 0x2B0D JUMP JUMPDEST POP POP POP POP SWAP1 POP ADD DUP4 DUP2 MSTORE PUSH1 0x20 ADD DUP3 DUP2 MSTORE PUSH1 0x20 ADD SWAP5 POP POP POP POP POP PUSH1 0x20 PUSH1 0x40 MLOAD DUP1 DUP4 SUB DUP2 PUSH1 0x0 DUP8 DUP1 EXTCODESIZE ISZERO DUP1 ISZERO PUSH2 0x2B58 JUMPI PUSH1 0x0 DUP1 REVERT JUMPDEST POP GAS CALL ISZERO DUP1 ISZERO PUSH2 0x2B6C JUMPI RETURNDATASIZE PUSH1 0x0 DUP1 RETURNDATACOPY RETURNDATASIZE PUSH1 0x0 REVERT JUMPDEST POP POP POP POP PUSH1 0x40 MLOAD RETURNDATASIZE PUSH1 0x20 DUP2 LT ISZERO PUSH2 0x2B82 JUMPI PUSH1 0x0 DUP1 REVERT JUMPDEST POP MLOAD PUSH1 0x6F SLOAD PUSH1 0x0 SWAP1 DUP2 MSTORE PUSH1 0x6B PUSH1 0x20 SWAP1 DUP2 MSTORE PUSH1 0x40 DUP3 KECCAK256 DUP1 SLOAD PUSH1 0x1 DUP2 ADD DUP3 SSTORE SWAP1 DUP4 MSTORE SWAP2 KECCAK256 ADD DUP2 SWAP1 SSTORE PUSH1 0x71 SLOAD SWAP1 SWAP2 POP PUSH2 0x2BB8 SWAP1 DUP5 PUSH2 0x24AC JUMP JUMPDEST PUSH1 0x71 SSTORE TIMESTAMP PUSH1 0x72 SSTORE PUSH1 0x40 DUP1 MLOAD DUP3 DUP2 MSTORE SWAP1 MLOAD ADDRESS SWAP2 PUSH32 0xE3D4187F6CA4248660CC0AC8B8056515BAC4A8132BE2ECA31D6D0CC170722A7E SWAP2 SWAP1 DUP2 SWAP1 SUB PUSH1 0x20 ADD SWAP1 LOG2 POP POP POP JUMP JUMPDEST PUSH1 0x0 PUSH2 0x2C05 ADDRESS PUSH2 0x2DCB JUMP JUMPDEST ISZERO SWAP1 POP SWAP1 JUMP JUMPDEST PUSH1 0x0 SLOAD PUSH2 0x100 SWAP1 DIV PUSH1 0xFF AND DUP1 PUSH2 0x2C24 JUMPI POP PUSH2 0x2C24 PUSH2 0x2BFA JUMP JUMPDEST DUP1 PUSH2 0x2C32 JUMPI POP PUSH1 0x0 SLOAD PUSH1 0xFF AND ISZERO JUMPDEST PUSH2 0x2C6D JUMPI PUSH1 0x40 MLOAD PUSH3 0x461BCD PUSH1 0xE5 SHL DUP2 MSTORE PUSH1 0x4 ADD DUP1 DUP1 PUSH1 0x20 ADD DUP3 DUP2 SUB DUP3 MSTORE PUSH1 0x2E DUP2 MSTORE PUSH1 0x20 ADD DUP1 PUSH2 0x334E PUSH1 0x2E SWAP2 CODECOPY PUSH1 0x40 ADD SWAP2 POP POP PUSH1 0x40 MLOAD DUP1 SWAP2 SUB SWAP1 REVERT JUMPDEST PUSH1 0x0 SLOAD PUSH2 0x100 SWAP1 DIV PUSH1 0xFF AND ISZERO DUP1 ISZERO PUSH2 0x2C98 JUMPI PUSH1 0x0 DUP1 SLOAD PUSH1 0xFF NOT PUSH2 0xFF00 NOT SWAP1 SWAP2 AND PUSH2 0x100 OR AND PUSH1 0x1 OR SWAP1 SSTORE JUMPDEST PUSH2 0x2CA0 PUSH2 0x2DD1 JUMP JUMPDEST PUSH2 0x2CA8 PUSH2 0x2E71 JUMP JUMPDEST DUP1 ISZERO PUSH2 0x2CBA JUMPI PUSH1 0x0 DUP1 SLOAD PUSH2 0xFF00 NOT AND SWAP1 SSTORE JUMPDEST POP JUMP JUMPDEST PUSH1 0x60 PUSH2 0x2D12 DUP3 PUSH1 0x40 MLOAD DUP1 PUSH1 0x40 ADD PUSH1 0x40 MSTORE DUP1 PUSH1 0x20 DUP2 MSTORE PUSH1 0x20 ADD PUSH32 0x5361666542455032303A206C6F772D6C6576656C2063616C6C206661696C6564 DUP2 MSTORE POP DUP6 PUSH1 0x1 PUSH1 0x1 PUSH1 0xA0 SHL SUB AND PUSH2 0x2F58 SWAP1 SWAP3 SWAP2 SWAP1 PUSH4 0xFFFFFFFF AND JUMP JUMPDEST DUP1 MLOAD SWAP1 SWAP2 POP ISZERO PUSH2 0x2699 JUMPI DUP1 DUP1 PUSH1 0x20 ADD SWAP1 MLOAD PUSH1 0x20 DUP2 LT ISZERO PUSH2 0x2D31 JUMPI PUSH1 0x0 DUP1 REVERT JUMPDEST POP MLOAD PUSH2 0x2699 JUMPI PUSH1 0x40 MLOAD PUSH3 0x461BCD PUSH1 0xE5 SHL DUP2 MSTORE PUSH1 0x4 ADD DUP1 DUP1 PUSH1 0x20 ADD DUP3 DUP2 SUB DUP3 MSTORE PUSH1 0x2A DUP2 MSTORE PUSH1 0x20 ADD DUP1 PUSH2 0x32D8 PUSH1 0x2A SWAP2 CODECOPY PUSH1 0x40 ADD SWAP2 POP POP PUSH1 0x40 MLOAD DUP1 SWAP2 SUB SWAP1 REVERT JUMPDEST PUSH1 0x0 DUP3 DUP3 GT ISZERO PUSH2 0x2DC5 JUMPI PUSH1 0x40 DUP1 MLOAD PUSH3 0x461BCD PUSH1 0xE5 SHL DUP2 MSTORE PUSH1 0x20 PUSH1 0x4 DUP3 ADD MSTORE PUSH1 0x1E PUSH1 0x24 DUP3 ADD MSTORE PUSH32 0x536166654D6174683A207375627472616374696F6E206F766572666C6F770000 PUSH1 0x44 DUP3 ADD MSTORE SWAP1 MLOAD SWAP1 DUP2 SWAP1 SUB PUSH1 0x64 ADD SWAP1 REVERT JUMPDEST POP SWAP1 SUB SWAP1 JUMP JUMPDEST EXTCODESIZE ISZERO ISZERO SWAP1 JUMP JUMPDEST PUSH1 0x0 SLOAD PUSH2 0x100 SWAP1 DIV PUSH1 0xFF AND DUP1 PUSH2 0x2DEA JUMPI POP PUSH2 0x2DEA PUSH2 0x2BFA JUMP JUMPDEST DUP1 PUSH2 0x2DF8 JUMPI POP PUSH1 0x0 SLOAD PUSH1 0xFF AND ISZERO JUMPDEST PUSH2 0x2E33 JUMPI PUSH1 0x40 MLOAD PUSH3 0x461BCD PUSH1 0xE5 SHL DUP2 MSTORE PUSH1 0x4 ADD DUP1 DUP1 PUSH1 0x20 ADD DUP3 DUP2 SUB DUP3 MSTORE PUSH1 0x2E DUP2 MSTORE PUSH1 0x20 ADD DUP1 PUSH2 0x334E PUSH1 0x2E SWAP2 CODECOPY PUSH1 0x40 ADD SWAP2 POP POP PUSH1 0x40 MLOAD DUP1 SWAP2 SUB SWAP1 REVERT JUMPDEST PUSH1 0x0 SLOAD PUSH2 0x100 SWAP1 DIV PUSH1 0xFF AND ISZERO DUP1 ISZERO PUSH2 0x2CA8 JUMPI PUSH1 0x0 DUP1 SLOAD PUSH1 0xFF NOT PUSH2 0xFF00 NOT SWAP1 SWAP2 AND PUSH2 0x100 OR AND PUSH1 0x1 OR SWAP1 SSTORE DUP1 ISZERO PUSH2 0x2CBA JUMPI PUSH1 0x0 DUP1 SLOAD PUSH2 0xFF00 NOT AND SWAP1 SSTORE POP JUMP JUMPDEST PUSH1 0x0 SLOAD PUSH2 0x100 SWAP1 DIV PUSH1 0xFF AND DUP1 PUSH2 0x2E8A JUMPI POP PUSH2 0x2E8A PUSH2 0x2BFA JUMP JUMPDEST DUP1 PUSH2 0x2E98 JUMPI POP PUSH1 0x0 SLOAD PUSH1 0xFF AND ISZERO JUMPDEST PUSH2 0x2ED3 JUMPI PUSH1 0x40 MLOAD PUSH3 0x461BCD PUSH1 0xE5 SHL DUP2 MSTORE PUSH1 0x4 ADD DUP1 DUP1 PUSH1 0x20 ADD DUP3 DUP2 SUB DUP3 MSTORE PUSH1 0x2E DUP2 MSTORE PUSH1 0x20 ADD DUP1 PUSH2 0x334E PUSH1 0x2E SWAP2 CODECOPY PUSH1 0x40 ADD SWAP2 POP POP PUSH1 0x40 MLOAD DUP1 SWAP2 SUB SWAP1 REVERT JUMPDEST PUSH1 0x0 SLOAD PUSH2 0x100 SWAP1 DIV PUSH1 0xFF AND ISZERO DUP1 ISZERO PUSH2 0x2EFE JUMPI PUSH1 0x0 DUP1 SLOAD PUSH1 0xFF NOT PUSH2 0xFF00 NOT SWAP1 SWAP2 AND PUSH2 0x100 OR AND PUSH1 0x1 OR SWAP1 SSTORE JUMPDEST PUSH1 0x0 PUSH2 0x2F08 PUSH2 0x269E JUMP JUMPDEST PUSH1 0x33 DUP1 SLOAD PUSH1 0x1 PUSH1 0x1 PUSH1 0xA0 SHL SUB NOT AND PUSH1 0x1 PUSH1 0x1 PUSH1 0xA0 SHL SUB DUP4 AND SWAP1 DUP2 OR SWAP1 SWAP2 SSTORE PUSH1 0x40 MLOAD SWAP2 SWAP3 POP SWAP1 PUSH1 0x0 SWAP1 PUSH1 0x0 DUP1 MLOAD PUSH1 0x20 PUSH2 0x33BD DUP4 CODECOPY DUP2 MLOAD SWAP2 MSTORE SWAP1 DUP3 SWAP1 LOG3 POP DUP1 ISZERO PUSH2 0x2CBA JUMPI PUSH1 0x0 DUP1 SLOAD PUSH2 0xFF00 NOT AND SWAP1 SSTORE POP JUMP JUMPDEST PUSH1 0x60 PUSH2 0x2F67 DUP5 DUP5 PUSH1 0x0 DUP6 PUSH2 0x2F6F JUMP JUMPDEST SWAP5 SWAP4 POP POP POP POP JUMP JUMPDEST PUSH1 0x60 DUP3 SELFBALANCE LT ISZERO PUSH2 0x2FB0 JUMPI PUSH1 0x40 MLOAD PUSH3 0x461BCD PUSH1 0xE5 SHL DUP2 MSTORE PUSH1 0x4 ADD DUP1 DUP1 PUSH1 0x20 ADD DUP3 DUP2 SUB DUP3 MSTORE PUSH1 0x26 DUP2 MSTORE PUSH1 0x20 ADD DUP1 PUSH2 0x3328 PUSH1 0x26 SWAP2 CODECOPY PUSH1 0x40 ADD SWAP2 POP POP PUSH1 0x40 MLOAD DUP1 SWAP2 SUB SWAP1 REVERT JUMPDEST PUSH2 0x2FB9 DUP6 PUSH2 0x2DCB JUMP JUMPDEST PUSH2 0x300A JUMPI PUSH1 0x40 DUP1 MLOAD PUSH3 0x461BCD PUSH1 0xE5 SHL DUP2 MSTORE PUSH1 0x20 PUSH1 0x4 DUP3 ADD MSTORE PUSH1 0x1D PUSH1 0x24 DUP3 ADD MSTORE PUSH32 0x416464726573733A2063616C6C20746F206E6F6E2D636F6E7472616374000000 PUSH1 0x44 DUP3 ADD MSTORE SWAP1 MLOAD SWAP1 DUP2 SWAP1 SUB PUSH1 0x64 ADD SWAP1 REVERT JUMPDEST PUSH1 0x0 PUSH1 0x60 DUP7 PUSH1 0x1 PUSH1 0x1 PUSH1 0xA0 SHL SUB AND DUP6 DUP8 PUSH1 0x40 MLOAD DUP1 DUP3 DUP1 MLOAD SWAP1 PUSH1 0x20 ADD SWAP1 DUP1 DUP4 DUP4 JUMPDEST PUSH1 0x20 DUP4 LT PUSH2 0x3049 JUMPI DUP1 MLOAD DUP3 MSTORE PUSH1 0x1F NOT SWAP1 SWAP3 ADD SWAP2 PUSH1 0x20 SWAP2 DUP3 ADD SWAP2 ADD PUSH2 0x302A JUMP JUMPDEST PUSH1 0x1 DUP4 PUSH1 0x20 SUB PUSH2 0x100 EXP SUB DUP1 NOT DUP3 MLOAD AND DUP2 DUP5 MLOAD AND DUP1 DUP3 OR DUP6 MSTORE POP POP POP POP POP POP SWAP1 POP ADD SWAP2 POP POP PUSH1 0x0 PUSH1 0x40 MLOAD DUP1 DUP4 SUB DUP2 DUP6 DUP8 GAS CALL SWAP3 POP POP POP RETURNDATASIZE DUP1 PUSH1 0x0 DUP2 EQ PUSH2 0x30AB JUMPI PUSH1 0x40 MLOAD SWAP2 POP PUSH1 0x1F NOT PUSH1 0x3F RETURNDATASIZE ADD AND DUP3 ADD PUSH1 0x40 MSTORE RETURNDATASIZE DUP3 MSTORE RETURNDATASIZE PUSH1 0x0 PUSH1 0x20 DUP5 ADD RETURNDATACOPY PUSH2 0x30B0 JUMP JUMPDEST PUSH1 0x60 SWAP2 POP JUMPDEST POP SWAP2 POP SWAP2 POP PUSH2 0x1DF4 DUP3 DUP3 DUP7 PUSH1 0x60 DUP4 ISZERO PUSH2 0x30CA JUMPI POP DUP2 PUSH2 0x2506 JUMP JUMPDEST DUP3 MLOAD ISZERO PUSH2 0x30DA JUMPI DUP3 MLOAD DUP1 DUP5 PUSH1 0x20 ADD REVERT JUMPDEST DUP2 PUSH1 0x40 MLOAD PUSH3 0x461BCD PUSH1 0xE5 SHL DUP2 MSTORE PUSH1 0x4 ADD DUP1 DUP1 PUSH1 0x20 ADD DUP3 DUP2 SUB DUP3 MSTORE DUP4 DUP2 DUP2 MLOAD DUP2 MSTORE PUSH1 0x20 ADD SWAP2 POP DUP1 MLOAD SWAP1 PUSH1 0x20 ADD SWAP1 DUP1 DUP4 DUP4 PUSH1 0x0 JUMPDEST DUP4 DUP2 LT ISZERO PUSH2 0x3124 JUMPI DUP2 DUP2 ADD MLOAD DUP4 DUP3 ADD MSTORE PUSH1 0x20 ADD PUSH2 0x310C JUMP JUMPDEST POP POP POP POP SWAP1 POP SWAP1 DUP2 ADD SWAP1 PUSH1 0x1F AND DUP1 ISZERO PUSH2 0x3151 JUMPI DUP1 DUP3 SUB DUP1 MLOAD PUSH1 0x1 DUP4 PUSH1 0x20 SUB PUSH2 0x100 EXP SUB NOT AND DUP2 MSTORE PUSH1 0x20 ADD SWAP2 POP JUMPDEST POP SWAP3 POP POP POP PUSH1 0x40 MLOAD DUP1 SWAP2 SUB SWAP1 REVERT JUMPDEST PUSH1 0x40 MLOAD DUP1 PUSH2 0x160 ADD PUSH1 0x40 MSTORE DUP1 PUSH1 0xB SWAP1 PUSH1 0x20 DUP3 MUL DUP1 CALLDATASIZE DUP4 CALLDATACOPY POP SWAP2 SWAP3 SWAP2 POP POP JUMP JUMPDEST PUSH1 0x1 DUP4 ADD SWAP2 DUP4 SWAP1 DUP3 ISZERO PUSH2 0x3201 JUMPI SWAP2 PUSH1 0x20 MUL DUP3 ADD PUSH1 0x0 JUMPDEST DUP4 DUP3 GT ISZERO PUSH2 0x31D2 JUMPI DUP4 MLOAD DUP4 DUP3 PUSH2 0x100 EXP DUP2 SLOAD DUP2 PUSH1 0xFF MUL NOT AND SWAP1 DUP4 PUSH1 0xFF AND MUL OR SWAP1 SSTORE POP SWAP3 PUSH1 0x20 ADD SWAP3 PUSH1 0x1 ADD PUSH1 0x20 DUP2 PUSH1 0x0 ADD DIV SWAP3 DUP4 ADD SWAP3 PUSH1 0x1 SUB MUL PUSH2 0x3194 JUMP JUMPDEST DUP1 ISZERO PUSH2 0x31FF JUMPI DUP3 DUP2 PUSH2 0x100 EXP DUP2 SLOAD SWAP1 PUSH1 0xFF MUL NOT AND SWAP1 SSTORE PUSH1 0x1 ADD PUSH1 0x20 DUP2 PUSH1 0x0 ADD DIV SWAP3 DUP4 ADD SWAP3 PUSH1 0x1 SUB MUL PUSH2 0x31D2 JUMP JUMPDEST POP JUMPDEST POP PUSH2 0x320D SWAP3 SWAP2 POP PUSH2 0x32A9 JUMP JUMPDEST POP SWAP1 JUMP JUMPDEST PUSH1 0x1 DUP4 ADD SWAP2 DUP4 SWAP1 DUP3 ISZERO PUSH2 0x3201 JUMPI SWAP2 PUSH1 0x1F ADD PUSH1 0x20 SWAP1 DIV DUP3 ADD JUMPDEST DUP3 DUP2 GT ISZERO PUSH2 0x3201 JUMPI DUP3 SLOAD DUP3 SSTORE SWAP2 PUSH1 0x1 ADD SWAP2 SWAP1 PUSH1 0x1 ADD SWAP1 PUSH2 0x3229 JUMP JUMPDEST DUP3 DUP1 SLOAD DUP3 DUP3 SSTORE SWAP1 PUSH1 0x0 MSTORE PUSH1 0x20 PUSH1 0x0 KECCAK256 SWAP1 DUP2 ADD SWAP3 DUP3 ISZERO PUSH2 0x327F JUMPI SWAP2 PUSH1 0x20 MUL DUP3 ADD JUMPDEST DUP3 DUP2 GT ISZERO PUSH2 0x327F JUMPI DUP3 MLOAD DUP3 SSTORE SWAP2 PUSH1 0x20 ADD SWAP2 SWAP1 PUSH1 0x1 ADD SWAP1 PUSH2 0x3264 JUMP JUMPDEST POP PUSH2 0x320D SWAP3 SWAP2 POP PUSH2 0x32C2 JUMP JUMPDEST PUSH1 0x40 MLOAD DUP1 PUSH1 0x80 ADD PUSH1 0x40 MSTORE DUP1 PUSH1 0x4 SWAP1 PUSH1 0x20 DUP3 MUL DUP1 CALLDATASIZE DUP4 CALLDATACOPY POP SWAP2 SWAP3 SWAP2 POP POP JUMP JUMPDEST JUMPDEST DUP1 DUP3 GT ISZERO PUSH2 0x320D JUMPI DUP1 SLOAD PUSH1 0xFF NOT AND DUP2 SSTORE PUSH1 0x1 ADD PUSH2 0x32AA JUMP JUMPDEST JUMPDEST DUP1 DUP3 GT ISZERO PUSH2 0x320D JUMPI PUSH1 0x0 DUP2 SSTORE PUSH1 0x1 ADD PUSH2 0x32C3 JUMP INVALID MSTORE8 PUSH2 0x6665 TIMESTAMP GASLIMIT POP ORIGIN ADDRESS GASPRICE KECCAK256 TIMESTAMP GASLIMIT POP ORIGIN ADDRESS KECCAK256 PUSH16 0x7065726174696F6E20646964206E6F74 KECCAK256 PUSH20 0x7563636565644F776E61626C653A206E6577206F PUSH24 0x6E657220697320746865207A65726F206164647265737341 PUSH5 0x6472657373 GASPRICE KECCAK256 PUSH10 0x6E73756666696369656E PUSH21 0x2062616C616E636520666F722063616C6C496E6974 PUSH10 0x616C697A61626C653A20 PUSH4 0x6F6E7472 PUSH2 0x6374 KECCAK256 PUSH10 0x7320616C726561647920 PUSH10 0x6E697469616C697A6564 MSTORE8 PUSH2 0x6665 0x4D PUSH2 0x7468 GASPRICE KECCAK256 PUSH14 0x756C7469706C69636174696F6E20 PUSH16 0x766572666C6F774F776E61626C653A20 PUSH4 0x616C6C65 PUSH19 0x206973206E6F7420746865206F776E65728BE0 SMOD SWAP13 MSTORE8 AND MSIZE EQ SGT DIFFICULTY 0xCD 0x1F 0xD0 LOG4 CALLCODE DUP5 NOT 0x49 PUSH32 0x9722A3DAAFE3B4186F6B6457E0A26469706673582212205B29BEA7F165C24C60 JUMPI 0x5D DELEGATECALL RETURNDATACOPY DUP16 LOG4 0xAF MLOAD 0xE4 XOR 0xDB 0x23 PUSH24 0x104084AF7BB7AF906A6E64736F6C634300060C0033000000 "},"gasEstimates":{"creation":{"codeDepositCost":"2666000","executionCost":"infinite","totalCost":"infinite"},"external":{"adminAddress()":"1169","adminWithdraw(uint256)":"infinite","allocation(uint256)":"2830","buy(uint256,uint8[4])":"infinite","claimReward(uint256)":"infinite","drawed()":"1060","drawing(uint256)":"infinite","drawingPhase()":"1056","egg()":"1214","enterDrawingPhase()":"22757","generateCombinations(uint8[4])":"infinite","getMatchingRewardAmount(uint256,uint256)":"2156","getRewardView(uint256)":"infinite","getTotalRewards(uint256)":"4631","historyAmount(uint256,uint256)":"2212","historyNumbers(uint256,uint256)":"2867","initialize(address,address,uint256,uint8,address)":"infinite","issueIndex()":"1131","lastTimestamp()":"1044","lotteryInfo(uint256,uint256)":"2124","lotteryNFT()":"1125","maxNumber()":"1230","minPrice()":"1064","multiBuy(uint256,uint8[4][])":"infinite","multiClaim(uint256[])":"infinite","owner()":"1148","renounceOwnership()":"infinite","reset()":"infinite","setAdmin(address)":"infinite","setAllocation(uint8,uint8,uint8)":"infinite","setMaxNumber(uint8)":"23523","setMinPrice(uint256)":"22569","totalAddresses()":"1043","totalAmount()":"1066","transferOwnership(address)":"infinite","userBuyAmountSum(uint256,uint64)":"1355","userInfo(address,uint256)":"2143","winningNumbers(uint256)":"2809"},"internal":{"_buySingleTicket(uint256,uint8[4] memory)":"infinite","calculateMatchingRewardAmount()":"infinite","internalBuy(uint256,uint8[4] memory)":"infinite","safeEggTransfer(address,uint256)":"infinite"}},"methodIdentifiers":{"adminAddress()":"fc6f9468","adminWithdraw(uint256)":"7c5b4a37","allocation(uint256)":"850bad94","buy(uint256,uint8[4])":"14c20d57","claimReward(uint256)":"ae169a50","drawed()":"e1345416","drawing(uint256)":"a42206c9","drawingPhase()":"438209f5","egg()":"c06abfc7","enterDrawingPhase()":"1ff68866","generateCombinations(uint8[4])":"56933719","getMatchingRewardAmount(uint256,uint256)":"d1f7dbcf","getRewardView(uint256)":"d411b0fa","getTotalRewards(uint256)":"552164ee","historyAmount(uint256,uint256)":"c39f49c0","historyNumbers(uint256,uint256)":"59bcbd68","initialize(address,address,uint256,uint8,address)":"dc41825b","issueIndex()":"6a28f828","lastTimestamp()":"19d8ac61","lotteryInfo(uint256,uint256)":"6575243f","lotteryNFT()":"e8adfbc7","maxNumber()":"3a4f6999","minPrice()":"e45be8eb","multiBuy(uint256,uint8[4][])":"2bdff851","multiClaim(uint256[])":"4ed73d28","owner()":"8da5cb5b","renounceOwnership()":"715018a6","reset()":"d826f88f","setAdmin(address)":"704b6c02","setAllocation(uint8,uint8,uint8)":"5c17623a","setMaxNumber(uint8)":"324a5562","setMinPrice(uint256)":"5ea8cd12","totalAddresses()":"cfad5277","totalAmount()":"1a39d8ef","transferOwnership(address)":"f2fde38b","userBuyAmountSum(uint256,uint64)":"2f506b20","userInfo(address,uint256)":"21ce919d","winningNumbers(uint256)":"4e45f095"}},"storageLayout":{"storage":[{"astId":137,"contract":"contracts/lottery/Lottery.sol:Lottery","label":"_initialized","offset":0,"slot":"0","type":"t_bool"},{"astId":140,"contract":"contracts/lottery/Lottery.sol:Lottery","label":"_initializing","offset":1,"slot":"0","type":"t_bool"},{"astId":484,"contract":"contracts/lottery/Lottery.sol:Lottery","label":"__gap","offset":0,"slot":"1","type":"t_array(t_uint256)50_storage"},{"astId":10,"contract":"contracts/lottery/Lottery.sol:Lottery","label":"_owner","offset":0,"slot":"51","type":"t_address"},{"astId":129,"contract":"contracts/lottery/Lottery.sol:Lottery","label":"__gap","offset":0,"slot":"52","type":"t_array(t_uint256)49_storage"},{"astId":6700,"contract":"contracts/lottery/Lottery.sol:Lottery","label":"allocation","offset":0,"slot":"101","type":"t_array(t_uint8)3_storage"},{"astId":6702,"contract":"contracts/lottery/Lottery.sol:Lottery","label":"egg","offset":0,"slot":"102","type":"t_contract(IBEP20)6436"},{"astId":6704,"contract":"contracts/lottery/Lottery.sol:Lottery","label":"lotteryNFT","offset":0,"slot":"103","type":"t_contract(LotteryNFT)8595"},{"astId":6706,"contract":"contracts/lottery/Lottery.sol:Lottery","label":"adminAddress","offset":0,"slot":"104","type":"t_address"},{"astId":6708,"contract":"contracts/lottery/Lottery.sol:Lottery","label":"maxNumber","offset":20,"slot":"104","type":"t_uint8"},{"astId":6710,"contract":"contracts/lottery/Lottery.sol:Lottery","label":"minPrice","offset":0,"slot":"105","type":"t_uint256"},{"astId":6716,"contract":"contracts/lottery/Lottery.sol:Lottery","label":"historyNumbers","offset":0,"slot":"106","type":"t_mapping(t_uint256,t_array(t_uint8)4_storage)"},{"astId":6721,"contract":"contracts/lottery/Lottery.sol:Lottery","label":"lotteryInfo","offset":0,"slot":"107","type":"t_mapping(t_uint256,t_array(t_uint256)dyn_storage)"},{"astId":6726,"contract":"contracts/lottery/Lottery.sol:Lottery","label":"historyAmount","offset":0,"slot":"108","type":"t_mapping(t_uint256,t_array(t_uint256)dyn_storage)"},{"astId":6732,"contract":"contracts/lottery/Lottery.sol:Lottery","label":"userBuyAmountSum","offset":0,"slot":"109","type":"t_mapping(t_uint256,t_mapping(t_uint64,t_uint256))"},{"astId":6737,"contract":"contracts/lottery/Lottery.sol:Lottery","label":"userInfo","offset":0,"slot":"110","type":"t_mapping(t_address,t_array(t_uint256)dyn_storage)"},{"astId":6740,"contract":"contracts/lottery/Lottery.sol:Lottery","label":"issueIndex","offset":0,"slot":"111","type":"t_uint256"},{"astId":6743,"contract":"contracts/lottery/Lottery.sol:Lottery","label":"totalAddresses","offset":0,"slot":"112","type":"t_uint256"},{"astId":6746,"contract":"contracts/lottery/Lottery.sol:Lottery","label":"totalAmount","offset":0,"slot":"113","type":"t_uint256"},{"astId":6748,"contract":"contracts/lottery/Lottery.sol:Lottery","label":"lastTimestamp","offset":0,"slot":"114","type":"t_uint256"},{"astId":6752,"contract":"contracts/lottery/Lottery.sol:Lottery","label":"winningNumbers","offset":0,"slot":"115","type":"t_array(t_uint8)4_storage"},{"astId":6754,"contract":"contracts/lottery/Lottery.sol:Lottery","label":"drawingPhase","offset":0,"slot":"116","type":"t_bool"},{"astId":6899,"contract":"contracts/lottery/Lottery.sol:Lottery","label":"nullTicket","offset":0,"slot":"117","type":"t_array(t_uint8)4_storage"}],"types":{"t_address":{"encoding":"inplace","label":"address","numberOfBytes":"20"},"t_array(t_uint256)49_storage":{"base":"t_uint256","encoding":"inplace","label":"uint256[49]","numberOfBytes":"1568"},"t_array(t_uint256)50_storage":{"base":"t_uint256","encoding":"inplace","label":"uint256[50]","numberOfBytes":"1600"},"t_array(t_uint256)dyn_storage":{"base":"t_uint256","encoding":"dynamic_array","label":"uint256[]","numberOfBytes":"32"},"t_array(t_uint8)3_storage":{"base":"t_uint8","encoding":"inplace","label":"uint8[3]","numberOfBytes":"32"},"t_array(t_uint8)4_storage":{"base":"t_uint8","encoding":"inplace","label":"uint8[4]","numberOfBytes":"32"},"t_bool":{"encoding":"inplace","label":"bool","numberOfBytes":"1"},"t_contract(IBEP20)6436":{"encoding":"inplace","label":"contract IBEP20","numberOfBytes":"20"},"t_contract(LotteryNFT)8595":{"encoding":"inplace","label":"contract LotteryNFT","numberOfBytes":"20"},"t_mapping(t_address,t_array(t_uint256)dyn_storage)":{"encoding":"mapping","key":"t_address","label":"mapping(address => uint256[])","numberOfBytes":"32","value":"t_array(t_uint256)dyn_storage"},"t_mapping(t_uint256,t_array(t_uint256)dyn_storage)":{"encoding":"mapping","key":"t_uint256","label":"mapping(uint256 => uint256[])","numberOfBytes":"32","value":"t_array(t_uint256)dyn_storage"},"t_mapping(t_uint256,t_array(t_uint8)4_storage)":{"encoding":"mapping","key":"t_uint256","label":"mapping(uint256 => uint8[4])","numberOfBytes":"32","value":"t_array(t_uint8)4_storage"},"t_mapping(t_uint256,t_mapping(t_uint64,t_uint256))":{"encoding":"mapping","key":"t_uint256","label":"mapping(uint256 => mapping(uint64 => uint256))","numberOfBytes":"32","value":"t_mapping(t_uint64,t_uint256)"},"t_mapping(t_uint64,t_uint256)":{"encoding":"mapping","key":"t_uint64","label":"mapping(uint64 => uint256)","numberOfBytes":"32","value":"t_uint256"},"t_uint256":{"encoding":"inplace","label":"uint256","numberOfBytes":"32"},"t_uint64":{"encoding":"inplace","label":"uint64","numberOfBytes":"8"},"t_uint8":{"encoding":"inplace","label":"uint8","numberOfBytes":"1"}}},"userdoc":{"kind":"user","methods":{},"version":1}}}}